{
  "_format": "hh-sol-artifact-1",
  "contractName": "SpacePassNFT",
  "sourceName": "contracts/SpacePassNFT.sol",
  "abi": [
    {
      "inputs": [],
      "name": "URIQueryForNonexistentToken",
      "type": "error"
    },
    {
      "anonymous": false,
      "inputs": [
        {
          "indexed": true,
          "internalType": "address",
          "name": "owner",
          "type": "address"
        },
        {
          "indexed": true,
          "internalType": "address",
          "name": "approved",
          "type": "address"
        },
        {
          "indexed": true,
          "internalType": "uint256",
          "name": "tokenId",
          "type": "uint256"
        }
      ],
      "name": "Approval",
      "type": "event"
    },
    {
      "anonymous": false,
      "inputs": [
        {
          "indexed": true,
          "internalType": "address",
          "name": "owner",
          "type": "address"
        },
        {
          "indexed": true,
          "internalType": "address",
          "name": "operator",
          "type": "address"
        },
        {
          "indexed": false,
          "internalType": "bool",
          "name": "approved",
          "type": "bool"
        }
      ],
      "name": "ApprovalForAll",
      "type": "event"
    },
    {
      "anonymous": false,
      "inputs": [
        {
          "indexed": false,
          "internalType": "string",
          "name": "newBaseURI",
          "type": "string"
        }
      ],
      "name": "BaseURIChanged",
      "type": "event"
    },
    {
      "anonymous": false,
      "inputs": [
        {
          "indexed": false,
          "internalType": "uint8",
          "name": "version",
          "type": "uint8"
        }
      ],
      "name": "Initialized",
      "type": "event"
    },
    {
      "anonymous": false,
      "inputs": [
        {
          "indexed": true,
          "internalType": "bytes32",
          "name": "role",
          "type": "bytes32"
        },
        {
          "indexed": true,
          "internalType": "bytes32",
          "name": "previousAdminRole",
          "type": "bytes32"
        },
        {
          "indexed": true,
          "internalType": "bytes32",
          "name": "newAdminRole",
          "type": "bytes32"
        }
      ],
      "name": "RoleAdminChanged",
      "type": "event"
    },
    {
      "anonymous": false,
      "inputs": [
        {
          "indexed": true,
          "internalType": "bytes32",
          "name": "role",
          "type": "bytes32"
        },
        {
          "indexed": true,
          "internalType": "address",
          "name": "account",
          "type": "address"
        },
        {
          "indexed": true,
          "internalType": "address",
          "name": "sender",
          "type": "address"
        }
      ],
      "name": "RoleGranted",
      "type": "event"
    },
    {
      "anonymous": false,
      "inputs": [
        {
          "indexed": true,
          "internalType": "bytes32",
          "name": "role",
          "type": "bytes32"
        },
        {
          "indexed": true,
          "internalType": "address",
          "name": "account",
          "type": "address"
        },
        {
          "indexed": true,
          "internalType": "address",
          "name": "sender",
          "type": "address"
        }
      ],
      "name": "RoleRevoked",
      "type": "event"
    },
    {
      "anonymous": false,
      "inputs": [
        {
          "indexed": false,
          "internalType": "bytes32",
          "name": "newRoot",
          "type": "bytes32"
        }
      ],
      "name": "RootChanged",
      "type": "event"
    },
    {
      "anonymous": false,
      "inputs": [
        {
          "indexed": true,
          "internalType": "address",
          "name": "from",
          "type": "address"
        },
        {
          "indexed": true,
          "internalType": "address",
          "name": "to",
          "type": "address"
        },
        {
          "indexed": true,
          "internalType": "uint256",
          "name": "tokenId",
          "type": "uint256"
        }
      ],
      "name": "Transfer",
      "type": "event"
    },
    {
      "inputs": [],
      "name": "DEFAULT_ADMIN_ROLE",
      "outputs": [
        {
          "internalType": "bytes32",
          "name": "",
          "type": "bytes32"
        }
      ],
      "stateMutability": "view",
      "type": "function"
    },
    {
      "inputs": [],
      "name": "MINTER_ROLE",
      "outputs": [
        {
          "internalType": "bytes32",
          "name": "",
          "type": "bytes32"
        }
      ],
      "stateMutability": "view",
      "type": "function"
    },
    {
      "inputs": [
        {
          "internalType": "uint256",
          "name": "tokenId",
          "type": "uint256"
        },
        {
          "internalType": "uint256",
          "name": "time",
          "type": "uint256"
        }
      ],
      "name": "activate",
      "outputs": [
        {
          "internalType": "bool",
          "name": "",
          "type": "bool"
        }
      ],
      "stateMutability": "nonpayable",
      "type": "function"
    },
    {
      "inputs": [
        {
          "internalType": "uint256",
          "name": "tokenId",
          "type": "uint256"
        }
      ],
      "name": "activated",
      "outputs": [
        {
          "internalType": "uint256",
          "name": "",
          "type": "uint256"
        }
      ],
      "stateMutability": "view",
      "type": "function"
    },
    {
      "inputs": [
        {
          "internalType": "address",
          "name": "to",
          "type": "address"
        },
        {
          "internalType": "uint256",
          "name": "tokenId",
          "type": "uint256"
        }
      ],
      "name": "approve",
      "outputs": [],
      "stateMutability": "nonpayable",
      "type": "function"
    },
    {
      "inputs": [
        {
          "internalType": "address",
          "name": "owner",
          "type": "address"
        }
      ],
      "name": "balanceOf",
      "outputs": [
        {
          "internalType": "uint256",
          "name": "",
          "type": "uint256"
        }
      ],
      "stateMutability": "view",
      "type": "function"
    },
    {
      "inputs": [],
      "name": "baseURI",
      "outputs": [
        {
          "internalType": "string",
          "name": "",
          "type": "string"
        }
      ],
      "stateMutability": "view",
      "type": "function"
    },
    {
      "inputs": [
        {
          "internalType": "uint256",
          "name": "tokenId",
          "type": "uint256"
        }
      ],
      "name": "burn",
      "outputs": [],
      "stateMutability": "nonpayable",
      "type": "function"
    },
    {
      "inputs": [
        {
          "internalType": "uint256",
          "name": "tokenId",
          "type": "uint256"
        }
      ],
      "name": "duration",
      "outputs": [
        {
          "internalType": "uint256",
          "name": "",
          "type": "uint256"
        }
      ],
      "stateMutability": "view",
      "type": "function"
    },
    {
      "inputs": [
        {
          "internalType": "uint256",
          "name": "tokenId",
          "type": "uint256"
        }
      ],
      "name": "expires",
      "outputs": [
        {
          "internalType": "uint256",
          "name": "",
          "type": "uint256"
        }
      ],
      "stateMutability": "view",
      "type": "function"
    },
    {
      "inputs": [
        {
          "internalType": "uint256",
          "name": "tokenId",
          "type": "uint256"
        }
      ],
      "name": "getApproved",
      "outputs": [
        {
          "internalType": "address",
          "name": "",
          "type": "address"
        }
      ],
      "stateMutability": "view",
      "type": "function"
    },
    {
      "inputs": [
        {
          "internalType": "bytes32",
          "name": "role",
          "type": "bytes32"
        }
      ],
      "name": "getRoleAdmin",
      "outputs": [
        {
          "internalType": "bytes32",
          "name": "",
          "type": "bytes32"
        }
      ],
      "stateMutability": "view",
      "type": "function"
    },
    {
      "inputs": [
        {
          "internalType": "bytes32",
          "name": "role",
          "type": "bytes32"
        },
        {
          "internalType": "address",
          "name": "account",
          "type": "address"
        }
      ],
      "name": "grantRole",
      "outputs": [],
      "stateMutability": "nonpayable",
      "type": "function"
    },
    {
      "inputs": [
        {
          "internalType": "bytes32",
          "name": "role",
          "type": "bytes32"
        },
        {
          "internalType": "address",
          "name": "account",
          "type": "address"
        }
      ],
      "name": "hasRole",
      "outputs": [
        {
          "internalType": "bool",
          "name": "",
          "type": "bool"
        }
      ],
      "stateMutability": "view",
      "type": "function"
    },
    {
      "inputs": [],
      "name": "initialize",
      "outputs": [],
      "stateMutability": "nonpayable",
      "type": "function"
    },
    {
      "inputs": [
        {
          "internalType": "address",
          "name": "owner",
          "type": "address"
        },
        {
          "internalType": "address",
          "name": "operator",
          "type": "address"
        }
      ],
      "name": "isApprovedForAll",
      "outputs": [
        {
          "internalType": "bool",
          "name": "",
          "type": "bool"
        }
      ],
      "stateMutability": "view",
      "type": "function"
    },
    {
      "inputs": [
        {
          "internalType": "address",
          "name": "addr",
          "type": "address"
        }
      ],
      "name": "lastActivated",
      "outputs": [
        {
          "internalType": "uint256",
          "name": "",
          "type": "uint256"
        }
      ],
      "stateMutability": "view",
      "type": "function"
    },
    {
      "inputs": [
        {
          "internalType": "address",
          "name": "addr",
          "type": "address"
        },
        {
          "internalType": "uint256",
          "name": "duration",
          "type": "uint256"
        }
      ],
      "name": "mint",
      "outputs": [
        {
          "internalType": "uint256",
          "name": "",
          "type": "uint256"
        }
      ],
      "stateMutability": "nonpayable",
      "type": "function"
    },
    {
      "inputs": [
        {
          "internalType": "address[]",
          "name": "addrs",
          "type": "address[]"
        },
        {
          "internalType": "uint256[]",
          "name": "timestamps",
          "type": "uint256[]"
        },
        {
          "internalType": "uint256",
          "name": "duration",
          "type": "uint256"
        }
      ],
      "name": "mintAndActivateBatch",
      "outputs": [],
      "stateMutability": "nonpayable",
      "type": "function"
    },
    {
      "inputs": [
        {
          "internalType": "address[]",
          "name": "addrs",
          "type": "address[]"
        },
        {
          "internalType": "uint256[]",
          "name": "ids",
          "type": "uint256[]"
        }
      ],
      "name": "mintBatch",
      "outputs": [],
      "stateMutability": "nonpayable",
      "type": "function"
    },
    {
      "inputs": [
        {
          "internalType": "address[]",
          "name": "addrs",
          "type": "address[]"
        },
        {
          "internalType": "uint256",
          "name": "duration",
          "type": "uint256"
        }
      ],
      "name": "mintMany",
      "outputs": [],
      "stateMutability": "nonpayable",
      "type": "function"
    },
    {
      "inputs": [],
      "name": "name",
      "outputs": [
        {
          "internalType": "string",
          "name": "",
          "type": "string"
        }
      ],
      "stateMutability": "view",
      "type": "function"
    },
    {
      "inputs": [
        {
          "internalType": "uint256",
          "name": "tokenId",
          "type": "uint256"
        }
      ],
      "name": "ownerOf",
      "outputs": [
        {
          "internalType": "address",
          "name": "",
          "type": "address"
        }
      ],
      "stateMutability": "view",
      "type": "function"
    },
    {
      "inputs": [
        {
          "internalType": "bytes32",
          "name": "role",
          "type": "bytes32"
        },
        {
          "internalType": "address",
          "name": "account",
          "type": "address"
        }
      ],
      "name": "renounceRole",
      "outputs": [],
      "stateMutability": "nonpayable",
      "type": "function"
    },
    {
      "inputs": [
        {
          "internalType": "bytes32",
          "name": "role",
          "type": "bytes32"
        },
        {
          "internalType": "address",
          "name": "account",
          "type": "address"
        }
      ],
      "name": "revokeRole",
      "outputs": [],
      "stateMutability": "nonpayable",
      "type": "function"
    },
    {
      "inputs": [
        {
          "internalType": "address",
          "name": "from",
          "type": "address"
        },
        {
          "internalType": "address",
          "name": "to",
          "type": "address"
        },
        {
          "internalType": "uint256",
          "name": "tokenId",
          "type": "uint256"
        }
      ],
      "name": "safeTransferFrom",
      "outputs": [],
      "stateMutability": "nonpayable",
      "type": "function"
    },
    {
      "inputs": [
        {
          "internalType": "address",
          "name": "from",
          "type": "address"
        },
        {
          "internalType": "address",
          "name": "to",
          "type": "address"
        },
        {
          "internalType": "uint256",
          "name": "tokenId",
          "type": "uint256"
        },
        {
          "internalType": "bytes",
          "name": "data",
          "type": "bytes"
        }
      ],
      "name": "safeTransferFrom",
      "outputs": [],
      "stateMutability": "nonpayable",
      "type": "function"
    },
    {
      "inputs": [
        {
          "internalType": "address",
          "name": "operator",
          "type": "address"
        },
        {
          "internalType": "bool",
          "name": "approved",
          "type": "bool"
        }
      ],
      "name": "setApprovalForAll",
      "outputs": [],
      "stateMutability": "nonpayable",
      "type": "function"
    },
    {
      "inputs": [
        {
          "internalType": "string",
          "name": "_baseURI",
          "type": "string"
        }
      ],
      "name": "setTokenURI",
      "outputs": [],
      "stateMutability": "nonpayable",
      "type": "function"
    },
    {
      "inputs": [
        {
          "internalType": "uint256",
          "name": "tokenId",
          "type": "uint256"
        }
      ],
      "name": "status",
      "outputs": [
        {
          "internalType": "uint256",
          "name": "",
          "type": "uint256"
        },
        {
          "internalType": "uint256",
          "name": "",
          "type": "uint256"
        },
        {
          "internalType": "address",
          "name": "",
          "type": "address"
        }
      ],
      "stateMutability": "view",
      "type": "function"
    },
    {
      "inputs": [
        {
          "internalType": "bytes4",
          "name": "interfaceId",
          "type": "bytes4"
        }
      ],
      "name": "supportsInterface",
      "outputs": [
        {
          "internalType": "bool",
          "name": "",
          "type": "bool"
        }
      ],
      "stateMutability": "view",
      "type": "function"
    },
    {
      "inputs": [],
      "name": "symbol",
      "outputs": [
        {
          "internalType": "string",
          "name": "",
          "type": "string"
        }
      ],
      "stateMutability": "view",
      "type": "function"
    },
    {
      "inputs": [
        {
          "internalType": "uint256",
          "name": "index",
          "type": "uint256"
        }
      ],
      "name": "tokenByIndex",
      "outputs": [
        {
          "internalType": "uint256",
          "name": "",
          "type": "uint256"
        }
      ],
      "stateMutability": "view",
      "type": "function"
    },
    {
      "inputs": [
        {
          "internalType": "address",
          "name": "owner",
          "type": "address"
        },
        {
          "internalType": "uint256",
          "name": "index",
          "type": "uint256"
        }
      ],
      "name": "tokenOfOwnerByIndex",
      "outputs": [
        {
          "internalType": "uint256",
          "name": "",
          "type": "uint256"
        }
      ],
      "stateMutability": "view",
      "type": "function"
    },
    {
      "inputs": [
        {
          "internalType": "uint256",
          "name": "tokenId",
          "type": "uint256"
        }
      ],
      "name": "tokenURI",
      "outputs": [
        {
          "internalType": "string",
          "name": "",
          "type": "string"
        }
      ],
      "stateMutability": "view",
      "type": "function"
    },
    {
      "inputs": [],
      "name": "totalSupply",
      "outputs": [
        {
          "internalType": "uint256",
          "name": "",
          "type": "uint256"
        }
      ],
      "stateMutability": "view",
      "type": "function"
    },
    {
      "inputs": [
        {
          "internalType": "address",
          "name": "from",
          "type": "address"
        },
        {
          "internalType": "address",
          "name": "to",
          "type": "address"
        },
        {
          "internalType": "uint256",
          "name": "tokenId",
          "type": "uint256"
        }
      ],
      "name": "transferFrom",
      "outputs": [],
      "stateMutability": "nonpayable",
      "type": "function"
    }
  ],
  "bytecode": "0x608060405234801561001057600080fd5b50615593806100206000396000f3fe608060405234801561001057600080fd5b50600436106102275760003560e01c806355c034de1161013057806395d89b41116100b8578063cb52c8231161007c578063cb52c823146106d2578063d539139314610702578063d547741f14610720578063e0df5b6f1461073c578063e985e9c51461075857610227565b806395d89b411461062e578063a217fddf1461064c578063a22cb4651461066a578063b88d4fde14610686578063c87b56dd146106a257610227565b806370a08231116100ff57806370a08231146105785780637c88e3d9146105a85780638129fc1c146105c45780638ea8f83c146105ce57806391d14854146105fe57610227565b806355c034de146104de5780636352211e1461050e578063645b569d1461053e5780636c0360eb1461055a57610227565b80632f745c59116101b357806340c10f191161018257806340c10f191461041457806342842e0e1461044457806342966c681461046057806342d21ef71461047c5780634f6ccce7146104ae57610227565b80632f745c591461036857806332fad9d81461039857806335bc5462146103c857806336568abe146103f857610227565b8063095ea7b3116101fa578063095ea7b3146102c657806318160ddd146102e257806323b872dd14610300578063248a9ca31461031c5780632f2ff15d1461034c57610227565b806301ffc9a71461022c5780630528cd111461025c57806306fdde0314610278578063081812fc14610296575b600080fd5b6102466004803603810190610241919061383d565b610788565b6040516102539190613885565b60405180910390f35b61027660048036038101906102719190613991565b61086a565b005b610280610a63565b60405161028d9190613ab6565b60405180910390f35b6102b060048036038101906102ab9190613ad8565b610af5565b6040516102bd9190613b46565b60405180910390f35b6102e060048036038101906102db9190613b8d565b610b3b565b005b6102ea610c52565b6040516102f79190613bdc565b60405180910390f35b61031a60048036038101906103159190613bf7565b610c5f565b005b61033660048036038101906103319190613c80565b610cbf565b6040516103439190613cbc565b60405180910390f35b61036660048036038101906103619190613cd7565b610cdf565b005b610382600480360381019061037d9190613b8d565b610d00565b60405161038f9190613bdc565b60405180910390f35b6103b260048036038101906103ad9190613ad8565b610da5565b6040516103bf9190613bdc565b60405180910390f35b6103e260048036038101906103dd9190613ad8565b610dc2565b6040516103ef9190613bdc565b60405180910390f35b610412600480360381019061040d9190613cd7565b610ddf565b005b61042e60048036038101906104299190613b8d565b610e62565b60405161043b9190613bdc565b60405180910390f35b61045e60048036038101906104599190613bf7565b610f11565b005b61047a60048036038101906104759190613ad8565b610f31565b005b61049660048036038101906104919190613ad8565b610fbe565b6040516104a593929190613d17565b60405180910390f35b6104c860048036038101906104c39190613ad8565b611001565b6040516104d59190613bdc565b60405180910390f35b6104f860048036038101906104f39190613d4e565b611072565b6040516105059190613bdc565b60405180910390f35b61052860048036038101906105239190613ad8565b6110bb565b6040516105359190613b46565b60405180910390f35b61055860048036038101906105539190613d7b565b611141565b005b610562611234565b60405161056f9190613ab6565b60405180910390f35b610592600480360381019061058d9190613d4e565b6112c2565b60405161059f9190613bdc565b60405180910390f35b6105c260048036038101906105bd9190613ddb565b611379565b005b6105cc61149d565b005b6105e860048036038101906105e39190613e5c565b6116b8565b6040516105f59190613885565b60405180910390f35b61061860048036038101906106139190613cd7565b61184b565b6040516106259190613885565b60405180910390f35b6106366118b6565b6040516106439190613ab6565b60405180910390f35b610654611948565b6040516106619190613cbc565b60405180910390f35b610684600480360381019061067f9190613ec8565b61194f565b005b6106a0600480360381019061069b9190614038565b611965565b005b6106bc60048036038101906106b79190613ad8565b6119c7565b6040516106c99190613ab6565b60405180910390f35b6106ec60048036038101906106e79190613ad8565b611a66565b6040516106f99190613bdc565b60405180910390f35b61070a611ac5565b6040516107179190613cbc565b60405180910390f35b61073a60048036038101906107359190613cd7565b611ae9565b005b6107566004803603810190610751919061415c565b611b0a565b005b610772600480360381019061076d91906141a5565b611ba0565b60405161077f9190613885565b60405180910390f35b60007f79f154c4000000000000000000000000000000000000000000000000000000007bffffffffffffffffffffffffffffffffffffffffffffffffffffffff1916827bffffffffffffffffffffffffffffffffffffffffffffffffffffffff1916148061085357507fda8def73000000000000000000000000000000000000000000000000000000007bffffffffffffffffffffffffffffffffffffffffffffffffffffffff1916827bffffffffffffffffffffffffffffffffffffffffffffffffffffffff1916145b80610863575061086282611c34565b5b9050919050565b6108947ff0887ba65ee2024ea881d91b74c2450ef19e1557f03bed3ea9f16b037cbe2dc93361184b565b6108d3576040517f08c379a00000000000000000000000000000000000000000000000000000000081526004016108ca90614231565b60405180910390fd5b82829050858590501461091b576040517f08c379a00000000000000000000000000000000000000000000000000000000081526004016109129061429d565b60405180910390fd5b60005b85859050811015610a5b57600061093560fb611cae565b905061096887878481811061094d5761094c6142bd565b5b90506020020160208101906109629190613d4e565b82611cbc565b8260ff6000838152602001908152602001600020819055506000858584818110610995576109946142bd565b5b90506020020135036109be574260fe6000838152602001908152602001600020819055506109f0565b8484838181106109d1576109d06142bd565b5b9050602002013560fe6000838152602001908152602001600020819055505b6109fa60fb611cda565b8060fd6000610a08846110bb565b73ffffffffffffffffffffffffffffffffffffffff1673ffffffffffffffffffffffffffffffffffffffff1681526020019081526020016000208190555050600181610a54919061431b565b905061091e565b505050505050565b606060658054610a729061437e565b80601f0160208091040260200160405190810160405280929190818152602001828054610a9e9061437e565b8015610aeb5780601f10610ac057610100808354040283529160200191610aeb565b820191906000526020600020905b815481529060010190602001808311610ace57829003601f168201915b5050505050905090565b6000610b0082611cf0565b6069600083815260200190815260200160002060009054906101000a900473ffffffffffffffffffffffffffffffffffffffff169050919050565b6000610b46826110bb565b90508073ffffffffffffffffffffffffffffffffffffffff168373ffffffffffffffffffffffffffffffffffffffff1603610bb6576040517f08c379a0000000000000000000000000000000000000000000000000000000008152600401610bad90614421565b60405180910390fd5b8073ffffffffffffffffffffffffffffffffffffffff16610bd5611d3b565b73ffffffffffffffffffffffffffffffffffffffff161480610c045750610c0381610bfe611d3b565b611ba0565b5b610c43576040517f08c379a0000000000000000000000000000000000000000000000000000000008152600401610c3a906144b3565b60405180910390fd5b610c4d8383611d43565b505050565b6000609980549050905090565b610c70610c6a611d3b565b82611dfc565b610caf576040517f08c379a0000000000000000000000000000000000000000000000000000000008152600401610ca690614545565b60405180910390fd5b610cba838383611e91565b505050565b600060c96000838152602001908152602001600020600101549050919050565b610ce882610cbf565b610cf181612186565b610cfb838361219a565b505050565b6000610d0b836112c2565b8210610d4c576040517f08c379a0000000000000000000000000000000000000000000000000000000008152600401610d43906145d7565b60405180910390fd5b609760008473ffffffffffffffffffffffffffffffffffffffff1673ffffffffffffffffffffffffffffffffffffffff168152602001908152602001600020600083815260200190815260200160002054905092915050565b600060fe6000838152602001908152602001600020549050919050565b600060ff6000838152602001908152602001600020549050919050565b610de7611d3b565b73ffffffffffffffffffffffffffffffffffffffff168173ffffffffffffffffffffffffffffffffffffffff1614610e54576040517f08c379a0000000000000000000000000000000000000000000000000000000008152600401610e4b90614669565b60405180910390fd5b610e5e828261227b565b5050565b6000610e8e7ff0887ba65ee2024ea881d91b74c2450ef19e1557f03bed3ea9f16b037cbe2dc93361184b565b610ecd576040517f08c379a0000000000000000000000000000000000000000000000000000000008152600401610ec490614231565b60405180910390fd5b6000610ed960fb611cae565b9050610ee58482611cbc565b8260ff600083815260200190815260200160002081905550610f0760fb611cda565b8091505092915050565b610f2c83838360405180602001604052806000815250611965565b505050565b610f42610f3c611d3b565b82611dfc565b80610f735750610f727ff0887ba65ee2024ea881d91b74c2450ef19e1557f03bed3ea9f16b037cbe2dc93361184b565b5b610fb2576040517f08c379a0000000000000000000000000000000000000000000000000000000008152600401610fa9906146fb565b60405180910390fd5b610fbb8161235d565b50565b600080600060ff60008581526020019081526020016000205460fe600086815260200190815260200160002054610ff4866110bb565b9250925092509193909250565b600061100b610c52565b821061104c576040517f08c379a00000000000000000000000000000000000000000000000000000000081526004016110439061478d565b60405180910390fd5b609982815481106110605761105f6142bd565b5b90600052602060002001549050919050565b600060fd60008373ffffffffffffffffffffffffffffffffffffffff1673ffffffffffffffffffffffffffffffffffffffff168152602001908152602001600020549050919050565b6000806110c7836124a7565b9050600073ffffffffffffffffffffffffffffffffffffffff168173ffffffffffffffffffffffffffffffffffffffff1603611138576040517f08c379a000000000000000000000000000000000000000000000000000000000815260040161112f906147f9565b60405180910390fd5b80915050919050565b61116b7ff0887ba65ee2024ea881d91b74c2450ef19e1557f03bed3ea9f16b037cbe2dc93361184b565b6111aa576040517f08c379a00000000000000000000000000000000000000000000000000000000081526004016111a190614231565b60405180910390fd5b60005b8383905081101561122e5760006111c460fb611cae565b90506111f78585848181106111dc576111db6142bd565b5b90506020020160208101906111f19190613d4e565b82611cbc565b8260ff60008381526020019081526020016000208190555061121960fb611cda565b50600181611227919061431b565b90506111ad565b50505050565b60fc80546112419061437e565b80601f016020809104026020016040519081016040528092919081815260200182805461126d9061437e565b80156112ba5780601f1061128f576101008083540402835291602001916112ba565b820191906000526020600020905b81548152906001019060200180831161129d57829003601f168201915b505050505081565b60008073ffffffffffffffffffffffffffffffffffffffff168273ffffffffffffffffffffffffffffffffffffffff1603611332576040517f08c379a00000000000000000000000000000000000000000000000000000000081526004016113299061488b565b60405180910390fd5b606860008373ffffffffffffffffffffffffffffffffffffffff1673ffffffffffffffffffffffffffffffffffffffff168152602001908152602001600020549050919050565b8181905084849050146113c1576040517f08c379a00000000000000000000000000000000000000000000000000000000081526004016113b89061429d565b60405180910390fd5b6113eb7ff0887ba65ee2024ea881d91b74c2450ef19e1557f03bed3ea9f16b037cbe2dc93361184b565b61142a576040517f08c379a000000000000000000000000000000000000000000000000000000000815260040161142190614231565b60405180910390fd5b60005b848490508110156114965761148285858381811061144e5761144d6142bd565b5b90506020020160208101906114639190613d4e565b848484818110611476576114756142bd565b5b90506020020135611cbc565b60018161148f919061431b565b905061142d565b5050505050565b60008060019054906101000a900460ff161590508080156114ce5750600160008054906101000a900460ff1660ff16105b806114fb57506114dd306124e4565b1580156114fa5750600160008054906101000a900460ff1660ff16145b5b61153a576040517f08c379a00000000000000000000000000000000000000000000000000000000081526004016115319061491d565b60405180910390fd5b60016000806101000a81548160ff021916908360ff1602179055508015611577576001600060016101000a81548160ff0219169083151502179055505b6115eb6040518060400160405280600c81526020017f5370616365506173734e465400000000000000000000000000000000000000008152506040518060400160405280600481526020017f5041535300000000000000000000000000000000000000000000000000000000815250612507565b6115f3612564565b6116006000801b336125b5565b61162a7ff0887ba65ee2024ea881d91b74c2450ef19e1557f03bed3ea9f16b037cbe2dc9336125b5565b60405180606001604052806022815260200161553c6022913960fc90816116519190614ae9565b5061165c60fb611cda565b80156116b55760008060016101000a81548160ff0219169083151502179055507f7f26b83ff96e1f2b6a682f133852f6798a09c465da95921460cefb384740249860016040516116ac9190614c03565b60405180910390a15b50565b60006116e47ff0887ba65ee2024ea881d91b74c2450ef19e1557f03bed3ea9f16b037cbe2dc93361184b565b8061172257503373ffffffffffffffffffffffffffffffffffffffff1661170a846110bb565b73ffffffffffffffffffffffffffffffffffffffff16145b611761576040517f08c379a000000000000000000000000000000000000000000000000000000000815260040161175890614c90565b60405180910390fd5b600060fe600085815260200190815260200160002054146117b7576040517f08c379a00000000000000000000000000000000000000000000000000000000081526004016117ae90614cfc565b60405180910390fd5b600082036117dc574260fe6000858152602001908152602001600020819055506117f5565b8160fe6000858152602001908152602001600020819055505b8260fd6000611803866110bb565b73ffffffffffffffffffffffffffffffffffffffff1673ffffffffffffffffffffffffffffffffffffffff168152602001908152602001600020819055506001905092915050565b600060c9600084815260200190815260200160002060000160008373ffffffffffffffffffffffffffffffffffffffff1673ffffffffffffffffffffffffffffffffffffffff16815260200190815260200160002060009054906101000a900460ff16905092915050565b6060606680546118c59061437e565b80601f01602080910402602001604051908101604052809291908181526020018280546118f19061437e565b801561193e5780601f106119135761010080835404028352916020019161193e565b820191906000526020600020905b81548152906001019060200180831161192157829003601f168201915b5050505050905090565b6000801b81565b61196161195a611d3b565b83836125c3565b5050565b611976611970611d3b565b83611dfc565b6119b5576040517f08c379a00000000000000000000000000000000000000000000000000000000081526004016119ac90614545565b60405180910390fd5b6119c18484848461272f565b50505050565b60606119d28261278b565b611a08576040517fa14c4b5000000000000000000000000000000000000000000000000000000000815260040160405180910390fd5b600060fc8054611a179061437e565b905003611a335760405180602001604052806000815250611a5f565b60fc611a3e836127cc565b604051602001611a4f929190614ddb565b6040516020818303038152906040525b9050919050565b60008060fe60008481526020019081526020016000205403611a8b5760009050611ac0565b60ff60008381526020019081526020016000205460fe600084815260200190815260200160002054611abd919061431b565b90505b919050565b7ff0887ba65ee2024ea881d91b74c2450ef19e1557f03bed3ea9f16b037cbe2dc981565b611af282610cbf565b611afb81612186565b611b05838361227b565b505050565b611b176000801b3361184b565b611b56576040517f08c379a0000000000000000000000000000000000000000000000000000000008152600401611b4d90614231565b60405180910390fd5b8060fc9081611b659190614ae9565b507f5411e8ebf1636d9e83d5fc4900bf80cbac82e8790da2a4c94db4895e889eedf681604051611b959190613ab6565b60405180910390a150565b6000606a60008473ffffffffffffffffffffffffffffffffffffffff1673ffffffffffffffffffffffffffffffffffffffff16815260200190815260200160002060008373ffffffffffffffffffffffffffffffffffffffff1673ffffffffffffffffffffffffffffffffffffffff16815260200190815260200160002060009054906101000a900460ff16905092915050565b60007f7965db0b000000000000000000000000000000000000000000000000000000007bffffffffffffffffffffffffffffffffffffffffffffffffffffffff1916827bffffffffffffffffffffffffffffffffffffffffffffffffffffffff19161480611ca75750611ca68261289a565b5b9050919050565b600081600001549050919050565b611cd6828260405180602001604052806000815250612914565b5050565b6001816000016000828254019250508190555050565b611cf98161278b565b611d38576040517f08c379a0000000000000000000000000000000000000000000000000000000008152600401611d2f906147f9565b60405180910390fd5b50565b600033905090565b816069600083815260200190815260200160002060006101000a81548173ffffffffffffffffffffffffffffffffffffffff021916908373ffffffffffffffffffffffffffffffffffffffff160217905550808273ffffffffffffffffffffffffffffffffffffffff16611db6836110bb565b73ffffffffffffffffffffffffffffffffffffffff167f8c5be1e5ebec7d5bd14f71427d1e84f3dd0314c0f7b2291e5b200ac8c7c3b92560405160405180910390a45050565b600080611e08836110bb565b90508073ffffffffffffffffffffffffffffffffffffffff168473ffffffffffffffffffffffffffffffffffffffff161480611e4a5750611e498185611ba0565b5b80611e8857508373ffffffffffffffffffffffffffffffffffffffff16611e7084610af5565b73ffffffffffffffffffffffffffffffffffffffff16145b91505092915050565b8273ffffffffffffffffffffffffffffffffffffffff16611eb1826110bb565b73ffffffffffffffffffffffffffffffffffffffff1614611f07576040517f08c379a0000000000000000000000000000000000000000000000000000000008152600401611efe90614e71565b60405180910390fd5b600073ffffffffffffffffffffffffffffffffffffffff168273ffffffffffffffffffffffffffffffffffffffff1603611f76576040517f08c379a0000000000000000000000000000000000000000000000000000000008152600401611f6d90614f03565b60405180910390fd5b611f8183838361296f565b8273ffffffffffffffffffffffffffffffffffffffff16611fa1826110bb565b73ffffffffffffffffffffffffffffffffffffffff1614611ff7576040517f08c379a0000000000000000000000000000000000000000000000000000000008152600401611fee90614e71565b60405180910390fd5b6069600082815260200190815260200160002060006101000a81549073ffffffffffffffffffffffffffffffffffffffff02191690556001606860008573ffffffffffffffffffffffffffffffffffffffff1673ffffffffffffffffffffffffffffffffffffffff168152602001908152602001600020600082825403925050819055506001606860008473ffffffffffffffffffffffffffffffffffffffff1673ffffffffffffffffffffffffffffffffffffffff16815260200190815260200160002060008282540192505081905550816067600083815260200190815260200160002060006101000a81548173ffffffffffffffffffffffffffffffffffffffff021916908373ffffffffffffffffffffffffffffffffffffffff160217905550808273ffffffffffffffffffffffffffffffffffffffff168473ffffffffffffffffffffffffffffffffffffffff167fddf252ad1be2c89b69c2b068fc378daa952ba7f163c4a11628f55a4df523b3ef60405160405180910390a4612181838383612a0f565b505050565b61219781612192611d3b565b612a14565b50565b6121a4828261184b565b61227757600160c9600084815260200190815260200160002060000160008373ffffffffffffffffffffffffffffffffffffffff1673ffffffffffffffffffffffffffffffffffffffff16815260200190815260200160002060006101000a81548160ff02191690831515021790555061221c611d3b565b73ffffffffffffffffffffffffffffffffffffffff168173ffffffffffffffffffffffffffffffffffffffff16837f2f8788117e7eff1d82e926ec794901d17c78024a50270940304540a733656f0d60405160405180910390a45b5050565b612285828261184b565b1561235957600060c9600084815260200190815260200160002060000160008373ffffffffffffffffffffffffffffffffffffffff1673ffffffffffffffffffffffffffffffffffffffff16815260200190815260200160002060006101000a81548160ff0219169083151502179055506122fe611d3b565b73ffffffffffffffffffffffffffffffffffffffff168173ffffffffffffffffffffffffffffffffffffffff16837ff6391f5c32d9c69d2a47ea670b442974b53935d1edc7fd64eb21e047a839171b60405160405180910390a45b5050565b6000612368826110bb565b90506123768160008461296f565b61237f826110bb565b90506069600083815260200190815260200160002060006101000a81549073ffffffffffffffffffffffffffffffffffffffff02191690556001606860008373ffffffffffffffffffffffffffffffffffffffff1673ffffffffffffffffffffffffffffffffffffffff168152602001908152602001600020600082825403925050819055506067600083815260200190815260200160002060006101000a81549073ffffffffffffffffffffffffffffffffffffffff021916905581600073ffffffffffffffffffffffffffffffffffffffff168273ffffffffffffffffffffffffffffffffffffffff167fddf252ad1be2c89b69c2b068fc378daa952ba7f163c4a11628f55a4df523b3ef60405160405180910390a46124a381600084612a0f565b5050565b60006067600083815260200190815260200160002060009054906101000a900473ffffffffffffffffffffffffffffffffffffffff169050919050565b6000808273ffffffffffffffffffffffffffffffffffffffff163b119050919050565b600060019054906101000a900460ff16612556576040517f08c379a000000000000000000000000000000000000000000000000000000000815260040161254d90614f95565b60405180910390fd5b6125608282612a99565b5050565b600060019054906101000a900460ff166125b3576040517f08c379a00000000000000000000000000000000000000000000000000000000081526004016125aa90614f95565b60405180910390fd5b565b6125bf828261219a565b5050565b8173ffffffffffffffffffffffffffffffffffffffff168373ffffffffffffffffffffffffffffffffffffffff1603612631576040517f08c379a000000000000000000000000000000000000000000000000000000000815260040161262890615001565b60405180910390fd5b80606a60008573ffffffffffffffffffffffffffffffffffffffff1673ffffffffffffffffffffffffffffffffffffffff16815260200190815260200160002060008473ffffffffffffffffffffffffffffffffffffffff1673ffffffffffffffffffffffffffffffffffffffff16815260200190815260200160002060006101000a81548160ff0219169083151502179055508173ffffffffffffffffffffffffffffffffffffffff168373ffffffffffffffffffffffffffffffffffffffff167f17307eab39ab6107e8899845ad3d59bd9653f200f220920489ca2b5937696c31836040516127229190613885565b60405180910390a3505050565b61273a848484611e91565b61274684848484612b0c565b612785576040517f08c379a000000000000000000000000000000000000000000000000000000000815260040161277c90615093565b60405180910390fd5b50505050565b60008073ffffffffffffffffffffffffffffffffffffffff166127ad836124a7565b73ffffffffffffffffffffffffffffffffffffffff1614159050919050565b6060600060016127db84612c93565b01905060008167ffffffffffffffff8111156127fa576127f9613f0d565b5b6040519080825280601f01601f19166020018201604052801561282c5781602001600182028036833780820191505090505b509050600082602001820190505b60011561288f578080600190039150507f3031323334353637383961626364656600000000000000000000000000000000600a86061a8153600a8581612883576128826150b3565b5b0494506000850361283a575b819350505050919050565b60007f780e9d63000000000000000000000000000000000000000000000000000000007bffffffffffffffffffffffffffffffffffffffffffffffffffffffff1916827bffffffffffffffffffffffffffffffffffffffffffffffffffffffff1916148061290d575061290c82612de6565b5b9050919050565b61291e8383612ec8565b61292b6000848484612b0c565b61296a576040517f08c379a000000000000000000000000000000000000000000000000000000000815260040161296190615093565b60405180910390fd5b505050565b61297a8383836130e1565b600060fe6000838152602001908152602001600020541180156129ca5750600073ffffffffffffffffffffffffffffffffffffffff168273ffffffffffffffffffffffffffffffffffffffff1614155b15612a0a576040517f08c379a0000000000000000000000000000000000000000000000000000000008152600401612a0190615154565b60405180910390fd5b505050565b505050565b612a1e828261184b565b612a9557612a2b816131f3565b612a398360001c6020613220565b604051602001612a4a92919061520c565b6040516020818303038152906040526040517f08c379a0000000000000000000000000000000000000000000000000000000008152600401612a8c9190613ab6565b60405180910390fd5b5050565b600060019054906101000a900460ff16612ae8576040517f08c379a0000000000000000000000000000000000000000000000000000000008152600401612adf90614f95565b60405180910390fd5b8160659081612af79190614ae9565b508060669081612b079190614ae9565b505050565b6000612b2d8473ffffffffffffffffffffffffffffffffffffffff166124e4565b15612c86578373ffffffffffffffffffffffffffffffffffffffff1663150b7a02612b56611d3b565b8786866040518563ffffffff1660e01b8152600401612b78949392919061529b565b6020604051808303816000875af1925050508015612bb457506040513d601f19601f82011682018060405250810190612bb191906152fc565b60015b612c36573d8060008114612be4576040519150601f19603f3d011682016040523d82523d6000602084013e612be9565b606091505b506000815103612c2e576040517f08c379a0000000000000000000000000000000000000000000000000000000008152600401612c2590615093565b60405180910390fd5b805181602001fd5b63150b7a0260e01b7bffffffffffffffffffffffffffffffffffffffffffffffffffffffff1916817bffffffffffffffffffffffffffffffffffffffffffffffffffffffff191614915050612c8b565b600190505b949350505050565b600080600090507a184f03e93ff9f4daa797ed6e38ed64bf6a1f0100000000000000008310612cf1577a184f03e93ff9f4daa797ed6e38ed64bf6a1f0100000000000000008381612ce757612ce66150b3565b5b0492506040810190505b6d04ee2d6d415b85acef81000000008310612d2e576d04ee2d6d415b85acef81000000008381612d2457612d236150b3565b5b0492506020810190505b662386f26fc100008310612d5d57662386f26fc100008381612d5357612d526150b3565b5b0492506010810190505b6305f5e1008310612d86576305f5e1008381612d7c57612d7b6150b3565b5b0492506008810190505b6127108310612dab576127108381612da157612da06150b3565b5b0492506004810190505b60648310612dce5760648381612dc457612dc36150b3565b5b0492506002810190505b600a8310612ddd576001810190505b80915050919050565b60007f80ac58cd000000000000000000000000000000000000000000000000000000007bffffffffffffffffffffffffffffffffffffffffffffffffffffffff1916827bffffffffffffffffffffffffffffffffffffffffffffffffffffffff19161480612eb157507f5b5e139f000000000000000000000000000000000000000000000000000000007bffffffffffffffffffffffffffffffffffffffffffffffffffffffff1916827bffffffffffffffffffffffffffffffffffffffffffffffffffffffff1916145b80612ec15750612ec08261345c565b5b9050919050565b600073ffffffffffffffffffffffffffffffffffffffff168273ffffffffffffffffffffffffffffffffffffffff1603612f37576040517f08c379a0000000000000000000000000000000000000000000000000000000008152600401612f2e90615375565b60405180910390fd5b612f408161278b565b15612f80576040517f08c379a0000000000000000000000000000000000000000000000000000000008152600401612f77906153e1565b60405180910390fd5b612f8c6000838361296f565b612f958161278b565b15612fd5576040517f08c379a0000000000000000000000000000000000000000000000000000000008152600401612fcc906153e1565b60405180910390fd5b6001606860008473ffffffffffffffffffffffffffffffffffffffff1673ffffffffffffffffffffffffffffffffffffffff16815260200190815260200160002060008282540192505081905550816067600083815260200190815260200160002060006101000a81548173ffffffffffffffffffffffffffffffffffffffff021916908373ffffffffffffffffffffffffffffffffffffffff160217905550808273ffffffffffffffffffffffffffffffffffffffff16600073ffffffffffffffffffffffffffffffffffffffff167fddf252ad1be2c89b69c2b068fc378daa952ba7f163c4a11628f55a4df523b3ef60405160405180910390a46130dd60008383612a0f565b5050565b6130ec8383836134c6565b600073ffffffffffffffffffffffffffffffffffffffff168373ffffffffffffffffffffffffffffffffffffffff160361312e57613129816134cb565b61316d565b8173ffffffffffffffffffffffffffffffffffffffff168373ffffffffffffffffffffffffffffffffffffffff161461316c5761316b8382613514565b5b5b600073ffffffffffffffffffffffffffffffffffffffff168273ffffffffffffffffffffffffffffffffffffffff16036131af576131aa81613681565b6131ee565b8273ffffffffffffffffffffffffffffffffffffffff168273ffffffffffffffffffffffffffffffffffffffff16146131ed576131ec8282613752565b5b5b505050565b60606132198273ffffffffffffffffffffffffffffffffffffffff16601460ff16613220565b9050919050565b6060600060028360026132339190615401565b61323d919061431b565b67ffffffffffffffff81111561325657613255613f0d565b5b6040519080825280601f01601f1916602001820160405280156132885781602001600182028036833780820191505090505b5090507f3000000000000000000000000000000000000000000000000000000000000000816000815181106132c0576132bf6142bd565b5b60200101907effffffffffffffffffffffffffffffffffffffffffffffffffffffffffffff1916908160001a9053507f780000000000000000000000000000000000000000000000000000000000000081600181518110613324576133236142bd565b5b60200101907effffffffffffffffffffffffffffffffffffffffffffffffffffffffffffff1916908160001a905350600060018460026133649190615401565b61336e919061431b565b90505b600181111561340e577f3031323334353637383961626364656600000000000000000000000000000000600f8616601081106133b0576133af6142bd565b5b1a60f81b8282815181106133c7576133c66142bd565b5b60200101907effffffffffffffffffffffffffffffffffffffffffffffffffffffffffffff1916908160001a905350600485901c94508061340790615443565b9050613371565b5060008414613452576040517f08c379a0000000000000000000000000000000000000000000000000000000008152600401613449906154b8565b60405180910390fd5b8091505092915050565b60007f01ffc9a7000000000000000000000000000000000000000000000000000000007bffffffffffffffffffffffffffffffffffffffffffffffffffffffff1916827bffffffffffffffffffffffffffffffffffffffffffffffffffffffff1916149050919050565b505050565b609980549050609a600083815260200190815260200160002081905550609981908060018154018082558091505060019003906000526020600020016000909190919091505550565b60006001613521846112c2565b61352b91906154d8565b9050600060986000848152602001908152602001600020549050818114613610576000609760008673ffffffffffffffffffffffffffffffffffffffff1673ffffffffffffffffffffffffffffffffffffffff168152602001908152602001600020600084815260200190815260200160002054905080609760008773ffffffffffffffffffffffffffffffffffffffff1673ffffffffffffffffffffffffffffffffffffffff168152602001908152602001600020600084815260200190815260200160002081905550816098600083815260200190815260200160002081905550505b6098600084815260200190815260200160002060009055609760008573ffffffffffffffffffffffffffffffffffffffff1673ffffffffffffffffffffffffffffffffffffffff16815260200190815260200160002060008381526020019081526020016000206000905550505050565b6000600160998054905061369591906154d8565b90506000609a60008481526020019081526020016000205490506000609983815481106136c5576136c46142bd565b5b9060005260206000200154905080609983815481106136e7576136e66142bd565b5b906000526020600020018190555081609a600083815260200190815260200160002081905550609a60008581526020019081526020016000206000905560998054806137365761373561550c565b5b6001900381819060005260206000200160009055905550505050565b600061375d836112c2565b905081609760008573ffffffffffffffffffffffffffffffffffffffff1673ffffffffffffffffffffffffffffffffffffffff168152602001908152602001600020600083815260200190815260200160002081905550806098600084815260200190815260200160002081905550505050565b6000604051905090565b600080fd5b600080fd5b60007fffffffff0000000000000000000000000000000000000000000000000000000082169050919050565b61381a816137e5565b811461382557600080fd5b50565b60008135905061383781613811565b92915050565b600060208284031215613853576138526137db565b5b600061386184828501613828565b91505092915050565b60008115159050919050565b61387f8161386a565b82525050565b600060208201905061389a6000830184613876565b92915050565b600080fd5b600080fd5b600080fd5b60008083601f8401126138c5576138c46138a0565b5b8235905067ffffffffffffffff8111156138e2576138e16138a5565b5b6020830191508360208202830111156138fe576138fd6138aa565b5b9250929050565b60008083601f84011261391b5761391a6138a0565b5b8235905067ffffffffffffffff811115613938576139376138a5565b5b602083019150836020820283011115613954576139536138aa565b5b9250929050565b6000819050919050565b61396e8161395b565b811461397957600080fd5b50565b60008135905061398b81613965565b92915050565b6000806000806000606086880312156139ad576139ac6137db565b5b600086013567ffffffffffffffff8111156139cb576139ca6137e0565b5b6139d7888289016138af565b9550955050602086013567ffffffffffffffff8111156139fa576139f96137e0565b5b613a0688828901613905565b93509350506040613a198882890161397c565b9150509295509295909350565b600081519050919050565b600082825260208201905092915050565b60005b83811015613a60578082015181840152602081019050613a45565b60008484015250505050565b6000601f19601f8301169050919050565b6000613a8882613a26565b613a928185613a31565b9350613aa2818560208601613a42565b613aab81613a6c565b840191505092915050565b60006020820190508181036000830152613ad08184613a7d565b905092915050565b600060208284031215613aee57613aed6137db565b5b6000613afc8482850161397c565b91505092915050565b600073ffffffffffffffffffffffffffffffffffffffff82169050919050565b6000613b3082613b05565b9050919050565b613b4081613b25565b82525050565b6000602082019050613b5b6000830184613b37565b92915050565b613b6a81613b25565b8114613b7557600080fd5b50565b600081359050613b8781613b61565b92915050565b60008060408385031215613ba457613ba36137db565b5b6000613bb285828601613b78565b9250506020613bc38582860161397c565b9150509250929050565b613bd68161395b565b82525050565b6000602082019050613bf16000830184613bcd565b92915050565b600080600060608486031215613c1057613c0f6137db565b5b6000613c1e86828701613b78565b9350506020613c2f86828701613b78565b9250506040613c408682870161397c565b9150509250925092565b6000819050919050565b613c5d81613c4a565b8114613c6857600080fd5b50565b600081359050613c7a81613c54565b92915050565b600060208284031215613c9657613c956137db565b5b6000613ca484828501613c6b565b91505092915050565b613cb681613c4a565b82525050565b6000602082019050613cd16000830184613cad565b92915050565b60008060408385031215613cee57613ced6137db565b5b6000613cfc85828601613c6b565b9250506020613d0d85828601613b78565b9150509250929050565b6000606082019050613d2c6000830186613bcd565b613d396020830185613bcd565b613d466040830184613b37565b949350505050565b600060208284031215613d6457613d636137db565b5b6000613d7284828501613b78565b91505092915050565b600080600060408486031215613d9457613d936137db565b5b600084013567ffffffffffffffff811115613db257613db16137e0565b5b613dbe868287016138af565b93509350506020613dd18682870161397c565b9150509250925092565b60008060008060408587031215613df557613df46137db565b5b600085013567ffffffffffffffff811115613e1357613e126137e0565b5b613e1f878288016138af565b9450945050602085013567ffffffffffffffff811115613e4257613e416137e0565b5b613e4e87828801613905565b925092505092959194509250565b60008060408385031215613e7357613e726137db565b5b6000613e818582860161397c565b9250506020613e928582860161397c565b9150509250929050565b613ea58161386a565b8114613eb057600080fd5b50565b600081359050613ec281613e9c565b92915050565b60008060408385031215613edf57613ede6137db565b5b6000613eed85828601613b78565b9250506020613efe85828601613eb3565b9150509250929050565b600080fd5b7f4e487b7100000000000000000000000000000000000000000000000000000000600052604160045260246000fd5b613f4582613a6c565b810181811067ffffffffffffffff82111715613f6457613f63613f0d565b5b80604052505050565b6000613f776137d1565b9050613f838282613f3c565b919050565b600067ffffffffffffffff821115613fa357613fa2613f0d565b5b613fac82613a6c565b9050602081019050919050565b82818337600083830152505050565b6000613fdb613fd684613f88565b613f6d565b905082815260208101848484011115613ff757613ff6613f08565b5b614002848285613fb9565b509392505050565b600082601f83011261401f5761401e6138a0565b5b813561402f848260208601613fc8565b91505092915050565b60008060008060808587031215614052576140516137db565b5b600061406087828801613b78565b945050602061407187828801613b78565b93505060406140828782880161397c565b925050606085013567ffffffffffffffff8111156140a3576140a26137e0565b5b6140af8782880161400a565b91505092959194509250565b600067ffffffffffffffff8211156140d6576140d5613f0d565b5b6140df82613a6c565b9050602081019050919050565b60006140ff6140fa846140bb565b613f6d565b90508281526020810184848401111561411b5761411a613f08565b5b614126848285613fb9565b509392505050565b600082601f830112614143576141426138a0565b5b81356141538482602086016140ec565b91505092915050565b600060208284031215614172576141716137db565b5b600082013567ffffffffffffffff8111156141905761418f6137e0565b5b61419c8482850161412e565b91505092915050565b600080604083850312156141bc576141bb6137db565b5b60006141ca85828601613b78565b92505060206141db85828601613b78565b9150509250929050565b7f63616c6c6572206973206e6f742061206d696e74657200000000000000000000600082015250565b600061421b601683613a31565b9150614226826141e5565b602082019050919050565b6000602082019050818103600083015261424a8161420e565b9050919050565b7f696e76616c696420646174610000000000000000000000000000000000000000600082015250565b6000614287600c83613a31565b915061429282614251565b602082019050919050565b600060208201905081810360008301526142b68161427a565b9050919050565b7f4e487b7100000000000000000000000000000000000000000000000000000000600052603260045260246000fd5b7f4e487b7100000000000000000000000000000000000000000000000000000000600052601160045260246000fd5b60006143268261395b565b91506143318361395b565b9250828201905080821115614349576143486142ec565b5b92915050565b7f4e487b7100000000000000000000000000000000000000000000000000000000600052602260045260246000fd5b6000600282049050600182168061439657607f821691505b6020821081036143a9576143a861434f565b5b50919050565b7f4552433732313a20617070726f76616c20746f2063757272656e74206f776e6560008201527f7200000000000000000000000000000000000000000000000000000000000000602082015250565b600061440b602183613a31565b9150614416826143af565b604082019050919050565b6000602082019050818103600083015261443a816143fe565b9050919050565b7f4552433732313a20617070726f76652063616c6c6572206973206e6f7420746f60008201527f6b656e206f776e6572206f7220617070726f76656420666f7220616c6c000000602082015250565b600061449d603d83613a31565b91506144a882614441565b604082019050919050565b600060208201905081810360008301526144cc81614490565b9050919050565b7f4552433732313a2063616c6c6572206973206e6f7420746f6b656e206f776e6560008201527f72206f7220617070726f76656400000000000000000000000000000000000000602082015250565b600061452f602d83613a31565b915061453a826144d3565b604082019050919050565b6000602082019050818103600083015261455e81614522565b9050919050565b7f455243373231456e756d657261626c653a206f776e657220696e646578206f7560008201527f74206f6620626f756e6473000000000000000000000000000000000000000000602082015250565b60006145c1602b83613a31565b91506145cc82614565565b604082019050919050565b600060208201905081810360008301526145f0816145b4565b9050919050565b7f416363657373436f6e74726f6c3a2063616e206f6e6c792072656e6f756e636560008201527f20726f6c657320666f722073656c660000000000000000000000000000000000602082015250565b6000614653602f83613a31565b915061465e826145f7565b604082019050919050565b6000602082019050818103600083015261468281614646565b9050919050565b7f4552433732313a2063616c6c6572206973206e6f7420746f6b656e206f776e6560008201527f72206e6f72206d696e7465720000000000000000000000000000000000000000602082015250565b60006146e5602c83613a31565b91506146f082614689565b604082019050919050565b60006020820190508181036000830152614714816146d8565b9050919050565b7f455243373231456e756d657261626c653a20676c6f62616c20696e646578206f60008201527f7574206f6620626f756e64730000000000000000000000000000000000000000602082015250565b6000614777602c83613a31565b91506147828261471b565b604082019050919050565b600060208201905081810360008301526147a68161476a565b9050919050565b7f4552433732313a20696e76616c696420746f6b656e2049440000000000000000600082015250565b60006147e3601883613a31565b91506147ee826147ad565b602082019050919050565b60006020820190508181036000830152614812816147d6565b9050919050565b7f4552433732313a2061646472657373207a65726f206973206e6f74206120766160008201527f6c6964206f776e65720000000000000000000000000000000000000000000000602082015250565b6000614875602983613a31565b915061488082614819565b604082019050919050565b600060208201905081810360008301526148a481614868565b9050919050565b7f496e697469616c697a61626c653a20636f6e747261637420697320616c72656160008201527f647920696e697469616c697a6564000000000000000000000000000000000000602082015250565b6000614907602e83613a31565b9150614912826148ab565b604082019050919050565b60006020820190508181036000830152614936816148fa565b9050919050565b60008190508160005260206000209050919050565b60006020601f8301049050919050565b600082821b905092915050565b60006008830261499f7fffffffffffffffffffffffffffffffffffffffffffffffffffffffffffffffff82614962565b6149a98683614962565b95508019841693508086168417925050509392505050565b6000819050919050565b60006149e66149e16149dc8461395b565b6149c1565b61395b565b9050919050565b6000819050919050565b614a00836149cb565b614a14614a0c826149ed565b84845461496f565b825550505050565b600090565b614a29614a1c565b614a348184846149f7565b505050565b5b81811015614a5857614a4d600082614a21565b600181019050614a3a565b5050565b601f821115614a9d57614a6e8161493d565b614a7784614952565b81016020851015614a86578190505b614a9a614a9285614952565b830182614a39565b50505b505050565b600082821c905092915050565b6000614ac060001984600802614aa2565b1980831691505092915050565b6000614ad98383614aaf565b9150826002028217905092915050565b614af282613a26565b67ffffffffffffffff811115614b0b57614b0a613f0d565b5b614b15825461437e565b614b20828285614a5c565b600060209050601f831160018114614b535760008415614b41578287015190505b614b4b8582614acd565b865550614bb3565b601f198416614b618661493d565b60005b82811015614b8957848901518255600182019150602085019450602081019050614b64565b86831015614ba65784890151614ba2601f891682614aaf565b8355505b6001600288020188555050505b505050505050565b6000819050919050565b600060ff82169050919050565b6000614bed614be8614be384614bbb565b6149c1565b614bc5565b9050919050565b614bfd81614bd2565b82525050565b6000602082019050614c186000830184614bf4565b92915050565b7f63616c6c6572206973206e6f742061206d696e746572206f7220746865206f7760008201527f6e65720000000000000000000000000000000000000000000000000000000000602082015250565b6000614c7a602383613a31565b9150614c8582614c1e565b604082019050919050565b60006020820190508181036000830152614ca981614c6d565b9050919050565b7f63616e6e6f742062652061637469766174656420616761696e00000000000000600082015250565b6000614ce6601983613a31565b9150614cf182614cb0565b602082019050919050565b60006020820190508181036000830152614d1581614cd9565b9050919050565b600081905092915050565b60008154614d348161437e565b614d3e8186614d1c565b94506001821660008114614d595760018114614d6e57614da1565b60ff1983168652811515820286019350614da1565b614d778561493d565b60005b83811015614d9957815481890152600182019150602081019050614d7a565b838801955050505b50505092915050565b6000614db582613a26565b614dbf8185614d1c565b9350614dcf818560208601613a42565b80840191505092915050565b6000614de78285614d27565b9150614df38284614daa565b91508190509392505050565b7f4552433732313a207472616e736665722066726f6d20696e636f72726563742060008201527f6f776e6572000000000000000000000000000000000000000000000000000000602082015250565b6000614e5b602583613a31565b9150614e6682614dff565b604082019050919050565b60006020820190508181036000830152614e8a81614e4e565b9050919050565b7f4552433732313a207472616e7366657220746f20746865207a65726f2061646460008201527f7265737300000000000000000000000000000000000000000000000000000000602082015250565b6000614eed602483613a31565b9150614ef882614e91565b604082019050919050565b60006020820190508181036000830152614f1c81614ee0565b9050919050565b7f496e697469616c697a61626c653a20636f6e7472616374206973206e6f74206960008201527f6e697469616c697a696e67000000000000000000000000000000000000000000602082015250565b6000614f7f602b83613a31565b9150614f8a82614f23565b604082019050919050565b60006020820190508181036000830152614fae81614f72565b9050919050565b7f4552433732313a20617070726f766520746f2063616c6c657200000000000000600082015250565b6000614feb601983613a31565b9150614ff682614fb5565b602082019050919050565b6000602082019050818103600083015261501a81614fde565b9050919050565b7f4552433732313a207472616e7366657220746f206e6f6e20455243373231526560008201527f63656976657220696d706c656d656e7465720000000000000000000000000000602082015250565b600061507d603283613a31565b915061508882615021565b604082019050919050565b600060208201905081810360008301526150ac81615070565b9050919050565b7f4e487b7100000000000000000000000000000000000000000000000000000000600052601260045260246000fd5b7f63616e6e6f74206265207472616e73666572726564207768656e20616374697660008201527f6174656400000000000000000000000000000000000000000000000000000000602082015250565b600061513e602483613a31565b9150615149826150e2565b604082019050919050565b6000602082019050818103600083015261516d81615131565b9050919050565b7f416363657373436f6e74726f6c3a206163636f756e7420000000000000000000600082015250565b60006151aa601783614d1c565b91506151b582615174565b601782019050919050565b7f206973206d697373696e6720726f6c6520000000000000000000000000000000600082015250565b60006151f6601183614d1c565b9150615201826151c0565b601182019050919050565b60006152178261519d565b91506152238285614daa565b915061522e826151e9565b915061523a8284614daa565b91508190509392505050565b600081519050919050565b600082825260208201905092915050565b600061526d82615246565b6152778185615251565b9350615287818560208601613a42565b61529081613a6c565b840191505092915050565b60006080820190506152b06000830187613b37565b6152bd6020830186613b37565b6152ca6040830185613bcd565b81810360608301526152dc8184615262565b905095945050505050565b6000815190506152f681613811565b92915050565b600060208284031215615312576153116137db565b5b6000615320848285016152e7565b91505092915050565b7f4552433732313a206d696e7420746f20746865207a65726f2061646472657373600082015250565b600061535f602083613a31565b915061536a82615329565b602082019050919050565b6000602082019050818103600083015261538e81615352565b9050919050565b7f4552433732313a20746f6b656e20616c7265616479206d696e74656400000000600082015250565b60006153cb601c83613a31565b91506153d682615395565b602082019050919050565b600060208201905081810360008301526153fa816153be565b9050919050565b600061540c8261395b565b91506154178361395b565b92508282026154258161395b565b9150828204841483151761543c5761543b6142ec565b5b5092915050565b600061544e8261395b565b915060008203615461576154606142ec565b5b600182039050919050565b7f537472696e67733a20686578206c656e67746820696e73756666696369656e74600082015250565b60006154a2602083613a31565b91506154ad8261546c565b602082019050919050565b600060208201905081810360008301526154d181615495565b9050919050565b60006154e38261395b565b91506154ee8361395b565b9250828203905081811115615506576155056142ec565b5b92915050565b7f4e487b7100000000000000000000000000000000000000000000000000000000600052603160045260246000fdfe68747470733a2f2f6e66742e64616f73706163652e6f6e652f6e66742f646174612fa2646970667358221220672183ad44d91fb48303928b42a9d2d270f9e2bcf026a52780b1bfadc7c69b7b64736f6c63430008110033",
  "linkReferences": {},
  "deployedLinkReferences": {}
}