{
  "_format": "hh-sol-artifact-1",
  "contractName": "SpacePassNFT",
  "sourceName": "contracts/SpacePassNFT.sol",
  "abi": [
    {
      "inputs": [],
      "name": "URIQueryForNonexistentToken",
      "type": "error"
    },
    {
      "anonymous": false,
      "inputs": [
        {
          "indexed": true,
          "internalType": "address",
          "name": "owner",
          "type": "address"
        },
        {
          "indexed": true,
          "internalType": "address",
          "name": "approved",
          "type": "address"
        },
        {
          "indexed": true,
          "internalType": "uint256",
          "name": "tokenId",
          "type": "uint256"
        }
      ],
      "name": "Approval",
      "type": "event"
    },
    {
      "anonymous": false,
      "inputs": [
        {
          "indexed": true,
          "internalType": "address",
          "name": "owner",
          "type": "address"
        },
        {
          "indexed": true,
          "internalType": "address",
          "name": "operator",
          "type": "address"
        },
        {
          "indexed": false,
          "internalType": "bool",
          "name": "approved",
          "type": "bool"
        }
      ],
      "name": "ApprovalForAll",
      "type": "event"
    },
    {
      "anonymous": false,
      "inputs": [
        {
          "indexed": false,
          "internalType": "string",
          "name": "newBaseURI",
          "type": "string"
        }
      ],
      "name": "BaseURIChanged",
      "type": "event"
    },
    {
      "anonymous": false,
      "inputs": [
        {
          "indexed": false,
          "internalType": "uint8",
          "name": "version",
          "type": "uint8"
        }
      ],
      "name": "Initialized",
      "type": "event"
    },
    {
      "anonymous": false,
      "inputs": [
        {
          "indexed": true,
          "internalType": "bytes32",
          "name": "role",
          "type": "bytes32"
        },
        {
          "indexed": true,
          "internalType": "bytes32",
          "name": "previousAdminRole",
          "type": "bytes32"
        },
        {
          "indexed": true,
          "internalType": "bytes32",
          "name": "newAdminRole",
          "type": "bytes32"
        }
      ],
      "name": "RoleAdminChanged",
      "type": "event"
    },
    {
      "anonymous": false,
      "inputs": [
        {
          "indexed": true,
          "internalType": "bytes32",
          "name": "role",
          "type": "bytes32"
        },
        {
          "indexed": true,
          "internalType": "address",
          "name": "account",
          "type": "address"
        },
        {
          "indexed": true,
          "internalType": "address",
          "name": "sender",
          "type": "address"
        }
      ],
      "name": "RoleGranted",
      "type": "event"
    },
    {
      "anonymous": false,
      "inputs": [
        {
          "indexed": true,
          "internalType": "bytes32",
          "name": "role",
          "type": "bytes32"
        },
        {
          "indexed": true,
          "internalType": "address",
          "name": "account",
          "type": "address"
        },
        {
          "indexed": true,
          "internalType": "address",
          "name": "sender",
          "type": "address"
        }
      ],
      "name": "RoleRevoked",
      "type": "event"
    },
    {
      "anonymous": false,
      "inputs": [
        {
          "indexed": false,
          "internalType": "bytes32",
          "name": "newRoot",
          "type": "bytes32"
        }
      ],
      "name": "RootChanged",
      "type": "event"
    },
    {
      "anonymous": false,
      "inputs": [
        {
          "indexed": true,
          "internalType": "address",
          "name": "from",
          "type": "address"
        },
        {
          "indexed": true,
          "internalType": "address",
          "name": "to",
          "type": "address"
        },
        {
          "indexed": true,
          "internalType": "uint256",
          "name": "tokenId",
          "type": "uint256"
        }
      ],
      "name": "Transfer",
      "type": "event"
    },
    {
      "inputs": [],
      "name": "DEFAULT_ADMIN_ROLE",
      "outputs": [
        {
          "internalType": "bytes32",
          "name": "",
          "type": "bytes32"
        }
      ],
      "stateMutability": "view",
      "type": "function"
    },
    {
      "inputs": [],
      "name": "MINTER_ROLE",
      "outputs": [
        {
          "internalType": "bytes32",
          "name": "",
          "type": "bytes32"
        }
      ],
      "stateMutability": "view",
      "type": "function"
    },
    {
      "inputs": [
        {
          "internalType": "uint256",
          "name": "tokenId",
          "type": "uint256"
        }
      ],
      "name": "activate",
      "outputs": [
        {
          "internalType": "bool",
          "name": "",
          "type": "bool"
        }
      ],
      "stateMutability": "nonpayable",
      "type": "function"
    },
    {
      "inputs": [
        {
          "internalType": "uint256",
          "name": "tokenId",
          "type": "uint256"
        }
      ],
      "name": "activated",
      "outputs": [
        {
          "internalType": "uint256",
          "name": "",
          "type": "uint256"
        }
      ],
      "stateMutability": "view",
      "type": "function"
    },
    {
      "inputs": [
        {
          "internalType": "address",
          "name": "to",
          "type": "address"
        },
        {
          "internalType": "uint256",
          "name": "tokenId",
          "type": "uint256"
        }
      ],
      "name": "approve",
      "outputs": [],
      "stateMutability": "nonpayable",
      "type": "function"
    },
    {
      "inputs": [
        {
          "internalType": "address",
          "name": "owner",
          "type": "address"
        }
      ],
      "name": "balanceOf",
      "outputs": [
        {
          "internalType": "uint256",
          "name": "",
          "type": "uint256"
        }
      ],
      "stateMutability": "view",
      "type": "function"
    },
    {
      "inputs": [],
      "name": "baseURI",
      "outputs": [
        {
          "internalType": "string",
          "name": "",
          "type": "string"
        }
      ],
      "stateMutability": "view",
      "type": "function"
    },
    {
      "inputs": [
        {
          "internalType": "uint256",
          "name": "tokenId",
          "type": "uint256"
        }
      ],
      "name": "burn",
      "outputs": [],
      "stateMutability": "nonpayable",
      "type": "function"
    },
    {
      "inputs": [
        {
          "internalType": "uint256",
          "name": "tokenId",
          "type": "uint256"
        }
      ],
      "name": "duration",
      "outputs": [
        {
          "internalType": "uint256",
          "name": "",
          "type": "uint256"
        }
      ],
      "stateMutability": "view",
      "type": "function"
    },
    {
      "inputs": [
        {
          "internalType": "uint256",
          "name": "tokenId",
          "type": "uint256"
        }
      ],
      "name": "expires",
      "outputs": [
        {
          "internalType": "uint256",
          "name": "",
          "type": "uint256"
        }
      ],
      "stateMutability": "view",
      "type": "function"
    },
    {
      "inputs": [
        {
          "internalType": "uint256",
          "name": "tokenId",
          "type": "uint256"
        }
      ],
      "name": "getApproved",
      "outputs": [
        {
          "internalType": "address",
          "name": "",
          "type": "address"
        }
      ],
      "stateMutability": "view",
      "type": "function"
    },
    {
      "inputs": [
        {
          "internalType": "bytes32",
          "name": "role",
          "type": "bytes32"
        }
      ],
      "name": "getRoleAdmin",
      "outputs": [
        {
          "internalType": "bytes32",
          "name": "",
          "type": "bytes32"
        }
      ],
      "stateMutability": "view",
      "type": "function"
    },
    {
      "inputs": [
        {
          "internalType": "bytes32",
          "name": "role",
          "type": "bytes32"
        },
        {
          "internalType": "address",
          "name": "account",
          "type": "address"
        }
      ],
      "name": "grantRole",
      "outputs": [],
      "stateMutability": "nonpayable",
      "type": "function"
    },
    {
      "inputs": [
        {
          "internalType": "bytes32",
          "name": "role",
          "type": "bytes32"
        },
        {
          "internalType": "address",
          "name": "account",
          "type": "address"
        }
      ],
      "name": "hasRole",
      "outputs": [
        {
          "internalType": "bool",
          "name": "",
          "type": "bool"
        }
      ],
      "stateMutability": "view",
      "type": "function"
    },
    {
      "inputs": [],
      "name": "initialize",
      "outputs": [],
      "stateMutability": "nonpayable",
      "type": "function"
    },
    {
      "inputs": [
        {
          "internalType": "address",
          "name": "owner",
          "type": "address"
        },
        {
          "internalType": "address",
          "name": "operator",
          "type": "address"
        }
      ],
      "name": "isApprovedForAll",
      "outputs": [
        {
          "internalType": "bool",
          "name": "",
          "type": "bool"
        }
      ],
      "stateMutability": "view",
      "type": "function"
    },
    {
      "inputs": [
        {
          "internalType": "address",
          "name": "addr",
          "type": "address"
        }
      ],
      "name": "lastActivated",
      "outputs": [
        {
          "internalType": "uint256",
          "name": "",
          "type": "uint256"
        }
      ],
      "stateMutability": "view",
      "type": "function"
    },
    {
      "inputs": [
        {
          "internalType": "address",
          "name": "to",
          "type": "address"
        },
        {
          "internalType": "uint256",
          "name": "duration",
          "type": "uint256"
        }
      ],
      "name": "mint",
      "outputs": [],
      "stateMutability": "nonpayable",
      "type": "function"
    },
    {
      "inputs": [
        {
          "internalType": "address[]",
          "name": "addrs",
          "type": "address[]"
        },
        {
          "internalType": "uint256[]",
          "name": "ids",
          "type": "uint256[]"
        }
      ],
      "name": "mintBatch",
      "outputs": [],
      "stateMutability": "nonpayable",
      "type": "function"
    },
    {
      "inputs": [],
      "name": "name",
      "outputs": [
        {
          "internalType": "string",
          "name": "",
          "type": "string"
        }
      ],
      "stateMutability": "view",
      "type": "function"
    },
    {
      "inputs": [
        {
          "internalType": "uint256",
          "name": "tokenId",
          "type": "uint256"
        }
      ],
      "name": "ownerOf",
      "outputs": [
        {
          "internalType": "address",
          "name": "",
          "type": "address"
        }
      ],
      "stateMutability": "view",
      "type": "function"
    },
    {
      "inputs": [
        {
          "internalType": "bytes32",
          "name": "role",
          "type": "bytes32"
        },
        {
          "internalType": "address",
          "name": "account",
          "type": "address"
        }
      ],
      "name": "renounceRole",
      "outputs": [],
      "stateMutability": "nonpayable",
      "type": "function"
    },
    {
      "inputs": [
        {
          "internalType": "bytes32",
          "name": "role",
          "type": "bytes32"
        },
        {
          "internalType": "address",
          "name": "account",
          "type": "address"
        }
      ],
      "name": "revokeRole",
      "outputs": [],
      "stateMutability": "nonpayable",
      "type": "function"
    },
    {
      "inputs": [
        {
          "internalType": "address",
          "name": "from",
          "type": "address"
        },
        {
          "internalType": "address",
          "name": "to",
          "type": "address"
        },
        {
          "internalType": "uint256",
          "name": "tokenId",
          "type": "uint256"
        }
      ],
      "name": "safeTransferFrom",
      "outputs": [],
      "stateMutability": "nonpayable",
      "type": "function"
    },
    {
      "inputs": [
        {
          "internalType": "address",
          "name": "from",
          "type": "address"
        },
        {
          "internalType": "address",
          "name": "to",
          "type": "address"
        },
        {
          "internalType": "uint256",
          "name": "tokenId",
          "type": "uint256"
        },
        {
          "internalType": "bytes",
          "name": "data",
          "type": "bytes"
        }
      ],
      "name": "safeTransferFrom",
      "outputs": [],
      "stateMutability": "nonpayable",
      "type": "function"
    },
    {
      "inputs": [
        {
          "internalType": "address",
          "name": "operator",
          "type": "address"
        },
        {
          "internalType": "bool",
          "name": "approved",
          "type": "bool"
        }
      ],
      "name": "setApprovalForAll",
      "outputs": [],
      "stateMutability": "nonpayable",
      "type": "function"
    },
    {
      "inputs": [
        {
          "internalType": "string",
          "name": "_baseURI",
          "type": "string"
        }
      ],
      "name": "setTokenURI",
      "outputs": [],
      "stateMutability": "nonpayable",
      "type": "function"
    },
    {
      "inputs": [
        {
          "internalType": "uint256",
          "name": "tokenId",
          "type": "uint256"
        }
      ],
      "name": "status",
      "outputs": [
        {
          "internalType": "uint256",
          "name": "",
          "type": "uint256"
        },
        {
          "internalType": "uint256",
          "name": "",
          "type": "uint256"
        },
        {
          "internalType": "address",
          "name": "",
          "type": "address"
        }
      ],
      "stateMutability": "view",
      "type": "function"
    },
    {
      "inputs": [
        {
          "internalType": "bytes4",
          "name": "interfaceId",
          "type": "bytes4"
        }
      ],
      "name": "supportsInterface",
      "outputs": [
        {
          "internalType": "bool",
          "name": "",
          "type": "bool"
        }
      ],
      "stateMutability": "view",
      "type": "function"
    },
    {
      "inputs": [],
      "name": "symbol",
      "outputs": [
        {
          "internalType": "string",
          "name": "",
          "type": "string"
        }
      ],
      "stateMutability": "view",
      "type": "function"
    },
    {
      "inputs": [
        {
          "internalType": "uint256",
          "name": "index",
          "type": "uint256"
        }
      ],
      "name": "tokenByIndex",
      "outputs": [
        {
          "internalType": "uint256",
          "name": "",
          "type": "uint256"
        }
      ],
      "stateMutability": "view",
      "type": "function"
    },
    {
      "inputs": [
        {
          "internalType": "address",
          "name": "owner",
          "type": "address"
        },
        {
          "internalType": "uint256",
          "name": "index",
          "type": "uint256"
        }
      ],
      "name": "tokenOfOwnerByIndex",
      "outputs": [
        {
          "internalType": "uint256",
          "name": "",
          "type": "uint256"
        }
      ],
      "stateMutability": "view",
      "type": "function"
    },
    {
      "inputs": [
        {
          "internalType": "uint256",
          "name": "tokenId",
          "type": "uint256"
        }
      ],
      "name": "tokenURI",
      "outputs": [
        {
          "internalType": "string",
          "name": "",
          "type": "string"
        }
      ],
      "stateMutability": "view",
      "type": "function"
    },
    {
      "inputs": [],
      "name": "totalSupply",
      "outputs": [
        {
          "internalType": "uint256",
          "name": "",
          "type": "uint256"
        }
      ],
      "stateMutability": "view",
      "type": "function"
    },
    {
      "inputs": [
        {
          "internalType": "address",
          "name": "from",
          "type": "address"
        },
        {
          "internalType": "address",
          "name": "to",
          "type": "address"
        },
        {
          "internalType": "uint256",
          "name": "tokenId",
          "type": "uint256"
        }
      ],
      "name": "transferFrom",
      "outputs": [],
      "stateMutability": "nonpayable",
      "type": "function"
    }
  ],
  "bytecode": "0x608060405234801561001057600080fd5b506150dd806100206000396000f3fe608060405234801561001057600080fd5b50600436106102115760003560e01c806355c034de11610125578063a22cb465116100ad578063cb52c8231161007c578063cb52c82314610670578063d5391393146106a0578063d547741f146106be578063e0df5b6f146106da578063e985e9c5146106f657610211565b8063a22cb465146105d8578063b260c42a146105f4578063b88d4fde14610624578063c87b56dd1461064057610211565b80637c88e3d9116100f45780637c88e3d9146105465780638129fc1c1461056257806391d148541461056c57806395d89b411461059c578063a217fddf146105ba57610211565b806355c034de146104985780636352211e146104c85780636c0360eb146104f857806370a082311461051657610211565b80632f745c59116101a857806340c10f191161017757806340c10f19146103e257806342842e0e146103fe57806342966c681461041a57806342d21ef7146104365780634f6ccce71461046857610211565b80632f745c591461033657806332fad9d81461036657806335bc54621461039657806336568abe146103c657610211565b806318160ddd116101e457806318160ddd146102b057806323b872dd146102ce578063248a9ca3146102ea5780632f2ff15d1461031a57610211565b806301ffc9a71461021657806306fdde0314610246578063081812fc14610264578063095ea7b314610294575b600080fd5b610230600480360381019061022b91906134de565b610726565b60405161023d9190613526565b60405180910390f35b61024e610808565b60405161025b91906135d1565b60405180910390f35b61027e60048036038101906102799190613629565b61089a565b60405161028b9190613697565b60405180910390f35b6102ae60048036038101906102a991906136de565b6108e0565b005b6102b86109f7565b6040516102c5919061372d565b60405180910390f35b6102e860048036038101906102e39190613748565b610a04565b005b61030460048036038101906102ff91906137d1565b610a64565b604051610311919061380d565b60405180910390f35b610334600480360381019061032f9190613828565b610a84565b005b610350600480360381019061034b91906136de565b610aa5565b60405161035d919061372d565b60405180910390f35b610380600480360381019061037b9190613629565b610b4a565b60405161038d919061372d565b60405180910390f35b6103b060048036038101906103ab9190613629565b610b67565b6040516103bd919061372d565b60405180910390f35b6103e060048036038101906103db9190613828565b610b84565b005b6103fc60048036038101906103f791906136de565b610c07565b005b61041860048036038101906104139190613748565b610caf565b005b610434600480360381019061042f9190613629565b610ccf565b005b610450600480360381019061044b9190613629565b610d5c565b60405161045f93929190613868565b60405180910390f35b610482600480360381019061047d9190613629565b610d9f565b60405161048f919061372d565b60405180910390f35b6104b260048036038101906104ad919061389f565b610e10565b6040516104bf919061372d565b60405180910390f35b6104e260048036038101906104dd9190613629565b610e59565b6040516104ef9190613697565b60405180910390f35b610500610edf565b60405161050d91906135d1565b60405180910390f35b610530600480360381019061052b919061389f565b610f6d565b60405161053d919061372d565b60405180910390f35b610560600480360381019061055b9190613987565b611024565b005b61056a611148565b005b61058660048036038101906105819190613828565b611380565b6040516105939190613526565b60405180910390f35b6105a46113eb565b6040516105b191906135d1565b60405180910390f35b6105c261147d565b6040516105cf919061380d565b60405180910390f35b6105f260048036038101906105ed9190613a34565b611484565b005b61060e60048036038101906106099190613629565b61149a565b60405161061b9190613526565b60405180910390f35b61063e60048036038101906106399190613ba4565b611606565b005b61065a60048036038101906106559190613629565b611668565b60405161066791906135d1565b60405180910390f35b61068a60048036038101906106859190613629565b611707565b604051610697919061372d565b60405180910390f35b6106a8611766565b6040516106b5919061380d565b60405180910390f35b6106d860048036038101906106d39190613828565b61178a565b005b6106f460048036038101906106ef9190613cc8565b6117ab565b005b610710600480360381019061070b9190613d11565b611841565b60405161071d9190613526565b60405180910390f35b60007f79f154c4000000000000000000000000000000000000000000000000000000007bffffffffffffffffffffffffffffffffffffffffffffffffffffffff1916827bffffffffffffffffffffffffffffffffffffffffffffffffffffffff191614806107f157507fda8def73000000000000000000000000000000000000000000000000000000007bffffffffffffffffffffffffffffffffffffffffffffffffffffffff1916827bffffffffffffffffffffffffffffffffffffffffffffffffffffffff1916145b806108015750610800826118d5565b5b9050919050565b60606065805461081790613d80565b80601f016020809104026020016040519081016040528092919081815260200182805461084390613d80565b80156108905780601f1061086557610100808354040283529160200191610890565b820191906000526020600020905b81548152906001019060200180831161087357829003601f168201915b5050505050905090565b60006108a58261194f565b6069600083815260200190815260200160002060009054906101000a900473ffffffffffffffffffffffffffffffffffffffff169050919050565b60006108eb82610e59565b90508073ffffffffffffffffffffffffffffffffffffffff168373ffffffffffffffffffffffffffffffffffffffff160361095b576040517f08c379a000000000000000000000000000000000000000000000000000000000815260040161095290613e23565b60405180910390fd5b8073ffffffffffffffffffffffffffffffffffffffff1661097a61199a565b73ffffffffffffffffffffffffffffffffffffffff1614806109a957506109a8816109a361199a565b611841565b5b6109e8576040517f08c379a00000000000000000000000000000000000000000000000000000000081526004016109df90613eb5565b60405180910390fd5b6109f283836119a2565b505050565b6000609980549050905090565b610a15610a0f61199a565b82611a5b565b610a54576040517f08c379a0000000000000000000000000000000000000000000000000000000008152600401610a4b90613f47565b60405180910390fd5b610a5f838383611af0565b505050565b600060c96000838152602001908152602001600020600101549050919050565b610a8d82610a64565b610a9681611de5565b610aa08383611df9565b505050565b6000610ab083610f6d565b8210610af1576040517f08c379a0000000000000000000000000000000000000000000000000000000008152600401610ae890613fd9565b60405180910390fd5b609760008473ffffffffffffffffffffffffffffffffffffffff1673ffffffffffffffffffffffffffffffffffffffff168152602001908152602001600020600083815260200190815260200160002054905092915050565b600060fe6000838152602001908152602001600020549050919050565b600060ff6000838152602001908152602001600020549050919050565b610b8c61199a565b73ffffffffffffffffffffffffffffffffffffffff168173ffffffffffffffffffffffffffffffffffffffff1614610bf9576040517f08c379a0000000000000000000000000000000000000000000000000000000008152600401610bf09061406b565b60405180910390fd5b610c038282611eda565b5050565b610c317ff0887ba65ee2024ea881d91b74c2450ef19e1557f03bed3ea9f16b037cbe2dc933611380565b610c70576040517f08c379a0000000000000000000000000000000000000000000000000000000008152600401610c67906140d7565b60405180910390fd5b6000610c7c60fb611fbc565b9050610c888382611fca565b8160ff600083815260200190815260200160002081905550610caa60fb611fe8565b505050565b610cca83838360405180602001604052806000815250611606565b505050565b610ce0610cda61199a565b82611a5b565b80610d115750610d107ff0887ba65ee2024ea881d91b74c2450ef19e1557f03bed3ea9f16b037cbe2dc933611380565b5b610d50576040517f08c379a0000000000000000000000000000000000000000000000000000000008152600401610d4790614169565b60405180910390fd5b610d5981611ffe565b50565b600080600060ff60008581526020019081526020016000205460fe600086815260200190815260200160002054610d9286610e59565b9250925092509193909250565b6000610da96109f7565b8210610dea576040517f08c379a0000000000000000000000000000000000000000000000000000000008152600401610de1906141fb565b60405180910390fd5b60998281548110610dfe57610dfd61421b565b5b90600052602060002001549050919050565b600060fd60008373ffffffffffffffffffffffffffffffffffffffff1673ffffffffffffffffffffffffffffffffffffffff168152602001908152602001600020549050919050565b600080610e6583612148565b9050600073ffffffffffffffffffffffffffffffffffffffff168173ffffffffffffffffffffffffffffffffffffffff1603610ed6576040517f08c379a0000000000000000000000000000000000000000000000000000000008152600401610ecd90614296565b60405180910390fd5b80915050919050565b60fc8054610eec90613d80565b80601f0160208091040260200160405190810160405280929190818152602001828054610f1890613d80565b8015610f655780601f10610f3a57610100808354040283529160200191610f65565b820191906000526020600020905b815481529060010190602001808311610f4857829003601f168201915b505050505081565b60008073ffffffffffffffffffffffffffffffffffffffff168273ffffffffffffffffffffffffffffffffffffffff1603610fdd576040517f08c379a0000000000000000000000000000000000000000000000000000000008152600401610fd490614328565b60405180910390fd5b606860008373ffffffffffffffffffffffffffffffffffffffff1673ffffffffffffffffffffffffffffffffffffffff168152602001908152602001600020549050919050565b81819050848490501461106c576040517f08c379a000000000000000000000000000000000000000000000000000000000815260040161106390614394565b60405180910390fd5b6110967ff0887ba65ee2024ea881d91b74c2450ef19e1557f03bed3ea9f16b037cbe2dc933611380565b6110d5576040517f08c379a00000000000000000000000000000000000000000000000000000000081526004016110cc906140d7565b60405180910390fd5b60005b848490508110156111415761112d8585838181106110f9576110f861421b565b5b905060200201602081019061110e919061389f565b8484848181106111215761112061421b565b5b90506020020135611fca565b60018161113a91906143e3565b90506110d8565b5050505050565b60008060019054906101000a900460ff161590508080156111795750600160008054906101000a900460ff1660ff16105b806111a6575061118830612185565b1580156111a55750600160008054906101000a900460ff1660ff16145b5b6111e5576040517f08c379a00000000000000000000000000000000000000000000000000000000081526004016111dc90614489565b60405180910390fd5b60016000806101000a81548160ff021916908360ff1602179055508015611222576001600060016101000a81548160ff0219169083151502179055505b6112966040518060400160405280600c81526020017f5370616365506173734e465400000000000000000000000000000000000000008152506040518060400160405280600481526020017f50415353000000000000000000000000000000000000000000000000000000008152506121a8565b61129e612205565b6112ab6000801b33612256565b6112d57ff0887ba65ee2024ea881d91b74c2450ef19e1557f03bed3ea9f16b037cbe2dc933612256565b6040518060400160405280601e81526020017f68747470733a2f2f64616f73706163652e6f6e652f6e66742f646174612f000081525060fc90816113199190614655565b5061132460fb611fe8565b801561137d5760008060016101000a81548160ff0219169083151502179055507f7f26b83ff96e1f2b6a682f133852f6798a09c465da95921460cefb38474024986001604051611374919061476f565b60405180910390a15b50565b600060c9600084815260200190815260200160002060000160008373ffffffffffffffffffffffffffffffffffffffff1673ffffffffffffffffffffffffffffffffffffffff16815260200190815260200160002060009054906101000a900460ff16905092915050565b6060606680546113fa90613d80565b80601f016020809104026020016040519081016040528092919081815260200182805461142690613d80565b80156114735780601f1061144857610100808354040283529160200191611473565b820191906000526020600020905b81548152906001019060200180831161145657829003601f168201915b5050505050905090565b6000801b81565b61149661148f61199a565b8383612264565b5050565b60006114c67ff0887ba65ee2024ea881d91b74c2450ef19e1557f03bed3ea9f16b037cbe2dc933611380565b8061150457503373ffffffffffffffffffffffffffffffffffffffff166114ec83610e59565b73ffffffffffffffffffffffffffffffffffffffff16145b611543576040517f08c379a000000000000000000000000000000000000000000000000000000000815260040161153a906147fc565b60405180910390fd5b600060fe60008481526020019081526020016000205414611599576040517f08c379a000000000000000000000000000000000000000000000000000000000815260040161159090614868565b60405180910390fd5b4260fe6000848152602001908152602001600020819055508160fd60006115bf85610e59565b73ffffffffffffffffffffffffffffffffffffffff1673ffffffffffffffffffffffffffffffffffffffff1681526020019081526020016000208190555060019050919050565b61161761161161199a565b83611a5b565b611656576040517f08c379a000000000000000000000000000000000000000000000000000000000815260040161164d90613f47565b60405180910390fd5b611662848484846123d0565b50505050565b60606116738261242c565b6116a9576040517fa14c4b5000000000000000000000000000000000000000000000000000000000815260040160405180910390fd5b600060fc80546116b890613d80565b9050036116d45760405180602001604052806000815250611700565b60fc6116df8361246d565b6040516020016116f0929190614947565b6040516020818303038152906040525b9050919050565b60008060fe6000848152602001908152602001600020540361172c5760009050611761565b60ff60008381526020019081526020016000205460fe60008481526020019081526020016000205461175e91906143e3565b90505b919050565b7ff0887ba65ee2024ea881d91b74c2450ef19e1557f03bed3ea9f16b037cbe2dc981565b61179382610a64565b61179c81611de5565b6117a68383611eda565b505050565b6117b86000801b33611380565b6117f7576040517f08c379a00000000000000000000000000000000000000000000000000000000081526004016117ee906140d7565b60405180910390fd5b8060fc90816118069190614655565b507f5411e8ebf1636d9e83d5fc4900bf80cbac82e8790da2a4c94db4895e889eedf68160405161183691906135d1565b60405180910390a150565b6000606a60008473ffffffffffffffffffffffffffffffffffffffff1673ffffffffffffffffffffffffffffffffffffffff16815260200190815260200160002060008373ffffffffffffffffffffffffffffffffffffffff1673ffffffffffffffffffffffffffffffffffffffff16815260200190815260200160002060009054906101000a900460ff16905092915050565b60007f7965db0b000000000000000000000000000000000000000000000000000000007bffffffffffffffffffffffffffffffffffffffffffffffffffffffff1916827bffffffffffffffffffffffffffffffffffffffffffffffffffffffff1916148061194857506119478261253b565b5b9050919050565b6119588161242c565b611997576040517f08c379a000000000000000000000000000000000000000000000000000000000815260040161198e90614296565b60405180910390fd5b50565b600033905090565b816069600083815260200190815260200160002060006101000a81548173ffffffffffffffffffffffffffffffffffffffff021916908373ffffffffffffffffffffffffffffffffffffffff160217905550808273ffffffffffffffffffffffffffffffffffffffff16611a1583610e59565b73ffffffffffffffffffffffffffffffffffffffff167f8c5be1e5ebec7d5bd14f71427d1e84f3dd0314c0f7b2291e5b200ac8c7c3b92560405160405180910390a45050565b600080611a6783610e59565b90508073ffffffffffffffffffffffffffffffffffffffff168473ffffffffffffffffffffffffffffffffffffffff161480611aa95750611aa88185611841565b5b80611ae757508373ffffffffffffffffffffffffffffffffffffffff16611acf8461089a565b73ffffffffffffffffffffffffffffffffffffffff16145b91505092915050565b8273ffffffffffffffffffffffffffffffffffffffff16611b1082610e59565b73ffffffffffffffffffffffffffffffffffffffff1614611b66576040517f08c379a0000000000000000000000000000000000000000000000000000000008152600401611b5d906149dd565b60405180910390fd5b600073ffffffffffffffffffffffffffffffffffffffff168273ffffffffffffffffffffffffffffffffffffffff1603611bd5576040517f08c379a0000000000000000000000000000000000000000000000000000000008152600401611bcc90614a6f565b60405180910390fd5b611be08383836125b5565b8273ffffffffffffffffffffffffffffffffffffffff16611c0082610e59565b73ffffffffffffffffffffffffffffffffffffffff1614611c56576040517f08c379a0000000000000000000000000000000000000000000000000000000008152600401611c4d906149dd565b60405180910390fd5b6069600082815260200190815260200160002060006101000a81549073ffffffffffffffffffffffffffffffffffffffff02191690556001606860008573ffffffffffffffffffffffffffffffffffffffff1673ffffffffffffffffffffffffffffffffffffffff168152602001908152602001600020600082825403925050819055506001606860008473ffffffffffffffffffffffffffffffffffffffff1673ffffffffffffffffffffffffffffffffffffffff16815260200190815260200160002060008282540192505081905550816067600083815260200190815260200160002060006101000a81548173ffffffffffffffffffffffffffffffffffffffff021916908373ffffffffffffffffffffffffffffffffffffffff160217905550808273ffffffffffffffffffffffffffffffffffffffff168473ffffffffffffffffffffffffffffffffffffffff167fddf252ad1be2c89b69c2b068fc378daa952ba7f163c4a11628f55a4df523b3ef60405160405180910390a4611de0838383612655565b505050565b611df681611df161199a565b61265a565b50565b611e038282611380565b611ed657600160c9600084815260200190815260200160002060000160008373ffffffffffffffffffffffffffffffffffffffff1673ffffffffffffffffffffffffffffffffffffffff16815260200190815260200160002060006101000a81548160ff021916908315150217905550611e7b61199a565b73ffffffffffffffffffffffffffffffffffffffff168173ffffffffffffffffffffffffffffffffffffffff16837f2f8788117e7eff1d82e926ec794901d17c78024a50270940304540a733656f0d60405160405180910390a45b5050565b611ee48282611380565b15611fb857600060c9600084815260200190815260200160002060000160008373ffffffffffffffffffffffffffffffffffffffff1673ffffffffffffffffffffffffffffffffffffffff16815260200190815260200160002060006101000a81548160ff021916908315150217905550611f5d61199a565b73ffffffffffffffffffffffffffffffffffffffff168173ffffffffffffffffffffffffffffffffffffffff16837ff6391f5c32d9c69d2a47ea670b442974b53935d1edc7fd64eb21e047a839171b60405160405180910390a45b5050565b600081600001549050919050565b611fe48282604051806020016040528060008152506126df565b5050565b6001816000016000828254019250508190555050565b600061200982610e59565b9050612017816000846125b5565b61202082610e59565b90506069600083815260200190815260200160002060006101000a81549073ffffffffffffffffffffffffffffffffffffffff02191690556001606860008373ffffffffffffffffffffffffffffffffffffffff1673ffffffffffffffffffffffffffffffffffffffff168152602001908152602001600020600082825403925050819055506067600083815260200190815260200160002060006101000a81549073ffffffffffffffffffffffffffffffffffffffff021916905581600073ffffffffffffffffffffffffffffffffffffffff168273ffffffffffffffffffffffffffffffffffffffff167fddf252ad1be2c89b69c2b068fc378daa952ba7f163c4a11628f55a4df523b3ef60405160405180910390a461214481600084612655565b5050565b60006067600083815260200190815260200160002060009054906101000a900473ffffffffffffffffffffffffffffffffffffffff169050919050565b6000808273ffffffffffffffffffffffffffffffffffffffff163b119050919050565b600060019054906101000a900460ff166121f7576040517f08c379a00000000000000000000000000000000000000000000000000000000081526004016121ee90614b01565b60405180910390fd5b612201828261273a565b5050565b600060019054906101000a900460ff16612254576040517f08c379a000000000000000000000000000000000000000000000000000000000815260040161224b90614b01565b60405180910390fd5b565b6122608282611df9565b5050565b8173ffffffffffffffffffffffffffffffffffffffff168373ffffffffffffffffffffffffffffffffffffffff16036122d2576040517f08c379a00000000000000000000000000000000000000000000000000000000081526004016122c990614b6d565b60405180910390fd5b80606a60008573ffffffffffffffffffffffffffffffffffffffff1673ffffffffffffffffffffffffffffffffffffffff16815260200190815260200160002060008473ffffffffffffffffffffffffffffffffffffffff1673ffffffffffffffffffffffffffffffffffffffff16815260200190815260200160002060006101000a81548160ff0219169083151502179055508173ffffffffffffffffffffffffffffffffffffffff168373ffffffffffffffffffffffffffffffffffffffff167f17307eab39ab6107e8899845ad3d59bd9653f200f220920489ca2b5937696c31836040516123c39190613526565b60405180910390a3505050565b6123db848484611af0565b6123e7848484846127ad565b612426576040517f08c379a000000000000000000000000000000000000000000000000000000000815260040161241d90614bff565b60405180910390fd5b50505050565b60008073ffffffffffffffffffffffffffffffffffffffff1661244e83612148565b73ffffffffffffffffffffffffffffffffffffffff1614159050919050565b60606000600161247c84612934565b01905060008167ffffffffffffffff81111561249b5761249a613a79565b5b6040519080825280601f01601f1916602001820160405280156124cd5781602001600182028036833780820191505090505b509050600082602001820190505b600115612530578080600190039150507f3031323334353637383961626364656600000000000000000000000000000000600a86061a8153600a858161252457612523614c1f565b5b049450600085036124db575b819350505050919050565b60007f780e9d63000000000000000000000000000000000000000000000000000000007bffffffffffffffffffffffffffffffffffffffffffffffffffffffff1916827bffffffffffffffffffffffffffffffffffffffffffffffffffffffff191614806125ae57506125ad82612a87565b5b9050919050565b6125c0838383612b69565b600060fe6000838152602001908152602001600020541180156126105750600073ffffffffffffffffffffffffffffffffffffffff168273ffffffffffffffffffffffffffffffffffffffff1614155b15612650576040517f08c379a000000000000000000000000000000000000000000000000000000000815260040161264790614cc0565b60405180910390fd5b505050565b505050565b6126648282611380565b6126db5761267181612c7b565b61267f8360001c6020612ca8565b604051602001612690929190614d78565b6040516020818303038152906040526040517f08c379a00000000000000000000000000000000000000000000000000000000081526004016126d291906135d1565b60405180910390fd5b5050565b6126e98383612ee4565b6126f660008484846127ad565b612735576040517f08c379a000000000000000000000000000000000000000000000000000000000815260040161272c90614bff565b60405180910390fd5b505050565b600060019054906101000a900460ff16612789576040517f08c379a000000000000000000000000000000000000000000000000000000000815260040161278090614b01565b60405180910390fd5b81606590816127989190614655565b5080606690816127a89190614655565b505050565b60006127ce8473ffffffffffffffffffffffffffffffffffffffff16612185565b15612927578373ffffffffffffffffffffffffffffffffffffffff1663150b7a026127f761199a565b8786866040518563ffffffff1660e01b81526004016128199493929190614e07565b6020604051808303816000875af192505050801561285557506040513d601f19601f820116820180604052508101906128529190614e68565b60015b6128d7573d8060008114612885576040519150601f19603f3d011682016040523d82523d6000602084013e61288a565b606091505b5060008151036128cf576040517f08c379a00000000000000000000000000000000000000000000000000000000081526004016128c690614bff565b60405180910390fd5b805181602001fd5b63150b7a0260e01b7bffffffffffffffffffffffffffffffffffffffffffffffffffffffff1916817bffffffffffffffffffffffffffffffffffffffffffffffffffffffff19161491505061292c565b600190505b949350505050565b600080600090507a184f03e93ff9f4daa797ed6e38ed64bf6a1f0100000000000000008310612992577a184f03e93ff9f4daa797ed6e38ed64bf6a1f010000000000000000838161298857612987614c1f565b5b0492506040810190505b6d04ee2d6d415b85acef810000000083106129cf576d04ee2d6d415b85acef810000000083816129c5576129c4614c1f565b5b0492506020810190505b662386f26fc1000083106129fe57662386f26fc1000083816129f4576129f3614c1f565b5b0492506010810190505b6305f5e1008310612a27576305f5e1008381612a1d57612a1c614c1f565b5b0492506008810190505b6127108310612a4c576127108381612a4257612a41614c1f565b5b0492506004810190505b60648310612a6f5760648381612a6557612a64614c1f565b5b0492506002810190505b600a8310612a7e576001810190505b80915050919050565b60007f80ac58cd000000000000000000000000000000000000000000000000000000007bffffffffffffffffffffffffffffffffffffffffffffffffffffffff1916827bffffffffffffffffffffffffffffffffffffffffffffffffffffffff19161480612b5257507f5b5e139f000000000000000000000000000000000000000000000000000000007bffffffffffffffffffffffffffffffffffffffffffffffffffffffff1916827bffffffffffffffffffffffffffffffffffffffffffffffffffffffff1916145b80612b625750612b61826130fd565b5b9050919050565b612b74838383613167565b600073ffffffffffffffffffffffffffffffffffffffff168373ffffffffffffffffffffffffffffffffffffffff1603612bb657612bb18161316c565b612bf5565b8173ffffffffffffffffffffffffffffffffffffffff168373ffffffffffffffffffffffffffffffffffffffff1614612bf457612bf383826131b5565b5b5b600073ffffffffffffffffffffffffffffffffffffffff168273ffffffffffffffffffffffffffffffffffffffff1603612c3757612c3281613322565b612c76565b8273ffffffffffffffffffffffffffffffffffffffff168273ffffffffffffffffffffffffffffffffffffffff1614612c7557612c7482826133f3565b5b5b505050565b6060612ca18273ffffffffffffffffffffffffffffffffffffffff16601460ff16612ca8565b9050919050565b606060006002836002612cbb9190614e95565b612cc591906143e3565b67ffffffffffffffff811115612cde57612cdd613a79565b5b6040519080825280601f01601f191660200182016040528015612d105781602001600182028036833780820191505090505b5090507f300000000000000000000000000000000000000000000000000000000000000081600081518110612d4857612d4761421b565b5b60200101907effffffffffffffffffffffffffffffffffffffffffffffffffffffffffffff1916908160001a9053507f780000000000000000000000000000000000000000000000000000000000000081600181518110612dac57612dab61421b565b5b60200101907effffffffffffffffffffffffffffffffffffffffffffffffffffffffffffff1916908160001a90535060006001846002612dec9190614e95565b612df691906143e3565b90505b6001811115612e96577f3031323334353637383961626364656600000000000000000000000000000000600f861660108110612e3857612e3761421b565b5b1a60f81b828281518110612e4f57612e4e61421b565b5b60200101907effffffffffffffffffffffffffffffffffffffffffffffffffffffffffffff1916908160001a905350600485901c945080612e8f90614ed7565b9050612df9565b5060008414612eda576040517f08c379a0000000000000000000000000000000000000000000000000000000008152600401612ed190614f4c565b60405180910390fd5b8091505092915050565b600073ffffffffffffffffffffffffffffffffffffffff168273ffffffffffffffffffffffffffffffffffffffff1603612f53576040517f08c379a0000000000000000000000000000000000000000000000000000000008152600401612f4a90614fb8565b60405180910390fd5b612f5c8161242c565b15612f9c576040517f08c379a0000000000000000000000000000000000000000000000000000000008152600401612f9390615024565b60405180910390fd5b612fa8600083836125b5565b612fb18161242c565b15612ff1576040517f08c379a0000000000000000000000000000000000000000000000000000000008152600401612fe890615024565b60405180910390fd5b6001606860008473ffffffffffffffffffffffffffffffffffffffff1673ffffffffffffffffffffffffffffffffffffffff16815260200190815260200160002060008282540192505081905550816067600083815260200190815260200160002060006101000a81548173ffffffffffffffffffffffffffffffffffffffff021916908373ffffffffffffffffffffffffffffffffffffffff160217905550808273ffffffffffffffffffffffffffffffffffffffff16600073ffffffffffffffffffffffffffffffffffffffff167fddf252ad1be2c89b69c2b068fc378daa952ba7f163c4a11628f55a4df523b3ef60405160405180910390a46130f960008383612655565b5050565b60007f01ffc9a7000000000000000000000000000000000000000000000000000000007bffffffffffffffffffffffffffffffffffffffffffffffffffffffff1916827bffffffffffffffffffffffffffffffffffffffffffffffffffffffff1916149050919050565b505050565b609980549050609a600083815260200190815260200160002081905550609981908060018154018082558091505060019003906000526020600020016000909190919091505550565b600060016131c284610f6d565b6131cc9190615044565b90506000609860008481526020019081526020016000205490508181146132b1576000609760008673ffffffffffffffffffffffffffffffffffffffff1673ffffffffffffffffffffffffffffffffffffffff168152602001908152602001600020600084815260200190815260200160002054905080609760008773ffffffffffffffffffffffffffffffffffffffff1673ffffffffffffffffffffffffffffffffffffffff168152602001908152602001600020600084815260200190815260200160002081905550816098600083815260200190815260200160002081905550505b6098600084815260200190815260200160002060009055609760008573ffffffffffffffffffffffffffffffffffffffff1673ffffffffffffffffffffffffffffffffffffffff16815260200190815260200160002060008381526020019081526020016000206000905550505050565b600060016099805490506133369190615044565b90506000609a60008481526020019081526020016000205490506000609983815481106133665761336561421b565b5b9060005260206000200154905080609983815481106133885761338761421b565b5b906000526020600020018190555081609a600083815260200190815260200160002081905550609a60008581526020019081526020016000206000905560998054806133d7576133d6615078565b5b6001900381819060005260206000200160009055905550505050565b60006133fe83610f6d565b905081609760008573ffffffffffffffffffffffffffffffffffffffff1673ffffffffffffffffffffffffffffffffffffffff168152602001908152602001600020600083815260200190815260200160002081905550806098600084815260200190815260200160002081905550505050565b6000604051905090565b600080fd5b600080fd5b60007fffffffff0000000000000000000000000000000000000000000000000000000082169050919050565b6134bb81613486565b81146134c657600080fd5b50565b6000813590506134d8816134b2565b92915050565b6000602082840312156134f4576134f361347c565b5b6000613502848285016134c9565b91505092915050565b60008115159050919050565b6135208161350b565b82525050565b600060208201905061353b6000830184613517565b92915050565b600081519050919050565b600082825260208201905092915050565b60005b8381101561357b578082015181840152602081019050613560565b60008484015250505050565b6000601f19601f8301169050919050565b60006135a382613541565b6135ad818561354c565b93506135bd81856020860161355d565b6135c681613587565b840191505092915050565b600060208201905081810360008301526135eb8184613598565b905092915050565b6000819050919050565b613606816135f3565b811461361157600080fd5b50565b600081359050613623816135fd565b92915050565b60006020828403121561363f5761363e61347c565b5b600061364d84828501613614565b91505092915050565b600073ffffffffffffffffffffffffffffffffffffffff82169050919050565b600061368182613656565b9050919050565b61369181613676565b82525050565b60006020820190506136ac6000830184613688565b92915050565b6136bb81613676565b81146136c657600080fd5b50565b6000813590506136d8816136b2565b92915050565b600080604083850312156136f5576136f461347c565b5b6000613703858286016136c9565b925050602061371485828601613614565b9150509250929050565b613727816135f3565b82525050565b6000602082019050613742600083018461371e565b92915050565b6000806000606084860312156137615761376061347c565b5b600061376f868287016136c9565b9350506020613780868287016136c9565b925050604061379186828701613614565b9150509250925092565b6000819050919050565b6137ae8161379b565b81146137b957600080fd5b50565b6000813590506137cb816137a5565b92915050565b6000602082840312156137e7576137e661347c565b5b60006137f5848285016137bc565b91505092915050565b6138078161379b565b82525050565b600060208201905061382260008301846137fe565b92915050565b6000806040838503121561383f5761383e61347c565b5b600061384d858286016137bc565b925050602061385e858286016136c9565b9150509250929050565b600060608201905061387d600083018661371e565b61388a602083018561371e565b6138976040830184613688565b949350505050565b6000602082840312156138b5576138b461347c565b5b60006138c3848285016136c9565b91505092915050565b600080fd5b600080fd5b600080fd5b60008083601f8401126138f1576138f06138cc565b5b8235905067ffffffffffffffff81111561390e5761390d6138d1565b5b60208301915083602082028301111561392a576139296138d6565b5b9250929050565b60008083601f840112613947576139466138cc565b5b8235905067ffffffffffffffff811115613964576139636138d1565b5b6020830191508360208202830111156139805761397f6138d6565b5b9250929050565b600080600080604085870312156139a1576139a061347c565b5b600085013567ffffffffffffffff8111156139bf576139be613481565b5b6139cb878288016138db565b9450945050602085013567ffffffffffffffff8111156139ee576139ed613481565b5b6139fa87828801613931565b925092505092959194509250565b613a118161350b565b8114613a1c57600080fd5b50565b600081359050613a2e81613a08565b92915050565b60008060408385031215613a4b57613a4a61347c565b5b6000613a59858286016136c9565b9250506020613a6a85828601613a1f565b9150509250929050565b600080fd5b7f4e487b7100000000000000000000000000000000000000000000000000000000600052604160045260246000fd5b613ab182613587565b810181811067ffffffffffffffff82111715613ad057613acf613a79565b5b80604052505050565b6000613ae3613472565b9050613aef8282613aa8565b919050565b600067ffffffffffffffff821115613b0f57613b0e613a79565b5b613b1882613587565b9050602081019050919050565b82818337600083830152505050565b6000613b47613b4284613af4565b613ad9565b905082815260208101848484011115613b6357613b62613a74565b5b613b6e848285613b25565b509392505050565b600082601f830112613b8b57613b8a6138cc565b5b8135613b9b848260208601613b34565b91505092915050565b60008060008060808587031215613bbe57613bbd61347c565b5b6000613bcc878288016136c9565b9450506020613bdd878288016136c9565b9350506040613bee87828801613614565b925050606085013567ffffffffffffffff811115613c0f57613c0e613481565b5b613c1b87828801613b76565b91505092959194509250565b600067ffffffffffffffff821115613c4257613c41613a79565b5b613c4b82613587565b9050602081019050919050565b6000613c6b613c6684613c27565b613ad9565b905082815260208101848484011115613c8757613c86613a74565b5b613c92848285613b25565b509392505050565b600082601f830112613caf57613cae6138cc565b5b8135613cbf848260208601613c58565b91505092915050565b600060208284031215613cde57613cdd61347c565b5b600082013567ffffffffffffffff811115613cfc57613cfb613481565b5b613d0884828501613c9a565b91505092915050565b60008060408385031215613d2857613d2761347c565b5b6000613d36858286016136c9565b9250506020613d47858286016136c9565b9150509250929050565b7f4e487b7100000000000000000000000000000000000000000000000000000000600052602260045260246000fd5b60006002820490506001821680613d9857607f821691505b602082108103613dab57613daa613d51565b5b50919050565b7f4552433732313a20617070726f76616c20746f2063757272656e74206f776e6560008201527f7200000000000000000000000000000000000000000000000000000000000000602082015250565b6000613e0d60218361354c565b9150613e1882613db1565b604082019050919050565b60006020820190508181036000830152613e3c81613e00565b9050919050565b7f4552433732313a20617070726f76652063616c6c6572206973206e6f7420746f60008201527f6b656e206f776e6572206f7220617070726f76656420666f7220616c6c000000602082015250565b6000613e9f603d8361354c565b9150613eaa82613e43565b604082019050919050565b60006020820190508181036000830152613ece81613e92565b9050919050565b7f4552433732313a2063616c6c6572206973206e6f7420746f6b656e206f776e6560008201527f72206f7220617070726f76656400000000000000000000000000000000000000602082015250565b6000613f31602d8361354c565b9150613f3c82613ed5565b604082019050919050565b60006020820190508181036000830152613f6081613f24565b9050919050565b7f455243373231456e756d657261626c653a206f776e657220696e646578206f7560008201527f74206f6620626f756e6473000000000000000000000000000000000000000000602082015250565b6000613fc3602b8361354c565b9150613fce82613f67565b604082019050919050565b60006020820190508181036000830152613ff281613fb6565b9050919050565b7f416363657373436f6e74726f6c3a2063616e206f6e6c792072656e6f756e636560008201527f20726f6c657320666f722073656c660000000000000000000000000000000000602082015250565b6000614055602f8361354c565b915061406082613ff9565b604082019050919050565b6000602082019050818103600083015261408481614048565b9050919050565b7f63616c6c6572206973206e6f742061206d696e74657200000000000000000000600082015250565b60006140c160168361354c565b91506140cc8261408b565b602082019050919050565b600060208201905081810360008301526140f0816140b4565b9050919050565b7f4552433732313a2063616c6c6572206973206e6f7420746f6b656e206f776e6560008201527f72206e6f72206d696e7465720000000000000000000000000000000000000000602082015250565b6000614153602c8361354c565b915061415e826140f7565b604082019050919050565b6000602082019050818103600083015261418281614146565b9050919050565b7f455243373231456e756d657261626c653a20676c6f62616c20696e646578206f60008201527f7574206f6620626f756e64730000000000000000000000000000000000000000602082015250565b60006141e5602c8361354c565b91506141f082614189565b604082019050919050565b60006020820190508181036000830152614214816141d8565b9050919050565b7f4e487b7100000000000000000000000000000000000000000000000000000000600052603260045260246000fd5b7f4552433732313a20696e76616c696420746f6b656e2049440000000000000000600082015250565b600061428060188361354c565b915061428b8261424a565b602082019050919050565b600060208201905081810360008301526142af81614273565b9050919050565b7f4552433732313a2061646472657373207a65726f206973206e6f74206120766160008201527f6c6964206f776e65720000000000000000000000000000000000000000000000602082015250565b600061431260298361354c565b915061431d826142b6565b604082019050919050565b6000602082019050818103600083015261434181614305565b9050919050565b7f696e76616c696420646174610000000000000000000000000000000000000000600082015250565b600061437e600c8361354c565b915061438982614348565b602082019050919050565b600060208201905081810360008301526143ad81614371565b9050919050565b7f4e487b7100000000000000000000000000000000000000000000000000000000600052601160045260246000fd5b60006143ee826135f3565b91506143f9836135f3565b9250828201905080821115614411576144106143b4565b5b92915050565b7f496e697469616c697a61626c653a20636f6e747261637420697320616c72656160008201527f647920696e697469616c697a6564000000000000000000000000000000000000602082015250565b6000614473602e8361354c565b915061447e82614417565b604082019050919050565b600060208201905081810360008301526144a281614466565b9050919050565b60008190508160005260206000209050919050565b60006020601f8301049050919050565b600082821b905092915050565b60006008830261450b7fffffffffffffffffffffffffffffffffffffffffffffffffffffffffffffffff826144ce565b61451586836144ce565b95508019841693508086168417925050509392505050565b6000819050919050565b600061455261454d614548846135f3565b61452d565b6135f3565b9050919050565b6000819050919050565b61456c83614537565b61458061457882614559565b8484546144db565b825550505050565b600090565b614595614588565b6145a0818484614563565b505050565b5b818110156145c4576145b960008261458d565b6001810190506145a6565b5050565b601f821115614609576145da816144a9565b6145e3846144be565b810160208510156145f2578190505b6146066145fe856144be565b8301826145a5565b50505b505050565b600082821c905092915050565b600061462c6000198460080261460e565b1980831691505092915050565b6000614645838361461b565b9150826002028217905092915050565b61465e82613541565b67ffffffffffffffff81111561467757614676613a79565b5b6146818254613d80565b61468c8282856145c8565b600060209050601f8311600181146146bf57600084156146ad578287015190505b6146b78582614639565b86555061471f565b601f1984166146cd866144a9565b60005b828110156146f5578489015182556001820191506020850194506020810190506146d0565b86831015614712578489015161470e601f89168261461b565b8355505b6001600288020188555050505b505050505050565b6000819050919050565b600060ff82169050919050565b600061475961475461474f84614727565b61452d565b614731565b9050919050565b6147698161473e565b82525050565b60006020820190506147846000830184614760565b92915050565b7f63616c6c6572206973206e6f742061206d696e746572206f7220746865206f7760008201527f6e65720000000000000000000000000000000000000000000000000000000000602082015250565b60006147e660238361354c565b91506147f18261478a565b604082019050919050565b60006020820190508181036000830152614815816147d9565b9050919050565b7f63616e6e6f742062652061637469766174656420616761696e00000000000000600082015250565b600061485260198361354c565b915061485d8261481c565b602082019050919050565b6000602082019050818103600083015261488181614845565b9050919050565b600081905092915050565b600081546148a081613d80565b6148aa8186614888565b945060018216600081146148c557600181146148da5761490d565b60ff198316865281151582028601935061490d565b6148e3856144a9565b60005b83811015614905578154818901526001820191506020810190506148e6565b838801955050505b50505092915050565b600061492182613541565b61492b8185614888565b935061493b81856020860161355d565b80840191505092915050565b60006149538285614893565b915061495f8284614916565b91508190509392505050565b7f4552433732313a207472616e736665722066726f6d20696e636f72726563742060008201527f6f776e6572000000000000000000000000000000000000000000000000000000602082015250565b60006149c760258361354c565b91506149d28261496b565b604082019050919050565b600060208201905081810360008301526149f6816149ba565b9050919050565b7f4552433732313a207472616e7366657220746f20746865207a65726f2061646460008201527f7265737300000000000000000000000000000000000000000000000000000000602082015250565b6000614a5960248361354c565b9150614a64826149fd565b604082019050919050565b60006020820190508181036000830152614a8881614a4c565b9050919050565b7f496e697469616c697a61626c653a20636f6e7472616374206973206e6f74206960008201527f6e697469616c697a696e67000000000000000000000000000000000000000000602082015250565b6000614aeb602b8361354c565b9150614af682614a8f565b604082019050919050565b60006020820190508181036000830152614b1a81614ade565b9050919050565b7f4552433732313a20617070726f766520746f2063616c6c657200000000000000600082015250565b6000614b5760198361354c565b9150614b6282614b21565b602082019050919050565b60006020820190508181036000830152614b8681614b4a565b9050919050565b7f4552433732313a207472616e7366657220746f206e6f6e20455243373231526560008201527f63656976657220696d706c656d656e7465720000000000000000000000000000602082015250565b6000614be960328361354c565b9150614bf482614b8d565b604082019050919050565b60006020820190508181036000830152614c1881614bdc565b9050919050565b7f4e487b7100000000000000000000000000000000000000000000000000000000600052601260045260246000fd5b7f63616e6e6f74206265207472616e73666572726564207768656e20616374697660008201527f6174656400000000000000000000000000000000000000000000000000000000602082015250565b6000614caa60248361354c565b9150614cb582614c4e565b604082019050919050565b60006020820190508181036000830152614cd981614c9d565b9050919050565b7f416363657373436f6e74726f6c3a206163636f756e7420000000000000000000600082015250565b6000614d16601783614888565b9150614d2182614ce0565b601782019050919050565b7f206973206d697373696e6720726f6c6520000000000000000000000000000000600082015250565b6000614d62601183614888565b9150614d6d82614d2c565b601182019050919050565b6000614d8382614d09565b9150614d8f8285614916565b9150614d9a82614d55565b9150614da68284614916565b91508190509392505050565b600081519050919050565b600082825260208201905092915050565b6000614dd982614db2565b614de38185614dbd565b9350614df381856020860161355d565b614dfc81613587565b840191505092915050565b6000608082019050614e1c6000830187613688565b614e296020830186613688565b614e36604083018561371e565b8181036060830152614e488184614dce565b905095945050505050565b600081519050614e62816134b2565b92915050565b600060208284031215614e7e57614e7d61347c565b5b6000614e8c84828501614e53565b91505092915050565b6000614ea0826135f3565b9150614eab836135f3565b9250828202614eb9816135f3565b91508282048414831517614ed057614ecf6143b4565b5b5092915050565b6000614ee2826135f3565b915060008203614ef557614ef46143b4565b5b600182039050919050565b7f537472696e67733a20686578206c656e67746820696e73756666696369656e74600082015250565b6000614f3660208361354c565b9150614f4182614f00565b602082019050919050565b60006020820190508181036000830152614f6581614f29565b9050919050565b7f4552433732313a206d696e7420746f20746865207a65726f2061646472657373600082015250565b6000614fa260208361354c565b9150614fad82614f6c565b602082019050919050565b60006020820190508181036000830152614fd181614f95565b9050919050565b7f4552433732313a20746f6b656e20616c7265616479206d696e74656400000000600082015250565b600061500e601c8361354c565b915061501982614fd8565b602082019050919050565b6000602082019050818103600083015261503d81615001565b9050919050565b600061504f826135f3565b915061505a836135f3565b9250828203905081811115615072576150716143b4565b5b92915050565b7f4e487b7100000000000000000000000000000000000000000000000000000000600052603160045260246000fdfea2646970667358221220b138d72f4ffad70f6b2b22012268696d7e4dc2ef232a2d966aff85ea3e84519164736f6c63430008110033",
  "linkReferences": {},
  "deployedLinkReferences": {}
}