{
  "_format": "hh-sol-artifact-1",
  "contractName": "SpacePassNFT",
  "sourceName": "contracts/SpacePassNFT.sol",
  "abi": [
    {
      "inputs": [],
      "name": "URIQueryForNonexistentToken",
      "type": "error"
    },
    {
      "anonymous": false,
      "inputs": [
        {
          "indexed": true,
          "internalType": "address",
          "name": "owner",
          "type": "address"
        },
        {
          "indexed": true,
          "internalType": "address",
          "name": "approved",
          "type": "address"
        },
        {
          "indexed": true,
          "internalType": "uint256",
          "name": "tokenId",
          "type": "uint256"
        }
      ],
      "name": "Approval",
      "type": "event"
    },
    {
      "anonymous": false,
      "inputs": [
        {
          "indexed": true,
          "internalType": "address",
          "name": "owner",
          "type": "address"
        },
        {
          "indexed": true,
          "internalType": "address",
          "name": "operator",
          "type": "address"
        },
        {
          "indexed": false,
          "internalType": "bool",
          "name": "approved",
          "type": "bool"
        }
      ],
      "name": "ApprovalForAll",
      "type": "event"
    },
    {
      "anonymous": false,
      "inputs": [
        {
          "indexed": false,
          "internalType": "string",
          "name": "newBaseURI",
          "type": "string"
        }
      ],
      "name": "BaseURIChanged",
      "type": "event"
    },
    {
      "anonymous": false,
      "inputs": [
        {
          "indexed": false,
          "internalType": "uint8",
          "name": "version",
          "type": "uint8"
        }
      ],
      "name": "Initialized",
      "type": "event"
    },
    {
      "anonymous": false,
      "inputs": [
        {
          "indexed": true,
          "internalType": "bytes32",
          "name": "role",
          "type": "bytes32"
        },
        {
          "indexed": true,
          "internalType": "bytes32",
          "name": "previousAdminRole",
          "type": "bytes32"
        },
        {
          "indexed": true,
          "internalType": "bytes32",
          "name": "newAdminRole",
          "type": "bytes32"
        }
      ],
      "name": "RoleAdminChanged",
      "type": "event"
    },
    {
      "anonymous": false,
      "inputs": [
        {
          "indexed": true,
          "internalType": "bytes32",
          "name": "role",
          "type": "bytes32"
        },
        {
          "indexed": true,
          "internalType": "address",
          "name": "account",
          "type": "address"
        },
        {
          "indexed": true,
          "internalType": "address",
          "name": "sender",
          "type": "address"
        }
      ],
      "name": "RoleGranted",
      "type": "event"
    },
    {
      "anonymous": false,
      "inputs": [
        {
          "indexed": true,
          "internalType": "bytes32",
          "name": "role",
          "type": "bytes32"
        },
        {
          "indexed": true,
          "internalType": "address",
          "name": "account",
          "type": "address"
        },
        {
          "indexed": true,
          "internalType": "address",
          "name": "sender",
          "type": "address"
        }
      ],
      "name": "RoleRevoked",
      "type": "event"
    },
    {
      "anonymous": false,
      "inputs": [
        {
          "indexed": false,
          "internalType": "bytes32",
          "name": "newRoot",
          "type": "bytes32"
        }
      ],
      "name": "RootChanged",
      "type": "event"
    },
    {
      "anonymous": false,
      "inputs": [
        {
          "indexed": true,
          "internalType": "address",
          "name": "from",
          "type": "address"
        },
        {
          "indexed": true,
          "internalType": "address",
          "name": "to",
          "type": "address"
        },
        {
          "indexed": true,
          "internalType": "uint256",
          "name": "tokenId",
          "type": "uint256"
        }
      ],
      "name": "Transfer",
      "type": "event"
    },
    {
      "inputs": [],
      "name": "DEFAULT_ADMIN_ROLE",
      "outputs": [
        {
          "internalType": "bytes32",
          "name": "",
          "type": "bytes32"
        }
      ],
      "stateMutability": "view",
      "type": "function"
    },
    {
      "inputs": [],
      "name": "MINTER_ROLE",
      "outputs": [
        {
          "internalType": "bytes32",
          "name": "",
          "type": "bytes32"
        }
      ],
      "stateMutability": "view",
      "type": "function"
    },
    {
      "inputs": [
        {
          "internalType": "uint256",
          "name": "tokenId",
          "type": "uint256"
        },
        {
          "internalType": "uint256",
          "name": "time",
          "type": "uint256"
        }
      ],
      "name": "activate",
      "outputs": [
        {
          "internalType": "bool",
          "name": "",
          "type": "bool"
        }
      ],
      "stateMutability": "nonpayable",
      "type": "function"
    },
    {
      "inputs": [
        {
          "internalType": "uint256",
          "name": "tokenId",
          "type": "uint256"
        }
      ],
      "name": "activated",
      "outputs": [
        {
          "internalType": "uint256",
          "name": "",
          "type": "uint256"
        }
      ],
      "stateMutability": "view",
      "type": "function"
    },
    {
      "inputs": [
        {
          "internalType": "address",
          "name": "to",
          "type": "address"
        },
        {
          "internalType": "uint256",
          "name": "tokenId",
          "type": "uint256"
        }
      ],
      "name": "approve",
      "outputs": [],
      "stateMutability": "nonpayable",
      "type": "function"
    },
    {
      "inputs": [
        {
          "internalType": "address",
          "name": "owner",
          "type": "address"
        }
      ],
      "name": "balanceOf",
      "outputs": [
        {
          "internalType": "uint256",
          "name": "",
          "type": "uint256"
        }
      ],
      "stateMutability": "view",
      "type": "function"
    },
    {
      "inputs": [],
      "name": "baseURI",
      "outputs": [
        {
          "internalType": "string",
          "name": "",
          "type": "string"
        }
      ],
      "stateMutability": "view",
      "type": "function"
    },
    {
      "inputs": [
        {
          "internalType": "uint256",
          "name": "tokenId",
          "type": "uint256"
        }
      ],
      "name": "burn",
      "outputs": [],
      "stateMutability": "nonpayable",
      "type": "function"
    },
    {
      "inputs": [
        {
          "internalType": "uint256",
          "name": "tokenId",
          "type": "uint256"
        }
      ],
      "name": "duration",
      "outputs": [
        {
          "internalType": "uint256",
          "name": "",
          "type": "uint256"
        }
      ],
      "stateMutability": "view",
      "type": "function"
    },
    {
      "inputs": [
        {
          "internalType": "uint256",
          "name": "tokenId",
          "type": "uint256"
        }
      ],
      "name": "expires",
      "outputs": [
        {
          "internalType": "uint256",
          "name": "",
          "type": "uint256"
        }
      ],
      "stateMutability": "view",
      "type": "function"
    },
    {
      "inputs": [
        {
          "internalType": "uint256",
          "name": "tokenId",
          "type": "uint256"
        }
      ],
      "name": "getApproved",
      "outputs": [
        {
          "internalType": "address",
          "name": "",
          "type": "address"
        }
      ],
      "stateMutability": "view",
      "type": "function"
    },
    {
      "inputs": [
        {
          "internalType": "bytes32",
          "name": "role",
          "type": "bytes32"
        }
      ],
      "name": "getRoleAdmin",
      "outputs": [
        {
          "internalType": "bytes32",
          "name": "",
          "type": "bytes32"
        }
      ],
      "stateMutability": "view",
      "type": "function"
    },
    {
      "inputs": [
        {
          "internalType": "bytes32",
          "name": "role",
          "type": "bytes32"
        },
        {
          "internalType": "address",
          "name": "account",
          "type": "address"
        }
      ],
      "name": "grantRole",
      "outputs": [],
      "stateMutability": "nonpayable",
      "type": "function"
    },
    {
      "inputs": [
        {
          "internalType": "bytes32",
          "name": "role",
          "type": "bytes32"
        },
        {
          "internalType": "address",
          "name": "account",
          "type": "address"
        }
      ],
      "name": "hasRole",
      "outputs": [
        {
          "internalType": "bool",
          "name": "",
          "type": "bool"
        }
      ],
      "stateMutability": "view",
      "type": "function"
    },
    {
      "inputs": [],
      "name": "initialize",
      "outputs": [],
      "stateMutability": "nonpayable",
      "type": "function"
    },
    {
      "inputs": [
        {
          "internalType": "address",
          "name": "owner",
          "type": "address"
        },
        {
          "internalType": "address",
          "name": "operator",
          "type": "address"
        }
      ],
      "name": "isApprovedForAll",
      "outputs": [
        {
          "internalType": "bool",
          "name": "",
          "type": "bool"
        }
      ],
      "stateMutability": "view",
      "type": "function"
    },
    {
      "inputs": [
        {
          "internalType": "address",
          "name": "addr",
          "type": "address"
        }
      ],
      "name": "lastActivated",
      "outputs": [
        {
          "internalType": "uint256",
          "name": "",
          "type": "uint256"
        }
      ],
      "stateMutability": "view",
      "type": "function"
    },
    {
      "inputs": [
        {
          "internalType": "address",
          "name": "addr",
          "type": "address"
        },
        {
          "internalType": "uint256",
          "name": "duration",
          "type": "uint256"
        }
      ],
      "name": "mint",
      "outputs": [
        {
          "internalType": "uint256",
          "name": "",
          "type": "uint256"
        }
      ],
      "stateMutability": "nonpayable",
      "type": "function"
    },
    {
      "inputs": [
        {
          "internalType": "address[]",
          "name": "addrs",
          "type": "address[]"
        },
        {
          "internalType": "uint256[]",
          "name": "timestamps",
          "type": "uint256[]"
        },
        {
          "internalType": "uint256",
          "name": "duration",
          "type": "uint256"
        }
      ],
      "name": "mintAndActivateBatch",
      "outputs": [],
      "stateMutability": "nonpayable",
      "type": "function"
    },
    {
      "inputs": [
        {
          "internalType": "address[]",
          "name": "addrs",
          "type": "address[]"
        },
        {
          "internalType": "uint256[]",
          "name": "ids",
          "type": "uint256[]"
        }
      ],
      "name": "mintBatch",
      "outputs": [],
      "stateMutability": "nonpayable",
      "type": "function"
    },
    {
      "inputs": [
        {
          "internalType": "address[]",
          "name": "addrs",
          "type": "address[]"
        },
        {
          "internalType": "uint256",
          "name": "duration",
          "type": "uint256"
        }
      ],
      "name": "mintMany",
      "outputs": [],
      "stateMutability": "nonpayable",
      "type": "function"
    },
    {
      "inputs": [],
      "name": "name",
      "outputs": [
        {
          "internalType": "string",
          "name": "",
          "type": "string"
        }
      ],
      "stateMutability": "view",
      "type": "function"
    },
    {
      "inputs": [
        {
          "internalType": "uint256",
          "name": "tokenId",
          "type": "uint256"
        }
      ],
      "name": "ownerOf",
      "outputs": [
        {
          "internalType": "address",
          "name": "",
          "type": "address"
        }
      ],
      "stateMutability": "view",
      "type": "function"
    },
    {
      "inputs": [
        {
          "internalType": "bytes32",
          "name": "role",
          "type": "bytes32"
        },
        {
          "internalType": "address",
          "name": "account",
          "type": "address"
        }
      ],
      "name": "renounceRole",
      "outputs": [],
      "stateMutability": "nonpayable",
      "type": "function"
    },
    {
      "inputs": [
        {
          "internalType": "bytes32",
          "name": "role",
          "type": "bytes32"
        },
        {
          "internalType": "address",
          "name": "account",
          "type": "address"
        }
      ],
      "name": "revokeRole",
      "outputs": [],
      "stateMutability": "nonpayable",
      "type": "function"
    },
    {
      "inputs": [
        {
          "internalType": "address",
          "name": "from",
          "type": "address"
        },
        {
          "internalType": "address",
          "name": "to",
          "type": "address"
        },
        {
          "internalType": "uint256",
          "name": "tokenId",
          "type": "uint256"
        }
      ],
      "name": "safeTransferFrom",
      "outputs": [],
      "stateMutability": "nonpayable",
      "type": "function"
    },
    {
      "inputs": [
        {
          "internalType": "address",
          "name": "from",
          "type": "address"
        },
        {
          "internalType": "address",
          "name": "to",
          "type": "address"
        },
        {
          "internalType": "uint256",
          "name": "tokenId",
          "type": "uint256"
        },
        {
          "internalType": "bytes",
          "name": "data",
          "type": "bytes"
        }
      ],
      "name": "safeTransferFrom",
      "outputs": [],
      "stateMutability": "nonpayable",
      "type": "function"
    },
    {
      "inputs": [
        {
          "internalType": "address",
          "name": "operator",
          "type": "address"
        },
        {
          "internalType": "bool",
          "name": "approved",
          "type": "bool"
        }
      ],
      "name": "setApprovalForAll",
      "outputs": [],
      "stateMutability": "nonpayable",
      "type": "function"
    },
    {
      "inputs": [
        {
          "internalType": "string",
          "name": "_baseURI",
          "type": "string"
        }
      ],
      "name": "setTokenURI",
      "outputs": [],
      "stateMutability": "nonpayable",
      "type": "function"
    },
    {
      "inputs": [
        {
          "internalType": "uint256",
          "name": "tokenId",
          "type": "uint256"
        }
      ],
      "name": "status",
      "outputs": [
        {
          "internalType": "uint256",
          "name": "",
          "type": "uint256"
        },
        {
          "internalType": "uint256",
          "name": "",
          "type": "uint256"
        },
        {
          "internalType": "address",
          "name": "",
          "type": "address"
        }
      ],
      "stateMutability": "view",
      "type": "function"
    },
    {
      "inputs": [
        {
          "internalType": "bytes4",
          "name": "interfaceId",
          "type": "bytes4"
        }
      ],
      "name": "supportsInterface",
      "outputs": [
        {
          "internalType": "bool",
          "name": "",
          "type": "bool"
        }
      ],
      "stateMutability": "view",
      "type": "function"
    },
    {
      "inputs": [],
      "name": "symbol",
      "outputs": [
        {
          "internalType": "string",
          "name": "",
          "type": "string"
        }
      ],
      "stateMutability": "view",
      "type": "function"
    },
    {
      "inputs": [
        {
          "internalType": "uint256",
          "name": "index",
          "type": "uint256"
        }
      ],
      "name": "tokenByIndex",
      "outputs": [
        {
          "internalType": "uint256",
          "name": "",
          "type": "uint256"
        }
      ],
      "stateMutability": "view",
      "type": "function"
    },
    {
      "inputs": [
        {
          "internalType": "address",
          "name": "owner",
          "type": "address"
        },
        {
          "internalType": "uint256",
          "name": "index",
          "type": "uint256"
        }
      ],
      "name": "tokenOfOwnerByIndex",
      "outputs": [
        {
          "internalType": "uint256",
          "name": "",
          "type": "uint256"
        }
      ],
      "stateMutability": "view",
      "type": "function"
    },
    {
      "inputs": [
        {
          "internalType": "uint256",
          "name": "tokenId",
          "type": "uint256"
        }
      ],
      "name": "tokenURI",
      "outputs": [
        {
          "internalType": "string",
          "name": "",
          "type": "string"
        }
      ],
      "stateMutability": "view",
      "type": "function"
    },
    {
      "inputs": [],
      "name": "totalSupply",
      "outputs": [
        {
          "internalType": "uint256",
          "name": "",
          "type": "uint256"
        }
      ],
      "stateMutability": "view",
      "type": "function"
    },
    {
      "inputs": [
        {
          "internalType": "address",
          "name": "from",
          "type": "address"
        },
        {
          "internalType": "address",
          "name": "to",
          "type": "address"
        },
        {
          "internalType": "uint256",
          "name": "tokenId",
          "type": "uint256"
        }
      ],
      "name": "transferFrom",
      "outputs": [],
      "stateMutability": "nonpayable",
      "type": "function"
    }
  ],
  "bytecode": "0x608060405234801561001057600080fd5b506155c680620000216000396000f3fe608060405234801561001057600080fd5b50600436106102275760003560e01c806355c034de1161013057806395d89b41116100b8578063cb52c8231161007c578063cb52c823146106d2578063d539139314610702578063d547741f14610720578063e0df5b6f1461073c578063e985e9c51461075857610227565b806395d89b411461062e578063a217fddf1461064c578063a22cb4651461066a578063b88d4fde14610686578063c87b56dd146106a257610227565b806370a08231116100ff57806370a08231146105785780637c88e3d9146105a85780638129fc1c146105c45780638ea8f83c146105ce57806391d14854146105fe57610227565b806355c034de146104de5780636352211e1461050e578063645b569d1461053e5780636c0360eb1461055a57610227565b80632f745c59116101b357806340c10f191161018257806340c10f191461041457806342842e0e1461044457806342966c681461046057806342d21ef71461047c5780634f6ccce7146104ae57610227565b80632f745c591461036857806332fad9d81461039857806335bc5462146103c857806336568abe146103f857610227565b8063095ea7b3116101fa578063095ea7b3146102c657806318160ddd146102e257806323b872dd14610300578063248a9ca31461031c5780632f2ff15d1461034c57610227565b806301ffc9a71461022c5780630528cd111461025c57806306fdde0314610278578063081812fc14610296575b600080fd5b61024660048036038101906102419190613870565b610788565b60405161025391906138b8565b60405180910390f35b610276600480360381019061027191906139c4565b61086a565b005b610280610a63565b60405161028d9190613ae9565b60405180910390f35b6102b060048036038101906102ab9190613b0b565b610af5565b6040516102bd9190613b79565b60405180910390f35b6102e060048036038101906102db9190613bc0565b610b3b565b005b6102ea610c52565b6040516102f79190613c0f565b60405180910390f35b61031a60048036038101906103159190613c2a565b610c5f565b005b61033660048036038101906103319190613cb3565b610cbf565b6040516103439190613cef565b60405180910390f35b61036660048036038101906103619190613d0a565b610cdf565b005b610382600480360381019061037d9190613bc0565b610d00565b60405161038f9190613c0f565b60405180910390f35b6103b260048036038101906103ad9190613b0b565b610da5565b6040516103bf9190613c0f565b60405180910390f35b6103e260048036038101906103dd9190613b0b565b610dc2565b6040516103ef9190613c0f565b60405180910390f35b610412600480360381019061040d9190613d0a565b610ddf565b005b61042e60048036038101906104299190613bc0565b610e62565b60405161043b9190613c0f565b60405180910390f35b61045e60048036038101906104599190613c2a565b610f11565b005b61047a60048036038101906104759190613b0b565b610f31565b005b61049660048036038101906104919190613b0b565b610fbe565b6040516104a593929190613d4a565b60405180910390f35b6104c860048036038101906104c39190613b0b565b611001565b6040516104d59190613c0f565b60405180910390f35b6104f860048036038101906104f39190613d81565b611072565b6040516105059190613c0f565b60405180910390f35b61052860048036038101906105239190613b0b565b6110bb565b6040516105359190613b79565b60405180910390f35b61055860048036038101906105539190613dae565b611141565b005b610562611234565b60405161056f9190613ae9565b60405180910390f35b610592600480360381019061058d9190613d81565b6112c2565b60405161059f9190613c0f565b60405180910390f35b6105c260048036038101906105bd9190613e0e565b611379565b005b6105cc61149d565b005b6105e860048036038101906105e39190613e8f565b6116b8565b6040516105f591906138b8565b60405180910390f35b61061860048036038101906106139190613d0a565b61187e565b60405161062591906138b8565b60405180910390f35b6106366118e9565b6040516106439190613ae9565b60405180910390f35b61065461197b565b6040516106619190613cef565b60405180910390f35b610684600480360381019061067f9190613efb565b611982565b005b6106a0600480360381019061069b919061406b565b611998565b005b6106bc60048036038101906106b79190613b0b565b6119fa565b6040516106c99190613ae9565b60405180910390f35b6106ec60048036038101906106e79190613b0b565b611a99565b6040516106f99190613c0f565b60405180910390f35b61070a611af8565b6040516107179190613cef565b60405180910390f35b61073a60048036038101906107359190613d0a565b611b1c565b005b6107566004803603810190610751919061418f565b611b3d565b005b610772600480360381019061076d91906141d8565b611bd3565b60405161077f91906138b8565b60405180910390f35b60007f79f154c4000000000000000000000000000000000000000000000000000000007bffffffffffffffffffffffffffffffffffffffffffffffffffffffff1916827bffffffffffffffffffffffffffffffffffffffffffffffffffffffff1916148061085357507fda8def73000000000000000000000000000000000000000000000000000000007bffffffffffffffffffffffffffffffffffffffffffffffffffffffff1916827bffffffffffffffffffffffffffffffffffffffffffffffffffffffff1916145b80610863575061086282611c67565b5b9050919050565b6108947ff0887ba65ee2024ea881d91b74c2450ef19e1557f03bed3ea9f16b037cbe2dc93361187e565b6108d3576040517f08c379a00000000000000000000000000000000000000000000000000000000081526004016108ca90614264565b60405180910390fd5b82829050858590501461091b576040517f08c379a0000000000000000000000000000000000000000000000000000000008152600401610912906142d0565b60405180910390fd5b60005b85859050811015610a5b57600061093560fb611ce1565b905061096887878481811061094d5761094c6142f0565b5b90506020020160208101906109629190613d81565b82611cef565b8260ff6000838152602001908152602001600020819055506000858584818110610995576109946142f0565b5b90506020020135036109be574260fe6000838152602001908152602001600020819055506109f0565b8484838181106109d1576109d06142f0565b5b9050602002013560fe6000838152602001908152602001600020819055505b6109fa60fb611d0d565b8060fd6000610a08846110bb565b73ffffffffffffffffffffffffffffffffffffffff1673ffffffffffffffffffffffffffffffffffffffff1681526020019081526020016000208190555050600181610a54919061434e565b905061091e565b505050505050565b606060658054610a72906143b1565b80601f0160208091040260200160405190810160405280929190818152602001828054610a9e906143b1565b8015610aeb5780601f10610ac057610100808354040283529160200191610aeb565b820191906000526020600020905b815481529060010190602001808311610ace57829003601f168201915b5050505050905090565b6000610b0082611d23565b6069600083815260200190815260200160002060009054906101000a900473ffffffffffffffffffffffffffffffffffffffff169050919050565b6000610b46826110bb565b90508073ffffffffffffffffffffffffffffffffffffffff168373ffffffffffffffffffffffffffffffffffffffff1603610bb6576040517f08c379a0000000000000000000000000000000000000000000000000000000008152600401610bad90614454565b60405180910390fd5b8073ffffffffffffffffffffffffffffffffffffffff16610bd5611d6e565b73ffffffffffffffffffffffffffffffffffffffff161480610c045750610c0381610bfe611d6e565b611bd3565b5b610c43576040517f08c379a0000000000000000000000000000000000000000000000000000000008152600401610c3a906144e6565b60405180910390fd5b610c4d8383611d76565b505050565b6000609980549050905090565b610c70610c6a611d6e565b82611e2f565b610caf576040517f08c379a0000000000000000000000000000000000000000000000000000000008152600401610ca690614578565b60405180910390fd5b610cba838383611ec4565b505050565b600060c96000838152602001908152602001600020600101549050919050565b610ce882610cbf565b610cf1816121b9565b610cfb83836121cd565b505050565b6000610d0b836112c2565b8210610d4c576040517f08c379a0000000000000000000000000000000000000000000000000000000008152600401610d439061460a565b60405180910390fd5b609760008473ffffffffffffffffffffffffffffffffffffffff1673ffffffffffffffffffffffffffffffffffffffff168152602001908152602001600020600083815260200190815260200160002054905092915050565b600060fe6000838152602001908152602001600020549050919050565b600060ff6000838152602001908152602001600020549050919050565b610de7611d6e565b73ffffffffffffffffffffffffffffffffffffffff168173ffffffffffffffffffffffffffffffffffffffff1614610e54576040517f08c379a0000000000000000000000000000000000000000000000000000000008152600401610e4b9061469c565b60405180910390fd5b610e5e82826122ae565b5050565b6000610e8e7ff0887ba65ee2024ea881d91b74c2450ef19e1557f03bed3ea9f16b037cbe2dc93361187e565b610ecd576040517f08c379a0000000000000000000000000000000000000000000000000000000008152600401610ec490614264565b60405180910390fd5b6000610ed960fb611ce1565b9050610ee58482611cef565b8260ff600083815260200190815260200160002081905550610f0760fb611d0d565b8091505092915050565b610f2c83838360405180602001604052806000815250611998565b505050565b610f42610f3c611d6e565b82611e2f565b80610f735750610f727ff0887ba65ee2024ea881d91b74c2450ef19e1557f03bed3ea9f16b037cbe2dc93361187e565b5b610fb2576040517f08c379a0000000000000000000000000000000000000000000000000000000008152600401610fa99061472e565b60405180910390fd5b610fbb81612390565b50565b600080600060ff60008581526020019081526020016000205460fe600086815260200190815260200160002054610ff4866110bb565b9250925092509193909250565b600061100b610c52565b821061104c576040517f08c379a0000000000000000000000000000000000000000000000000000000008152600401611043906147c0565b60405180910390fd5b609982815481106110605761105f6142f0565b5b90600052602060002001549050919050565b600060fd60008373ffffffffffffffffffffffffffffffffffffffff1673ffffffffffffffffffffffffffffffffffffffff168152602001908152602001600020549050919050565b6000806110c7836124da565b9050600073ffffffffffffffffffffffffffffffffffffffff168173ffffffffffffffffffffffffffffffffffffffff1603611138576040517f08c379a000000000000000000000000000000000000000000000000000000000815260040161112f9061482c565b60405180910390fd5b80915050919050565b61116b7ff0887ba65ee2024ea881d91b74c2450ef19e1557f03bed3ea9f16b037cbe2dc93361187e565b6111aa576040517f08c379a00000000000000000000000000000000000000000000000000000000081526004016111a190614264565b60405180910390fd5b60005b8383905081101561122e5760006111c460fb611ce1565b90506111f78585848181106111dc576111db6142f0565b5b90506020020160208101906111f19190613d81565b82611cef565b8260ff60008381526020019081526020016000208190555061121960fb611d0d565b50600181611227919061434e565b90506111ad565b50505050565b60fc8054611241906143b1565b80601f016020809104026020016040519081016040528092919081815260200182805461126d906143b1565b80156112ba5780601f1061128f576101008083540402835291602001916112ba565b820191906000526020600020905b81548152906001019060200180831161129d57829003601f168201915b505050505081565b60008073ffffffffffffffffffffffffffffffffffffffff168273ffffffffffffffffffffffffffffffffffffffff1603611332576040517f08c379a0000000000000000000000000000000000000000000000000000000008152600401611329906148be565b60405180910390fd5b606860008373ffffffffffffffffffffffffffffffffffffffff1673ffffffffffffffffffffffffffffffffffffffff168152602001908152602001600020549050919050565b8181905084849050146113c1576040517f08c379a00000000000000000000000000000000000000000000000000000000081526004016113b8906142d0565b60405180910390fd5b6113eb7ff0887ba65ee2024ea881d91b74c2450ef19e1557f03bed3ea9f16b037cbe2dc93361187e565b61142a576040517f08c379a000000000000000000000000000000000000000000000000000000000815260040161142190614264565b60405180910390fd5b60005b848490508110156114965761148285858381811061144e5761144d6142f0565b5b90506020020160208101906114639190613d81565b848484818110611476576114756142f0565b5b90506020020135611cef565b60018161148f919061434e565b905061142d565b5050505050565b60008060019054906101000a900460ff161590508080156114ce5750600160008054906101000a900460ff1660ff16105b806114fb57506114dd30612517565b1580156114fa5750600160008054906101000a900460ff1660ff16145b5b61153a576040517f08c379a000000000000000000000000000000000000000000000000000000000815260040161153190614950565b60405180910390fd5b60016000806101000a81548160ff021916908360ff1602179055508015611577576001600060016101000a81548160ff0219169083151502179055505b6115eb6040518060400160405280600c81526020017f5370616365506173734e465400000000000000000000000000000000000000008152506040518060400160405280600481526020017f504153530000000000000000000000000000000000000000000000000000000081525061253a565b6115f3612597565b6116006000801b336125e8565b61162a7ff0887ba65ee2024ea881d91b74c2450ef19e1557f03bed3ea9f16b037cbe2dc9336125e8565b60405180606001604052806022815260200161556f6022913960fc90816116519190614b1c565b5061165c60fb611d0d565b80156116b55760008060016101000a81548160ff0219169083151502179055507f7f26b83ff96e1f2b6a682f133852f6798a09c465da95921460cefb384740249860016040516116ac9190614c36565b60405180910390a15b50565b60006116e47ff0887ba65ee2024ea881d91b74c2450ef19e1557f03bed3ea9f16b037cbe2dc93361187e565b8061172257503373ffffffffffffffffffffffffffffffffffffffff1661170a846110bb565b73ffffffffffffffffffffffffffffffffffffffff16145b611761576040517f08c379a000000000000000000000000000000000000000000000000000000000815260040161175890614cc3565b60405180910390fd5b600060fe600085815260200190815260200160002054146117b7576040517f08c379a00000000000000000000000000000000000000000000000000000000081526004016117ae90614d2f565b60405180910390fd5b6000821180156117ed57506117ec7ff0887ba65ee2024ea881d91b74c2450ef19e1557f03bed3ea9f16b037cbe2dc93361187e565b5b1561180f578160fe600085815260200190815260200160002081905550611828565b4260fe6000858152602001908152602001600020819055505b8260fd6000611836866110bb565b73ffffffffffffffffffffffffffffffffffffffff1673ffffffffffffffffffffffffffffffffffffffff168152602001908152602001600020819055506001905092915050565b600060c9600084815260200190815260200160002060000160008373ffffffffffffffffffffffffffffffffffffffff1673ffffffffffffffffffffffffffffffffffffffff16815260200190815260200160002060009054906101000a900460ff16905092915050565b6060606680546118f8906143b1565b80601f0160208091040260200160405190810160405280929190818152602001828054611924906143b1565b80156119715780601f1061194657610100808354040283529160200191611971565b820191906000526020600020905b81548152906001019060200180831161195457829003601f168201915b5050505050905090565b6000801b81565b61199461198d611d6e565b83836125f6565b5050565b6119a96119a3611d6e565b83611e2f565b6119e8576040517f08c379a00000000000000000000000000000000000000000000000000000000081526004016119df90614578565b60405180910390fd5b6119f484848484612762565b50505050565b6060611a05826127be565b611a3b576040517fa14c4b5000000000000000000000000000000000000000000000000000000000815260040160405180910390fd5b600060fc8054611a4a906143b1565b905003611a665760405180602001604052806000815250611a92565b60fc611a71836127ff565b604051602001611a82929190614e0e565b6040516020818303038152906040525b9050919050565b60008060fe60008481526020019081526020016000205403611abe5760009050611af3565b60ff60008381526020019081526020016000205460fe600084815260200190815260200160002054611af0919061434e565b90505b919050565b7ff0887ba65ee2024ea881d91b74c2450ef19e1557f03bed3ea9f16b037cbe2dc981565b611b2582610cbf565b611b2e816121b9565b611b3883836122ae565b505050565b611b4a6000801b3361187e565b611b89576040517f08c379a0000000000000000000000000000000000000000000000000000000008152600401611b8090614264565b60405180910390fd5b8060fc9081611b989190614b1c565b507f5411e8ebf1636d9e83d5fc4900bf80cbac82e8790da2a4c94db4895e889eedf681604051611bc89190613ae9565b60405180910390a150565b6000606a60008473ffffffffffffffffffffffffffffffffffffffff1673ffffffffffffffffffffffffffffffffffffffff16815260200190815260200160002060008373ffffffffffffffffffffffffffffffffffffffff1673ffffffffffffffffffffffffffffffffffffffff16815260200190815260200160002060009054906101000a900460ff16905092915050565b60007f7965db0b000000000000000000000000000000000000000000000000000000007bffffffffffffffffffffffffffffffffffffffffffffffffffffffff1916827bffffffffffffffffffffffffffffffffffffffffffffffffffffffff19161480611cda5750611cd9826128cd565b5b9050919050565b600081600001549050919050565b611d09828260405180602001604052806000815250612947565b5050565b6001816000016000828254019250508190555050565b611d2c816127be565b611d6b576040517f08c379a0000000000000000000000000000000000000000000000000000000008152600401611d629061482c565b60405180910390fd5b50565b600033905090565b816069600083815260200190815260200160002060006101000a81548173ffffffffffffffffffffffffffffffffffffffff021916908373ffffffffffffffffffffffffffffffffffffffff160217905550808273ffffffffffffffffffffffffffffffffffffffff16611de9836110bb565b73ffffffffffffffffffffffffffffffffffffffff167f8c5be1e5ebec7d5bd14f71427d1e84f3dd0314c0f7b2291e5b200ac8c7c3b92560405160405180910390a45050565b600080611e3b836110bb565b90508073ffffffffffffffffffffffffffffffffffffffff168473ffffffffffffffffffffffffffffffffffffffff161480611e7d5750611e7c8185611bd3565b5b80611ebb57508373ffffffffffffffffffffffffffffffffffffffff16611ea384610af5565b73ffffffffffffffffffffffffffffffffffffffff16145b91505092915050565b8273ffffffffffffffffffffffffffffffffffffffff16611ee4826110bb565b73ffffffffffffffffffffffffffffffffffffffff1614611f3a576040517f08c379a0000000000000000000000000000000000000000000000000000000008152600401611f3190614ea4565b60405180910390fd5b600073ffffffffffffffffffffffffffffffffffffffff168273ffffffffffffffffffffffffffffffffffffffff1603611fa9576040517f08c379a0000000000000000000000000000000000000000000000000000000008152600401611fa090614f36565b60405180910390fd5b611fb48383836129a2565b8273ffffffffffffffffffffffffffffffffffffffff16611fd4826110bb565b73ffffffffffffffffffffffffffffffffffffffff161461202a576040517f08c379a000000000000000000000000000000000000000000000000000000000815260040161202190614ea4565b60405180910390fd5b6069600082815260200190815260200160002060006101000a81549073ffffffffffffffffffffffffffffffffffffffff02191690556001606860008573ffffffffffffffffffffffffffffffffffffffff1673ffffffffffffffffffffffffffffffffffffffff168152602001908152602001600020600082825403925050819055506001606860008473ffffffffffffffffffffffffffffffffffffffff1673ffffffffffffffffffffffffffffffffffffffff16815260200190815260200160002060008282540192505081905550816067600083815260200190815260200160002060006101000a81548173ffffffffffffffffffffffffffffffffffffffff021916908373ffffffffffffffffffffffffffffffffffffffff160217905550808273ffffffffffffffffffffffffffffffffffffffff168473ffffffffffffffffffffffffffffffffffffffff167fddf252ad1be2c89b69c2b068fc378daa952ba7f163c4a11628f55a4df523b3ef60405160405180910390a46121b4838383612a42565b505050565b6121ca816121c5611d6e565b612a47565b50565b6121d7828261187e565b6122aa57600160c9600084815260200190815260200160002060000160008373ffffffffffffffffffffffffffffffffffffffff1673ffffffffffffffffffffffffffffffffffffffff16815260200190815260200160002060006101000a81548160ff02191690831515021790555061224f611d6e565b73ffffffffffffffffffffffffffffffffffffffff168173ffffffffffffffffffffffffffffffffffffffff16837f2f8788117e7eff1d82e926ec794901d17c78024a50270940304540a733656f0d60405160405180910390a45b5050565b6122b8828261187e565b1561238c57600060c9600084815260200190815260200160002060000160008373ffffffffffffffffffffffffffffffffffffffff1673ffffffffffffffffffffffffffffffffffffffff16815260200190815260200160002060006101000a81548160ff021916908315150217905550612331611d6e565b73ffffffffffffffffffffffffffffffffffffffff168173ffffffffffffffffffffffffffffffffffffffff16837ff6391f5c32d9c69d2a47ea670b442974b53935d1edc7fd64eb21e047a839171b60405160405180910390a45b5050565b600061239b826110bb565b90506123a9816000846129a2565b6123b2826110bb565b90506069600083815260200190815260200160002060006101000a81549073ffffffffffffffffffffffffffffffffffffffff02191690556001606860008373ffffffffffffffffffffffffffffffffffffffff1673ffffffffffffffffffffffffffffffffffffffff168152602001908152602001600020600082825403925050819055506067600083815260200190815260200160002060006101000a81549073ffffffffffffffffffffffffffffffffffffffff021916905581600073ffffffffffffffffffffffffffffffffffffffff168273ffffffffffffffffffffffffffffffffffffffff167fddf252ad1be2c89b69c2b068fc378daa952ba7f163c4a11628f55a4df523b3ef60405160405180910390a46124d681600084612a42565b5050565b60006067600083815260200190815260200160002060009054906101000a900473ffffffffffffffffffffffffffffffffffffffff169050919050565b6000808273ffffffffffffffffffffffffffffffffffffffff163b119050919050565b600060019054906101000a900460ff16612589576040517f08c379a000000000000000000000000000000000000000000000000000000000815260040161258090614fc8565b60405180910390fd5b6125938282612acc565b5050565b600060019054906101000a900460ff166125e6576040517f08c379a00000000000000000000000000000000000000000000000000000000081526004016125dd90614fc8565b60405180910390fd5b565b6125f282826121cd565b5050565b8173ffffffffffffffffffffffffffffffffffffffff168373ffffffffffffffffffffffffffffffffffffffff1603612664576040517f08c379a000000000000000000000000000000000000000000000000000000000815260040161265b90615034565b60405180910390fd5b80606a60008573ffffffffffffffffffffffffffffffffffffffff1673ffffffffffffffffffffffffffffffffffffffff16815260200190815260200160002060008473ffffffffffffffffffffffffffffffffffffffff1673ffffffffffffffffffffffffffffffffffffffff16815260200190815260200160002060006101000a81548160ff0219169083151502179055508173ffffffffffffffffffffffffffffffffffffffff168373ffffffffffffffffffffffffffffffffffffffff167f17307eab39ab6107e8899845ad3d59bd9653f200f220920489ca2b5937696c318360405161275591906138b8565b60405180910390a3505050565b61276d848484611ec4565b61277984848484612b3f565b6127b8576040517f08c379a00000000000000000000000000000000000000000000000000000000081526004016127af906150c6565b60405180910390fd5b50505050565b60008073ffffffffffffffffffffffffffffffffffffffff166127e0836124da565b73ffffffffffffffffffffffffffffffffffffffff1614159050919050565b60606000600161280e84612cc6565b01905060008167ffffffffffffffff81111561282d5761282c613f40565b5b6040519080825280601f01601f19166020018201604052801561285f5781602001600182028036833780820191505090505b509050600082602001820190505b6001156128c2578080600190039150507f3031323334353637383961626364656600000000000000000000000000000000600a86061a8153600a85816128b6576128b56150e6565b5b0494506000850361286d575b819350505050919050565b60007f780e9d63000000000000000000000000000000000000000000000000000000007bffffffffffffffffffffffffffffffffffffffffffffffffffffffff1916827bffffffffffffffffffffffffffffffffffffffffffffffffffffffff19161480612940575061293f82612e19565b5b9050919050565b6129518383612efb565b61295e6000848484612b3f565b61299d576040517f08c379a0000000000000000000000000000000000000000000000000000000008152600401612994906150c6565b60405180910390fd5b505050565b6129ad838383613114565b600060fe6000838152602001908152602001600020541180156129fd5750600073ffffffffffffffffffffffffffffffffffffffff168273ffffffffffffffffffffffffffffffffffffffff1614155b15612a3d576040517f08c379a0000000000000000000000000000000000000000000000000000000008152600401612a3490615187565b60405180910390fd5b505050565b505050565b612a51828261187e565b612ac857612a5e81613226565b612a6c8360001c6020613253565b604051602001612a7d92919061523f565b6040516020818303038152906040526040517f08c379a0000000000000000000000000000000000000000000000000000000008152600401612abf9190613ae9565b60405180910390fd5b5050565b600060019054906101000a900460ff16612b1b576040517f08c379a0000000000000000000000000000000000000000000000000000000008152600401612b1290614fc8565b60405180910390fd5b8160659081612b2a9190614b1c565b508060669081612b3a9190614b1c565b505050565b6000612b608473ffffffffffffffffffffffffffffffffffffffff16612517565b15612cb9578373ffffffffffffffffffffffffffffffffffffffff1663150b7a02612b89611d6e565b8786866040518563ffffffff1660e01b8152600401612bab94939291906152ce565b6020604051808303816000875af1925050508015612be757506040513d601f19601f82011682018060405250810190612be4919061532f565b60015b612c69573d8060008114612c17576040519150601f19603f3d011682016040523d82523d6000602084013e612c1c565b606091505b506000815103612c61576040517f08c379a0000000000000000000000000000000000000000000000000000000008152600401612c58906150c6565b60405180910390fd5b805181602001fd5b63150b7a0260e01b7bffffffffffffffffffffffffffffffffffffffffffffffffffffffff1916817bffffffffffffffffffffffffffffffffffffffffffffffffffffffff191614915050612cbe565b600190505b949350505050565b600080600090507a184f03e93ff9f4daa797ed6e38ed64bf6a1f0100000000000000008310612d24577a184f03e93ff9f4daa797ed6e38ed64bf6a1f0100000000000000008381612d1a57612d196150e6565b5b0492506040810190505b6d04ee2d6d415b85acef81000000008310612d61576d04ee2d6d415b85acef81000000008381612d5757612d566150e6565b5b0492506020810190505b662386f26fc100008310612d9057662386f26fc100008381612d8657612d856150e6565b5b0492506010810190505b6305f5e1008310612db9576305f5e1008381612daf57612dae6150e6565b5b0492506008810190505b6127108310612dde576127108381612dd457612dd36150e6565b5b0492506004810190505b60648310612e015760648381612df757612df66150e6565b5b0492506002810190505b600a8310612e10576001810190505b80915050919050565b60007f80ac58cd000000000000000000000000000000000000000000000000000000007bffffffffffffffffffffffffffffffffffffffffffffffffffffffff1916827bffffffffffffffffffffffffffffffffffffffffffffffffffffffff19161480612ee457507f5b5e139f000000000000000000000000000000000000000000000000000000007bffffffffffffffffffffffffffffffffffffffffffffffffffffffff1916827bffffffffffffffffffffffffffffffffffffffffffffffffffffffff1916145b80612ef45750612ef38261348f565b5b9050919050565b600073ffffffffffffffffffffffffffffffffffffffff168273ffffffffffffffffffffffffffffffffffffffff1603612f6a576040517f08c379a0000000000000000000000000000000000000000000000000000000008152600401612f61906153a8565b60405180910390fd5b612f73816127be565b15612fb3576040517f08c379a0000000000000000000000000000000000000000000000000000000008152600401612faa90615414565b60405180910390fd5b612fbf600083836129a2565b612fc8816127be565b15613008576040517f08c379a0000000000000000000000000000000000000000000000000000000008152600401612fff90615414565b60405180910390fd5b6001606860008473ffffffffffffffffffffffffffffffffffffffff1673ffffffffffffffffffffffffffffffffffffffff16815260200190815260200160002060008282540192505081905550816067600083815260200190815260200160002060006101000a81548173ffffffffffffffffffffffffffffffffffffffff021916908373ffffffffffffffffffffffffffffffffffffffff160217905550808273ffffffffffffffffffffffffffffffffffffffff16600073ffffffffffffffffffffffffffffffffffffffff167fddf252ad1be2c89b69c2b068fc378daa952ba7f163c4a11628f55a4df523b3ef60405160405180910390a461311060008383612a42565b5050565b61311f8383836134f9565b600073ffffffffffffffffffffffffffffffffffffffff168373ffffffffffffffffffffffffffffffffffffffff16036131615761315c816134fe565b6131a0565b8173ffffffffffffffffffffffffffffffffffffffff168373ffffffffffffffffffffffffffffffffffffffff161461319f5761319e8382613547565b5b5b600073ffffffffffffffffffffffffffffffffffffffff168273ffffffffffffffffffffffffffffffffffffffff16036131e2576131dd816136b4565b613221565b8273ffffffffffffffffffffffffffffffffffffffff168273ffffffffffffffffffffffffffffffffffffffff16146132205761321f8282613785565b5b5b505050565b606061324c8273ffffffffffffffffffffffffffffffffffffffff16601460ff16613253565b9050919050565b6060600060028360026132669190615434565b613270919061434e565b67ffffffffffffffff81111561328957613288613f40565b5b6040519080825280601f01601f1916602001820160405280156132bb5781602001600182028036833780820191505090505b5090507f3000000000000000000000000000000000000000000000000000000000000000816000815181106132f3576132f26142f0565b5b60200101907effffffffffffffffffffffffffffffffffffffffffffffffffffffffffffff1916908160001a9053507f780000000000000000000000000000000000000000000000000000000000000081600181518110613357576133566142f0565b5b60200101907effffffffffffffffffffffffffffffffffffffffffffffffffffffffffffff1916908160001a905350600060018460026133979190615434565b6133a1919061434e565b90505b6001811115613441577f3031323334353637383961626364656600000000000000000000000000000000600f8616601081106133e3576133e26142f0565b5b1a60f81b8282815181106133fa576133f96142f0565b5b60200101907effffffffffffffffffffffffffffffffffffffffffffffffffffffffffffff1916908160001a905350600485901c94508061343a90615476565b90506133a4565b5060008414613485576040517f08c379a000000000000000000000000000000000000000000000000000000000815260040161347c906154eb565b60405180910390fd5b8091505092915050565b60007f01ffc9a7000000000000000000000000000000000000000000000000000000007bffffffffffffffffffffffffffffffffffffffffffffffffffffffff1916827bffffffffffffffffffffffffffffffffffffffffffffffffffffffff1916149050919050565b505050565b609980549050609a600083815260200190815260200160002081905550609981908060018154018082558091505060019003906000526020600020016000909190919091505550565b60006001613554846112c2565b61355e919061550b565b9050600060986000848152602001908152602001600020549050818114613643576000609760008673ffffffffffffffffffffffffffffffffffffffff1673ffffffffffffffffffffffffffffffffffffffff168152602001908152602001600020600084815260200190815260200160002054905080609760008773ffffffffffffffffffffffffffffffffffffffff1673ffffffffffffffffffffffffffffffffffffffff168152602001908152602001600020600084815260200190815260200160002081905550816098600083815260200190815260200160002081905550505b6098600084815260200190815260200160002060009055609760008573ffffffffffffffffffffffffffffffffffffffff1673ffffffffffffffffffffffffffffffffffffffff16815260200190815260200160002060008381526020019081526020016000206000905550505050565b600060016099805490506136c8919061550b565b90506000609a60008481526020019081526020016000205490506000609983815481106136f8576136f76142f0565b5b90600052602060002001549050806099838154811061371a576137196142f0565b5b906000526020600020018190555081609a600083815260200190815260200160002081905550609a60008581526020019081526020016000206000905560998054806137695761376861553f565b5b6001900381819060005260206000200160009055905550505050565b6000613790836112c2565b905081609760008573ffffffffffffffffffffffffffffffffffffffff1673ffffffffffffffffffffffffffffffffffffffff168152602001908152602001600020600083815260200190815260200160002081905550806098600084815260200190815260200160002081905550505050565b6000604051905090565b600080fd5b600080fd5b60007fffffffff0000000000000000000000000000000000000000000000000000000082169050919050565b61384d81613818565b811461385857600080fd5b50565b60008135905061386a81613844565b92915050565b6000602082840312156138865761388561380e565b5b60006138948482850161385b565b91505092915050565b60008115159050919050565b6138b28161389d565b82525050565b60006020820190506138cd60008301846138a9565b92915050565b600080fd5b600080fd5b600080fd5b60008083601f8401126138f8576138f76138d3565b5b8235905067ffffffffffffffff811115613915576139146138d8565b5b602083019150836020820283011115613931576139306138dd565b5b9250929050565b60008083601f84011261394e5761394d6138d3565b5b8235905067ffffffffffffffff81111561396b5761396a6138d8565b5b602083019150836020820283011115613987576139866138dd565b5b9250929050565b6000819050919050565b6139a18161398e565b81146139ac57600080fd5b50565b6000813590506139be81613998565b92915050565b6000806000806000606086880312156139e0576139df61380e565b5b600086013567ffffffffffffffff8111156139fe576139fd613813565b5b613a0a888289016138e2565b9550955050602086013567ffffffffffffffff811115613a2d57613a2c613813565b5b613a3988828901613938565b93509350506040613a4c888289016139af565b9150509295509295909350565b600081519050919050565b600082825260208201905092915050565b60005b83811015613a93578082015181840152602081019050613a78565b60008484015250505050565b6000601f19601f8301169050919050565b6000613abb82613a59565b613ac58185613a64565b9350613ad5818560208601613a75565b613ade81613a9f565b840191505092915050565b60006020820190508181036000830152613b038184613ab0565b905092915050565b600060208284031215613b2157613b2061380e565b5b6000613b2f848285016139af565b91505092915050565b600073ffffffffffffffffffffffffffffffffffffffff82169050919050565b6000613b6382613b38565b9050919050565b613b7381613b58565b82525050565b6000602082019050613b8e6000830184613b6a565b92915050565b613b9d81613b58565b8114613ba857600080fd5b50565b600081359050613bba81613b94565b92915050565b60008060408385031215613bd757613bd661380e565b5b6000613be585828601613bab565b9250506020613bf6858286016139af565b9150509250929050565b613c098161398e565b82525050565b6000602082019050613c246000830184613c00565b92915050565b600080600060608486031215613c4357613c4261380e565b5b6000613c5186828701613bab565b9350506020613c6286828701613bab565b9250506040613c73868287016139af565b9150509250925092565b6000819050919050565b613c9081613c7d565b8114613c9b57600080fd5b50565b600081359050613cad81613c87565b92915050565b600060208284031215613cc957613cc861380e565b5b6000613cd784828501613c9e565b91505092915050565b613ce981613c7d565b82525050565b6000602082019050613d046000830184613ce0565b92915050565b60008060408385031215613d2157613d2061380e565b5b6000613d2f85828601613c9e565b9250506020613d4085828601613bab565b9150509250929050565b6000606082019050613d5f6000830186613c00565b613d6c6020830185613c00565b613d796040830184613b6a565b949350505050565b600060208284031215613d9757613d9661380e565b5b6000613da584828501613bab565b91505092915050565b600080600060408486031215613dc757613dc661380e565b5b600084013567ffffffffffffffff811115613de557613de4613813565b5b613df1868287016138e2565b93509350506020613e04868287016139af565b9150509250925092565b60008060008060408587031215613e2857613e2761380e565b5b600085013567ffffffffffffffff811115613e4657613e45613813565b5b613e52878288016138e2565b9450945050602085013567ffffffffffffffff811115613e7557613e74613813565b5b613e8187828801613938565b925092505092959194509250565b60008060408385031215613ea657613ea561380e565b5b6000613eb4858286016139af565b9250506020613ec5858286016139af565b9150509250929050565b613ed88161389d565b8114613ee357600080fd5b50565b600081359050613ef581613ecf565b92915050565b60008060408385031215613f1257613f1161380e565b5b6000613f2085828601613bab565b9250506020613f3185828601613ee6565b9150509250929050565b600080fd5b7f4e487b7100000000000000000000000000000000000000000000000000000000600052604160045260246000fd5b613f7882613a9f565b810181811067ffffffffffffffff82111715613f9757613f96613f40565b5b80604052505050565b6000613faa613804565b9050613fb68282613f6f565b919050565b600067ffffffffffffffff821115613fd657613fd5613f40565b5b613fdf82613a9f565b9050602081019050919050565b82818337600083830152505050565b600061400e61400984613fbb565b613fa0565b90508281526020810184848401111561402a57614029613f3b565b5b614035848285613fec565b509392505050565b600082601f830112614052576140516138d3565b5b8135614062848260208601613ffb565b91505092915050565b600080600080608085870312156140855761408461380e565b5b600061409387828801613bab565b94505060206140a487828801613bab565b93505060406140b5878288016139af565b925050606085013567ffffffffffffffff8111156140d6576140d5613813565b5b6140e28782880161403d565b91505092959194509250565b600067ffffffffffffffff82111561410957614108613f40565b5b61411282613a9f565b9050602081019050919050565b600061413261412d846140ee565b613fa0565b90508281526020810184848401111561414e5761414d613f3b565b5b614159848285613fec565b509392505050565b600082601f830112614176576141756138d3565b5b813561418684826020860161411f565b91505092915050565b6000602082840312156141a5576141a461380e565b5b600082013567ffffffffffffffff8111156141c3576141c2613813565b5b6141cf84828501614161565b91505092915050565b600080604083850312156141ef576141ee61380e565b5b60006141fd85828601613bab565b925050602061420e85828601613bab565b9150509250929050565b7f63616c6c6572206973206e6f742061206d696e74657200000000000000000000600082015250565b600061424e601683613a64565b915061425982614218565b602082019050919050565b6000602082019050818103600083015261427d81614241565b9050919050565b7f696e76616c696420646174610000000000000000000000000000000000000000600082015250565b60006142ba600c83613a64565b91506142c582614284565b602082019050919050565b600060208201905081810360008301526142e9816142ad565b9050919050565b7f4e487b7100000000000000000000000000000000000000000000000000000000600052603260045260246000fd5b7f4e487b7100000000000000000000000000000000000000000000000000000000600052601160045260246000fd5b60006143598261398e565b91506143648361398e565b925082820190508082111561437c5761437b61431f565b5b92915050565b7f4e487b7100000000000000000000000000000000000000000000000000000000600052602260045260246000fd5b600060028204905060018216806143c957607f821691505b6020821081036143dc576143db614382565b5b50919050565b7f4552433732313a20617070726f76616c20746f2063757272656e74206f776e6560008201527f7200000000000000000000000000000000000000000000000000000000000000602082015250565b600061443e602183613a64565b9150614449826143e2565b604082019050919050565b6000602082019050818103600083015261446d81614431565b9050919050565b7f4552433732313a20617070726f76652063616c6c6572206973206e6f7420746f60008201527f6b656e206f776e6572206f7220617070726f76656420666f7220616c6c000000602082015250565b60006144d0603d83613a64565b91506144db82614474565b604082019050919050565b600060208201905081810360008301526144ff816144c3565b9050919050565b7f4552433732313a2063616c6c6572206973206e6f7420746f6b656e206f776e6560008201527f72206f7220617070726f76656400000000000000000000000000000000000000602082015250565b6000614562602d83613a64565b915061456d82614506565b604082019050919050565b6000602082019050818103600083015261459181614555565b9050919050565b7f455243373231456e756d657261626c653a206f776e657220696e646578206f7560008201527f74206f6620626f756e6473000000000000000000000000000000000000000000602082015250565b60006145f4602b83613a64565b91506145ff82614598565b604082019050919050565b60006020820190508181036000830152614623816145e7565b9050919050565b7f416363657373436f6e74726f6c3a2063616e206f6e6c792072656e6f756e636560008201527f20726f6c657320666f722073656c660000000000000000000000000000000000602082015250565b6000614686602f83613a64565b91506146918261462a565b604082019050919050565b600060208201905081810360008301526146b581614679565b9050919050565b7f4552433732313a2063616c6c6572206973206e6f7420746f6b656e206f776e6560008201527f72206e6f72206d696e7465720000000000000000000000000000000000000000602082015250565b6000614718602c83613a64565b9150614723826146bc565b604082019050919050565b600060208201905081810360008301526147478161470b565b9050919050565b7f455243373231456e756d657261626c653a20676c6f62616c20696e646578206f60008201527f7574206f6620626f756e64730000000000000000000000000000000000000000602082015250565b60006147aa602c83613a64565b91506147b58261474e565b604082019050919050565b600060208201905081810360008301526147d98161479d565b9050919050565b7f4552433732313a20696e76616c696420746f6b656e2049440000000000000000600082015250565b6000614816601883613a64565b9150614821826147e0565b602082019050919050565b6000602082019050818103600083015261484581614809565b9050919050565b7f4552433732313a2061646472657373207a65726f206973206e6f74206120766160008201527f6c6964206f776e65720000000000000000000000000000000000000000000000602082015250565b60006148a8602983613a64565b91506148b38261484c565b604082019050919050565b600060208201905081810360008301526148d78161489b565b9050919050565b7f496e697469616c697a61626c653a20636f6e747261637420697320616c72656160008201527f647920696e697469616c697a6564000000000000000000000000000000000000602082015250565b600061493a602e83613a64565b9150614945826148de565b604082019050919050565b600060208201905081810360008301526149698161492d565b9050919050565b60008190508160005260206000209050919050565b60006020601f8301049050919050565b600082821b905092915050565b6000600883026149d27fffffffffffffffffffffffffffffffffffffffffffffffffffffffffffffffff82614995565b6149dc8683614995565b95508019841693508086168417925050509392505050565b6000819050919050565b6000614a19614a14614a0f8461398e565b6149f4565b61398e565b9050919050565b6000819050919050565b614a33836149fe565b614a47614a3f82614a20565b8484546149a2565b825550505050565b600090565b614a5c614a4f565b614a67818484614a2a565b505050565b5b81811015614a8b57614a80600082614a54565b600181019050614a6d565b5050565b601f821115614ad057614aa181614970565b614aaa84614985565b81016020851015614ab9578190505b614acd614ac585614985565b830182614a6c565b50505b505050565b600082821c905092915050565b6000614af360001984600802614ad5565b1980831691505092915050565b6000614b0c8383614ae2565b9150826002028217905092915050565b614b2582613a59565b67ffffffffffffffff811115614b3e57614b3d613f40565b5b614b4882546143b1565b614b53828285614a8f565b600060209050601f831160018114614b865760008415614b74578287015190505b614b7e8582614b00565b865550614be6565b601f198416614b9486614970565b60005b82811015614bbc57848901518255600182019150602085019450602081019050614b97565b86831015614bd95784890151614bd5601f891682614ae2565b8355505b6001600288020188555050505b505050505050565b6000819050919050565b600060ff82169050919050565b6000614c20614c1b614c1684614bee565b6149f4565b614bf8565b9050919050565b614c3081614c05565b82525050565b6000602082019050614c4b6000830184614c27565b92915050565b7f63616c6c6572206973206e6f742061206d696e746572206f7220746865206f7760008201527f6e65720000000000000000000000000000000000000000000000000000000000602082015250565b6000614cad602383613a64565b9150614cb882614c51565b604082019050919050565b60006020820190508181036000830152614cdc81614ca0565b9050919050565b7f63616e6e6f742062652061637469766174656420616761696e00000000000000600082015250565b6000614d19601983613a64565b9150614d2482614ce3565b602082019050919050565b60006020820190508181036000830152614d4881614d0c565b9050919050565b600081905092915050565b60008154614d67816143b1565b614d718186614d4f565b94506001821660008114614d8c5760018114614da157614dd4565b60ff1983168652811515820286019350614dd4565b614daa85614970565b60005b83811015614dcc57815481890152600182019150602081019050614dad565b838801955050505b50505092915050565b6000614de882613a59565b614df28185614d4f565b9350614e02818560208601613a75565b80840191505092915050565b6000614e1a8285614d5a565b9150614e268284614ddd565b91508190509392505050565b7f4552433732313a207472616e736665722066726f6d20696e636f72726563742060008201527f6f776e6572000000000000000000000000000000000000000000000000000000602082015250565b6000614e8e602583613a64565b9150614e9982614e32565b604082019050919050565b60006020820190508181036000830152614ebd81614e81565b9050919050565b7f4552433732313a207472616e7366657220746f20746865207a65726f2061646460008201527f7265737300000000000000000000000000000000000000000000000000000000602082015250565b6000614f20602483613a64565b9150614f2b82614ec4565b604082019050919050565b60006020820190508181036000830152614f4f81614f13565b9050919050565b7f496e697469616c697a61626c653a20636f6e7472616374206973206e6f74206960008201527f6e697469616c697a696e67000000000000000000000000000000000000000000602082015250565b6000614fb2602b83613a64565b9150614fbd82614f56565b604082019050919050565b60006020820190508181036000830152614fe181614fa5565b9050919050565b7f4552433732313a20617070726f766520746f2063616c6c657200000000000000600082015250565b600061501e601983613a64565b915061502982614fe8565b602082019050919050565b6000602082019050818103600083015261504d81615011565b9050919050565b7f4552433732313a207472616e7366657220746f206e6f6e20455243373231526560008201527f63656976657220696d706c656d656e7465720000000000000000000000000000602082015250565b60006150b0603283613a64565b91506150bb82615054565b604082019050919050565b600060208201905081810360008301526150df816150a3565b9050919050565b7f4e487b7100000000000000000000000000000000000000000000000000000000600052601260045260246000fd5b7f63616e6e6f74206265207472616e73666572726564207768656e20616374697660008201527f6174656400000000000000000000000000000000000000000000000000000000602082015250565b6000615171602483613a64565b915061517c82615115565b604082019050919050565b600060208201905081810360008301526151a081615164565b9050919050565b7f416363657373436f6e74726f6c3a206163636f756e7420000000000000000000600082015250565b60006151dd601783614d4f565b91506151e8826151a7565b601782019050919050565b7f206973206d697373696e6720726f6c6520000000000000000000000000000000600082015250565b6000615229601183614d4f565b9150615234826151f3565b601182019050919050565b600061524a826151d0565b91506152568285614ddd565b91506152618261521c565b915061526d8284614ddd565b91508190509392505050565b600081519050919050565b600082825260208201905092915050565b60006152a082615279565b6152aa8185615284565b93506152ba818560208601613a75565b6152c381613a9f565b840191505092915050565b60006080820190506152e36000830187613b6a565b6152f06020830186613b6a565b6152fd6040830185613c00565b818103606083015261530f8184615295565b905095945050505050565b60008151905061532981613844565b92915050565b6000602082840312156153455761534461380e565b5b60006153538482850161531a565b91505092915050565b7f4552433732313a206d696e7420746f20746865207a65726f2061646472657373600082015250565b6000615392602083613a64565b915061539d8261535c565b602082019050919050565b600060208201905081810360008301526153c181615385565b9050919050565b7f4552433732313a20746f6b656e20616c7265616479206d696e74656400000000600082015250565b60006153fe601c83613a64565b9150615409826153c8565b602082019050919050565b6000602082019050818103600083015261542d816153f1565b9050919050565b600061543f8261398e565b915061544a8361398e565b92508282026154588161398e565b9150828204841483151761546f5761546e61431f565b5b5092915050565b60006154818261398e565b9150600082036154945761549361431f565b5b600182039050919050565b7f537472696e67733a20686578206c656e67746820696e73756666696369656e74600082015250565b60006154d5602083613a64565b91506154e08261549f565b602082019050919050565b60006020820190508181036000830152615504816154c8565b9050919050565b60006155168261398e565b91506155218361398e565b92508282039050818111156155395761553861431f565b5b92915050565b7f4e487b7100000000000000000000000000000000000000000000000000000000600052603160045260246000fdfe68747470733a2f2f6e66742e64616f73706163652e6f6e652f6e66742f646174612fa26469706673582212203e9a7d5bc07a09238a87a2fcf151146c616ed4079b2a34c54beebdfca35f839d64736f6c63430008110033",
  "linkReferences": {},
  "deployedLinkReferences": {}
}