{
  "_format": "hh-sol-artifact-1",
  "contractName": "SpacePassNFT",
  "sourceName": "contracts/SpacePassNFT.sol",
  "abi": [
    {
      "inputs": [],
      "name": "URIQueryForNonexistentToken",
      "type": "error"
    },
    {
      "anonymous": false,
      "inputs": [
        {
          "indexed": true,
          "internalType": "address",
          "name": "owner",
          "type": "address"
        },
        {
          "indexed": true,
          "internalType": "address",
          "name": "approved",
          "type": "address"
        },
        {
          "indexed": true,
          "internalType": "uint256",
          "name": "tokenId",
          "type": "uint256"
        }
      ],
      "name": "Approval",
      "type": "event"
    },
    {
      "anonymous": false,
      "inputs": [
        {
          "indexed": true,
          "internalType": "address",
          "name": "owner",
          "type": "address"
        },
        {
          "indexed": true,
          "internalType": "address",
          "name": "operator",
          "type": "address"
        },
        {
          "indexed": false,
          "internalType": "bool",
          "name": "approved",
          "type": "bool"
        }
      ],
      "name": "ApprovalForAll",
      "type": "event"
    },
    {
      "anonymous": false,
      "inputs": [
        {
          "indexed": false,
          "internalType": "string",
          "name": "newBaseURI",
          "type": "string"
        }
      ],
      "name": "BaseURIChanged",
      "type": "event"
    },
    {
      "anonymous": false,
      "inputs": [
        {
          "indexed": false,
          "internalType": "uint8",
          "name": "version",
          "type": "uint8"
        }
      ],
      "name": "Initialized",
      "type": "event"
    },
    {
      "anonymous": false,
      "inputs": [
        {
          "indexed": true,
          "internalType": "bytes32",
          "name": "role",
          "type": "bytes32"
        },
        {
          "indexed": true,
          "internalType": "bytes32",
          "name": "previousAdminRole",
          "type": "bytes32"
        },
        {
          "indexed": true,
          "internalType": "bytes32",
          "name": "newAdminRole",
          "type": "bytes32"
        }
      ],
      "name": "RoleAdminChanged",
      "type": "event"
    },
    {
      "anonymous": false,
      "inputs": [
        {
          "indexed": true,
          "internalType": "bytes32",
          "name": "role",
          "type": "bytes32"
        },
        {
          "indexed": true,
          "internalType": "address",
          "name": "account",
          "type": "address"
        },
        {
          "indexed": true,
          "internalType": "address",
          "name": "sender",
          "type": "address"
        }
      ],
      "name": "RoleGranted",
      "type": "event"
    },
    {
      "anonymous": false,
      "inputs": [
        {
          "indexed": true,
          "internalType": "bytes32",
          "name": "role",
          "type": "bytes32"
        },
        {
          "indexed": true,
          "internalType": "address",
          "name": "account",
          "type": "address"
        },
        {
          "indexed": true,
          "internalType": "address",
          "name": "sender",
          "type": "address"
        }
      ],
      "name": "RoleRevoked",
      "type": "event"
    },
    {
      "anonymous": false,
      "inputs": [
        {
          "indexed": false,
          "internalType": "bytes32",
          "name": "newRoot",
          "type": "bytes32"
        }
      ],
      "name": "RootChanged",
      "type": "event"
    },
    {
      "anonymous": false,
      "inputs": [
        {
          "indexed": true,
          "internalType": "address",
          "name": "from",
          "type": "address"
        },
        {
          "indexed": true,
          "internalType": "address",
          "name": "to",
          "type": "address"
        },
        {
          "indexed": true,
          "internalType": "uint256",
          "name": "tokenId",
          "type": "uint256"
        }
      ],
      "name": "Transfer",
      "type": "event"
    },
    {
      "inputs": [],
      "name": "DEFAULT_ADMIN_ROLE",
      "outputs": [
        {
          "internalType": "bytes32",
          "name": "",
          "type": "bytes32"
        }
      ],
      "stateMutability": "view",
      "type": "function"
    },
    {
      "inputs": [],
      "name": "MINTER_ROLE",
      "outputs": [
        {
          "internalType": "bytes32",
          "name": "",
          "type": "bytes32"
        }
      ],
      "stateMutability": "view",
      "type": "function"
    },
    {
      "inputs": [
        {
          "internalType": "uint256",
          "name": "tokenId",
          "type": "uint256"
        }
      ],
      "name": "activate",
      "outputs": [
        {
          "internalType": "bool",
          "name": "",
          "type": "bool"
        }
      ],
      "stateMutability": "nonpayable",
      "type": "function"
    },
    {
      "inputs": [
        {
          "internalType": "uint256",
          "name": "tokenId",
          "type": "uint256"
        }
      ],
      "name": "activated",
      "outputs": [
        {
          "internalType": "uint256",
          "name": "",
          "type": "uint256"
        }
      ],
      "stateMutability": "view",
      "type": "function"
    },
    {
      "inputs": [
        {
          "internalType": "address",
          "name": "to",
          "type": "address"
        },
        {
          "internalType": "uint256",
          "name": "tokenId",
          "type": "uint256"
        }
      ],
      "name": "approve",
      "outputs": [],
      "stateMutability": "nonpayable",
      "type": "function"
    },
    {
      "inputs": [
        {
          "internalType": "address",
          "name": "owner",
          "type": "address"
        }
      ],
      "name": "balanceOf",
      "outputs": [
        {
          "internalType": "uint256",
          "name": "",
          "type": "uint256"
        }
      ],
      "stateMutability": "view",
      "type": "function"
    },
    {
      "inputs": [],
      "name": "baseURI",
      "outputs": [
        {
          "internalType": "string",
          "name": "",
          "type": "string"
        }
      ],
      "stateMutability": "view",
      "type": "function"
    },
    {
      "inputs": [
        {
          "internalType": "uint256",
          "name": "tokenId",
          "type": "uint256"
        }
      ],
      "name": "duration",
      "outputs": [
        {
          "internalType": "uint256",
          "name": "",
          "type": "uint256"
        }
      ],
      "stateMutability": "view",
      "type": "function"
    },
    {
      "inputs": [
        {
          "internalType": "uint256",
          "name": "tokenId",
          "type": "uint256"
        }
      ],
      "name": "expires",
      "outputs": [
        {
          "internalType": "uint256",
          "name": "",
          "type": "uint256"
        }
      ],
      "stateMutability": "view",
      "type": "function"
    },
    {
      "inputs": [
        {
          "internalType": "uint256",
          "name": "tokenId",
          "type": "uint256"
        }
      ],
      "name": "getApproved",
      "outputs": [
        {
          "internalType": "address",
          "name": "",
          "type": "address"
        }
      ],
      "stateMutability": "view",
      "type": "function"
    },
    {
      "inputs": [
        {
          "internalType": "bytes32",
          "name": "role",
          "type": "bytes32"
        }
      ],
      "name": "getRoleAdmin",
      "outputs": [
        {
          "internalType": "bytes32",
          "name": "",
          "type": "bytes32"
        }
      ],
      "stateMutability": "view",
      "type": "function"
    },
    {
      "inputs": [
        {
          "internalType": "bytes32",
          "name": "role",
          "type": "bytes32"
        },
        {
          "internalType": "address",
          "name": "account",
          "type": "address"
        }
      ],
      "name": "grantRole",
      "outputs": [],
      "stateMutability": "nonpayable",
      "type": "function"
    },
    {
      "inputs": [
        {
          "internalType": "bytes32",
          "name": "role",
          "type": "bytes32"
        },
        {
          "internalType": "address",
          "name": "account",
          "type": "address"
        }
      ],
      "name": "hasRole",
      "outputs": [
        {
          "internalType": "bool",
          "name": "",
          "type": "bool"
        }
      ],
      "stateMutability": "view",
      "type": "function"
    },
    {
      "inputs": [],
      "name": "initialize",
      "outputs": [],
      "stateMutability": "nonpayable",
      "type": "function"
    },
    {
      "inputs": [
        {
          "internalType": "address",
          "name": "owner",
          "type": "address"
        },
        {
          "internalType": "address",
          "name": "operator",
          "type": "address"
        }
      ],
      "name": "isApprovedForAll",
      "outputs": [
        {
          "internalType": "bool",
          "name": "",
          "type": "bool"
        }
      ],
      "stateMutability": "view",
      "type": "function"
    },
    {
      "inputs": [
        {
          "internalType": "address",
          "name": "addr",
          "type": "address"
        }
      ],
      "name": "lastActivated",
      "outputs": [
        {
          "internalType": "uint256",
          "name": "",
          "type": "uint256"
        }
      ],
      "stateMutability": "view",
      "type": "function"
    },
    {
      "inputs": [
        {
          "internalType": "address",
          "name": "to",
          "type": "address"
        },
        {
          "internalType": "uint256",
          "name": "duration",
          "type": "uint256"
        }
      ],
      "name": "mint",
      "outputs": [],
      "stateMutability": "nonpayable",
      "type": "function"
    },
    {
      "inputs": [
        {
          "internalType": "address[]",
          "name": "addrs",
          "type": "address[]"
        },
        {
          "internalType": "uint256[]",
          "name": "ids",
          "type": "uint256[]"
        }
      ],
      "name": "mintBatch",
      "outputs": [],
      "stateMutability": "nonpayable",
      "type": "function"
    },
    {
      "inputs": [],
      "name": "name",
      "outputs": [
        {
          "internalType": "string",
          "name": "",
          "type": "string"
        }
      ],
      "stateMutability": "view",
      "type": "function"
    },
    {
      "inputs": [
        {
          "internalType": "uint256",
          "name": "tokenId",
          "type": "uint256"
        }
      ],
      "name": "ownerOf",
      "outputs": [
        {
          "internalType": "address",
          "name": "",
          "type": "address"
        }
      ],
      "stateMutability": "view",
      "type": "function"
    },
    {
      "inputs": [
        {
          "internalType": "bytes32",
          "name": "role",
          "type": "bytes32"
        },
        {
          "internalType": "address",
          "name": "account",
          "type": "address"
        }
      ],
      "name": "renounceRole",
      "outputs": [],
      "stateMutability": "nonpayable",
      "type": "function"
    },
    {
      "inputs": [
        {
          "internalType": "bytes32",
          "name": "role",
          "type": "bytes32"
        },
        {
          "internalType": "address",
          "name": "account",
          "type": "address"
        }
      ],
      "name": "revokeRole",
      "outputs": [],
      "stateMutability": "nonpayable",
      "type": "function"
    },
    {
      "inputs": [
        {
          "internalType": "address",
          "name": "from",
          "type": "address"
        },
        {
          "internalType": "address",
          "name": "to",
          "type": "address"
        },
        {
          "internalType": "uint256",
          "name": "tokenId",
          "type": "uint256"
        }
      ],
      "name": "safeTransferFrom",
      "outputs": [],
      "stateMutability": "nonpayable",
      "type": "function"
    },
    {
      "inputs": [
        {
          "internalType": "address",
          "name": "from",
          "type": "address"
        },
        {
          "internalType": "address",
          "name": "to",
          "type": "address"
        },
        {
          "internalType": "uint256",
          "name": "tokenId",
          "type": "uint256"
        },
        {
          "internalType": "bytes",
          "name": "data",
          "type": "bytes"
        }
      ],
      "name": "safeTransferFrom",
      "outputs": [],
      "stateMutability": "nonpayable",
      "type": "function"
    },
    {
      "inputs": [
        {
          "internalType": "address",
          "name": "operator",
          "type": "address"
        },
        {
          "internalType": "bool",
          "name": "approved",
          "type": "bool"
        }
      ],
      "name": "setApprovalForAll",
      "outputs": [],
      "stateMutability": "nonpayable",
      "type": "function"
    },
    {
      "inputs": [
        {
          "internalType": "string",
          "name": "_baseURI",
          "type": "string"
        }
      ],
      "name": "setTokenURI",
      "outputs": [],
      "stateMutability": "nonpayable",
      "type": "function"
    },
    {
      "inputs": [
        {
          "internalType": "bytes4",
          "name": "interfaceId",
          "type": "bytes4"
        }
      ],
      "name": "supportsInterface",
      "outputs": [
        {
          "internalType": "bool",
          "name": "",
          "type": "bool"
        }
      ],
      "stateMutability": "view",
      "type": "function"
    },
    {
      "inputs": [],
      "name": "symbol",
      "outputs": [
        {
          "internalType": "string",
          "name": "",
          "type": "string"
        }
      ],
      "stateMutability": "view",
      "type": "function"
    },
    {
      "inputs": [
        {
          "internalType": "uint256",
          "name": "index",
          "type": "uint256"
        }
      ],
      "name": "tokenByIndex",
      "outputs": [
        {
          "internalType": "uint256",
          "name": "",
          "type": "uint256"
        }
      ],
      "stateMutability": "view",
      "type": "function"
    },
    {
      "inputs": [
        {
          "internalType": "address",
          "name": "owner",
          "type": "address"
        },
        {
          "internalType": "uint256",
          "name": "index",
          "type": "uint256"
        }
      ],
      "name": "tokenOfOwnerByIndex",
      "outputs": [
        {
          "internalType": "uint256",
          "name": "",
          "type": "uint256"
        }
      ],
      "stateMutability": "view",
      "type": "function"
    },
    {
      "inputs": [
        {
          "internalType": "uint256",
          "name": "tokenId",
          "type": "uint256"
        }
      ],
      "name": "tokenURI",
      "outputs": [
        {
          "internalType": "string",
          "name": "",
          "type": "string"
        }
      ],
      "stateMutability": "view",
      "type": "function"
    },
    {
      "inputs": [],
      "name": "totalSupply",
      "outputs": [
        {
          "internalType": "uint256",
          "name": "",
          "type": "uint256"
        }
      ],
      "stateMutability": "view",
      "type": "function"
    },
    {
      "inputs": [
        {
          "internalType": "address",
          "name": "from",
          "type": "address"
        },
        {
          "internalType": "address",
          "name": "to",
          "type": "address"
        },
        {
          "internalType": "uint256",
          "name": "tokenId",
          "type": "uint256"
        }
      ],
      "name": "transferFrom",
      "outputs": [],
      "stateMutability": "nonpayable",
      "type": "function"
    }
  ],
  "bytecode": "0x608060405234801561001057600080fd5b50614c9b806100206000396000f3fe608060405234801561001057600080fd5b50600436106101fb5760003560e01c80636352211e1161011a578063a22cb465116100ad578063cb52c8231161007c578063cb52c8231461060c578063d53913931461063c578063d547741f1461065a578063e0df5b6f14610676578063e985e9c514610692576101fb565b8063a22cb46514610574578063b260c42a14610590578063b88d4fde146105c0578063c87b56dd146105dc576101fb565b80638129fc1c116100e95780638129fc1c146104fe57806391d148541461050857806395d89b4114610538578063a217fddf14610556576101fb565b80636352211e146104645780636c0360eb1461049457806370a08231146104b25780637c88e3d9146104e2576101fb565b80632f745c591161019257806340c10f191161016157806340c10f19146103cc57806342842e0e146103e85780634f6ccce71461040457806355c034de14610434576101fb565b80632f745c591461032057806332fad9d81461035057806335bc54621461038057806336568abe146103b0576101fb565b806318160ddd116101ce57806318160ddd1461029a57806323b872dd146102b8578063248a9ca3146102d45780632f2ff15d14610304576101fb565b806301ffc9a71461020057806306fdde0314610230578063081812fc1461024e578063095ea7b31461027e575b600080fd5b61021a600480360381019061021591906131d1565b6106c2565b6040516102279190613219565b60405180910390f35b6102386107a4565b60405161024591906132c4565b60405180910390f35b6102686004803603810190610263919061331c565b610836565b604051610275919061338a565b60405180910390f35b610298600480360381019061029391906133d1565b61087c565b005b6102a2610993565b6040516102af9190613420565b60405180910390f35b6102d260048036038101906102cd919061343b565b6109a0565b005b6102ee60048036038101906102e991906134c4565b610a00565b6040516102fb9190613500565b60405180910390f35b61031e6004803603810190610319919061351b565b610a20565b005b61033a600480360381019061033591906133d1565b610a41565b6040516103479190613420565b60405180910390f35b61036a6004803603810190610365919061331c565b610ae6565b6040516103779190613420565b60405180910390f35b61039a6004803603810190610395919061331c565b610b03565b6040516103a79190613420565b60405180910390f35b6103ca60048036038101906103c5919061351b565b610b20565b005b6103e660048036038101906103e191906133d1565b610ba3565b005b61040260048036038101906103fd919061343b565b610c4b565b005b61041e6004803603810190610419919061331c565b610c6b565b60405161042b9190613420565b60405180910390f35b61044e6004803603810190610449919061355b565b610cdc565b60405161045b9190613420565b60405180910390f35b61047e6004803603810190610479919061331c565b610d25565b60405161048b919061338a565b60405180910390f35b61049c610dab565b6040516104a991906132c4565b60405180910390f35b6104cc60048036038101906104c7919061355b565b610e39565b6040516104d99190613420565b60405180910390f35b6104fc60048036038101906104f79190613643565b610ef0565b005b610506611014565b005b610522600480360381019061051d919061351b565b61124c565b60405161052f9190613219565b60405180910390f35b6105406112b7565b60405161054d91906132c4565b60405180910390f35b61055e611349565b60405161056b9190613500565b60405180910390f35b61058e600480360381019061058991906136f0565b611350565b005b6105aa60048036038101906105a5919061331c565b611366565b6040516105b79190613219565b60405180910390f35b6105da60048036038101906105d59190613860565b61147c565b005b6105f660048036038101906105f1919061331c565b6114de565b60405161060391906132c4565b60405180910390f35b6106266004803603810190610621919061331c565b61157d565b6040516106339190613420565b60405180910390f35b6106446115dc565b6040516106519190613500565b60405180910390f35b610674600480360381019061066f919061351b565b611600565b005b610690600480360381019061068b9190613984565b611621565b005b6106ac60048036038101906106a791906139cd565b6116b7565b6040516106b99190613219565b60405180910390f35b60007f79f154c4000000000000000000000000000000000000000000000000000000007bffffffffffffffffffffffffffffffffffffffffffffffffffffffff1916827bffffffffffffffffffffffffffffffffffffffffffffffffffffffff1916148061078d57507fda8def73000000000000000000000000000000000000000000000000000000007bffffffffffffffffffffffffffffffffffffffffffffffffffffffff1916827bffffffffffffffffffffffffffffffffffffffffffffffffffffffff1916145b8061079d575061079c8261174b565b5b9050919050565b6060606580546107b390613a3c565b80601f01602080910402602001604051908101604052809291908181526020018280546107df90613a3c565b801561082c5780601f106108015761010080835404028352916020019161082c565b820191906000526020600020905b81548152906001019060200180831161080f57829003601f168201915b5050505050905090565b6000610841826117c5565b6069600083815260200190815260200160002060009054906101000a900473ffffffffffffffffffffffffffffffffffffffff169050919050565b600061088782610d25565b90508073ffffffffffffffffffffffffffffffffffffffff168373ffffffffffffffffffffffffffffffffffffffff16036108f7576040517f08c379a00000000000000000000000000000000000000000000000000000000081526004016108ee90613adf565b60405180910390fd5b8073ffffffffffffffffffffffffffffffffffffffff16610916611810565b73ffffffffffffffffffffffffffffffffffffffff16148061094557506109448161093f611810565b6116b7565b5b610984576040517f08c379a000000000000000000000000000000000000000000000000000000000815260040161097b90613b71565b60405180910390fd5b61098e8383611818565b505050565b6000609980549050905090565b6109b16109ab611810565b826118d1565b6109f0576040517f08c379a00000000000000000000000000000000000000000000000000000000081526004016109e790613c03565b60405180910390fd5b6109fb838383611966565b505050565b600060c96000838152602001908152602001600020600101549050919050565b610a2982610a00565b610a3281611c5b565b610a3c8383611c6f565b505050565b6000610a4c83610e39565b8210610a8d576040517f08c379a0000000000000000000000000000000000000000000000000000000008152600401610a8490613c95565b60405180910390fd5b609760008473ffffffffffffffffffffffffffffffffffffffff1673ffffffffffffffffffffffffffffffffffffffff168152602001908152602001600020600083815260200190815260200160002054905092915050565b600060fe6000838152602001908152602001600020549050919050565b600060ff6000838152602001908152602001600020549050919050565b610b28611810565b73ffffffffffffffffffffffffffffffffffffffff168173ffffffffffffffffffffffffffffffffffffffff1614610b95576040517f08c379a0000000000000000000000000000000000000000000000000000000008152600401610b8c90613d27565b60405180910390fd5b610b9f8282611d50565b5050565b610bcd7ff0887ba65ee2024ea881d91b74c2450ef19e1557f03bed3ea9f16b037cbe2dc93361124c565b610c0c576040517f08c379a0000000000000000000000000000000000000000000000000000000008152600401610c0390613d93565b60405180910390fd5b6000610c1860fb611e32565b9050610c248382611e40565b8160ff600083815260200190815260200160002081905550610c4660fb611e5e565b505050565b610c668383836040518060200160405280600081525061147c565b505050565b6000610c75610993565b8210610cb6576040517f08c379a0000000000000000000000000000000000000000000000000000000008152600401610cad90613e25565b60405180910390fd5b60998281548110610cca57610cc9613e45565b5b90600052602060002001549050919050565b600060fd60008373ffffffffffffffffffffffffffffffffffffffff1673ffffffffffffffffffffffffffffffffffffffff168152602001908152602001600020549050919050565b600080610d3183611e74565b9050600073ffffffffffffffffffffffffffffffffffffffff168173ffffffffffffffffffffffffffffffffffffffff1603610da2576040517f08c379a0000000000000000000000000000000000000000000000000000000008152600401610d9990613ec0565b60405180910390fd5b80915050919050565b60fc8054610db890613a3c565b80601f0160208091040260200160405190810160405280929190818152602001828054610de490613a3c565b8015610e315780601f10610e0657610100808354040283529160200191610e31565b820191906000526020600020905b815481529060010190602001808311610e1457829003601f168201915b505050505081565b60008073ffffffffffffffffffffffffffffffffffffffff168273ffffffffffffffffffffffffffffffffffffffff1603610ea9576040517f08c379a0000000000000000000000000000000000000000000000000000000008152600401610ea090613f52565b60405180910390fd5b606860008373ffffffffffffffffffffffffffffffffffffffff1673ffffffffffffffffffffffffffffffffffffffff168152602001908152602001600020549050919050565b818190508484905014610f38576040517f08c379a0000000000000000000000000000000000000000000000000000000008152600401610f2f90613fbe565b60405180910390fd5b610f627ff0887ba65ee2024ea881d91b74c2450ef19e1557f03bed3ea9f16b037cbe2dc93361124c565b610fa1576040517f08c379a0000000000000000000000000000000000000000000000000000000008152600401610f9890613d93565b60405180910390fd5b60005b8484905081101561100d57610ff9858583818110610fc557610fc4613e45565b5b9050602002016020810190610fda919061355b565b848484818110610fed57610fec613e45565b5b90506020020135611e40565b600181611006919061400d565b9050610fa4565b5050505050565b60008060019054906101000a900460ff161590508080156110455750600160008054906101000a900460ff1660ff16105b80611072575061105430611eb1565b1580156110715750600160008054906101000a900460ff1660ff16145b5b6110b1576040517f08c379a00000000000000000000000000000000000000000000000000000000081526004016110a8906140b3565b60405180910390fd5b60016000806101000a81548160ff021916908360ff16021790555080156110ee576001600060016101000a81548160ff0219169083151502179055505b6111626040518060400160405280600c81526020017f5370616365506173734e465400000000000000000000000000000000000000008152506040518060400160405280600481526020017f5041535300000000000000000000000000000000000000000000000000000000815250611ed4565b61116a611f31565b6111776000801b33611f82565b6111a17ff0887ba65ee2024ea881d91b74c2450ef19e1557f03bed3ea9f16b037cbe2dc933611f82565b6040518060400160405280601e81526020017f68747470733a2f2f64616f73706163652e6f6e652f6e66742f646174612f000081525060fc90816111e5919061427f565b506111f060fb611e5e565b80156112495760008060016101000a81548160ff0219169083151502179055507f7f26b83ff96e1f2b6a682f133852f6798a09c465da95921460cefb384740249860016040516112409190614399565b60405180910390a15b50565b600060c9600084815260200190815260200160002060000160008373ffffffffffffffffffffffffffffffffffffffff1673ffffffffffffffffffffffffffffffffffffffff16815260200190815260200160002060009054906101000a900460ff16905092915050565b6060606680546112c690613a3c565b80601f01602080910402602001604051908101604052809291908181526020018280546112f290613a3c565b801561133f5780601f106113145761010080835404028352916020019161133f565b820191906000526020600020905b81548152906001019060200180831161132257829003601f168201915b5050505050905090565b6000801b81565b61136261135b611810565b8383611f90565b5050565b60006113927ff0887ba65ee2024ea881d91b74c2450ef19e1557f03bed3ea9f16b037cbe2dc93361124c565b806113d057503373ffffffffffffffffffffffffffffffffffffffff166113b883610d25565b73ffffffffffffffffffffffffffffffffffffffff16145b61140f576040517f08c379a000000000000000000000000000000000000000000000000000000000815260040161140690614426565b60405180910390fd5b4260fe6000848152602001908152602001600020819055508160fd600061143585610d25565b73ffffffffffffffffffffffffffffffffffffffff1673ffffffffffffffffffffffffffffffffffffffff1681526020019081526020016000208190555060019050919050565b61148d611487611810565b836118d1565b6114cc576040517f08c379a00000000000000000000000000000000000000000000000000000000081526004016114c390613c03565b60405180910390fd5b6114d8848484846120fc565b50505050565b60606114e982612158565b61151f576040517fa14c4b5000000000000000000000000000000000000000000000000000000000815260040160405180910390fd5b600060fc805461152e90613a3c565b90500361154a5760405180602001604052806000815250611576565b60fc61155583612199565b604051602001611566929190614505565b6040516020818303038152906040525b9050919050565b60008060fe600084815260200190815260200160002054036115a257600090506115d7565b60ff60008381526020019081526020016000205460fe6000848152602001908152602001600020546115d4919061400d565b90505b919050565b7ff0887ba65ee2024ea881d91b74c2450ef19e1557f03bed3ea9f16b037cbe2dc981565b61160982610a00565b61161281611c5b565b61161c8383611d50565b505050565b61162e6000801b3361124c565b61166d576040517f08c379a000000000000000000000000000000000000000000000000000000000815260040161166490613d93565b60405180910390fd5b8060fc908161167c919061427f565b507f5411e8ebf1636d9e83d5fc4900bf80cbac82e8790da2a4c94db4895e889eedf6816040516116ac91906132c4565b60405180910390a150565b6000606a60008473ffffffffffffffffffffffffffffffffffffffff1673ffffffffffffffffffffffffffffffffffffffff16815260200190815260200160002060008373ffffffffffffffffffffffffffffffffffffffff1673ffffffffffffffffffffffffffffffffffffffff16815260200190815260200160002060009054906101000a900460ff16905092915050565b60007f7965db0b000000000000000000000000000000000000000000000000000000007bffffffffffffffffffffffffffffffffffffffffffffffffffffffff1916827bffffffffffffffffffffffffffffffffffffffffffffffffffffffff191614806117be57506117bd82612267565b5b9050919050565b6117ce81612158565b61180d576040517f08c379a000000000000000000000000000000000000000000000000000000000815260040161180490613ec0565b60405180910390fd5b50565b600033905090565b816069600083815260200190815260200160002060006101000a81548173ffffffffffffffffffffffffffffffffffffffff021916908373ffffffffffffffffffffffffffffffffffffffff160217905550808273ffffffffffffffffffffffffffffffffffffffff1661188b83610d25565b73ffffffffffffffffffffffffffffffffffffffff167f8c5be1e5ebec7d5bd14f71427d1e84f3dd0314c0f7b2291e5b200ac8c7c3b92560405160405180910390a45050565b6000806118dd83610d25565b90508073ffffffffffffffffffffffffffffffffffffffff168473ffffffffffffffffffffffffffffffffffffffff16148061191f575061191e81856116b7565b5b8061195d57508373ffffffffffffffffffffffffffffffffffffffff1661194584610836565b73ffffffffffffffffffffffffffffffffffffffff16145b91505092915050565b8273ffffffffffffffffffffffffffffffffffffffff1661198682610d25565b73ffffffffffffffffffffffffffffffffffffffff16146119dc576040517f08c379a00000000000000000000000000000000000000000000000000000000081526004016119d39061459b565b60405180910390fd5b600073ffffffffffffffffffffffffffffffffffffffff168273ffffffffffffffffffffffffffffffffffffffff1603611a4b576040517f08c379a0000000000000000000000000000000000000000000000000000000008152600401611a429061462d565b60405180910390fd5b611a568383836122e1565b8273ffffffffffffffffffffffffffffffffffffffff16611a7682610d25565b73ffffffffffffffffffffffffffffffffffffffff1614611acc576040517f08c379a0000000000000000000000000000000000000000000000000000000008152600401611ac39061459b565b60405180910390fd5b6069600082815260200190815260200160002060006101000a81549073ffffffffffffffffffffffffffffffffffffffff02191690556001606860008573ffffffffffffffffffffffffffffffffffffffff1673ffffffffffffffffffffffffffffffffffffffff168152602001908152602001600020600082825403925050819055506001606860008473ffffffffffffffffffffffffffffffffffffffff1673ffffffffffffffffffffffffffffffffffffffff16815260200190815260200160002060008282540192505081905550816067600083815260200190815260200160002060006101000a81548173ffffffffffffffffffffffffffffffffffffffff021916908373ffffffffffffffffffffffffffffffffffffffff160217905550808273ffffffffffffffffffffffffffffffffffffffff168473ffffffffffffffffffffffffffffffffffffffff167fddf252ad1be2c89b69c2b068fc378daa952ba7f163c4a11628f55a4df523b3ef60405160405180910390a4611c56838383612348565b505050565b611c6c81611c67611810565b61234d565b50565b611c79828261124c565b611d4c57600160c9600084815260200190815260200160002060000160008373ffffffffffffffffffffffffffffffffffffffff1673ffffffffffffffffffffffffffffffffffffffff16815260200190815260200160002060006101000a81548160ff021916908315150217905550611cf1611810565b73ffffffffffffffffffffffffffffffffffffffff168173ffffffffffffffffffffffffffffffffffffffff16837f2f8788117e7eff1d82e926ec794901d17c78024a50270940304540a733656f0d60405160405180910390a45b5050565b611d5a828261124c565b15611e2e57600060c9600084815260200190815260200160002060000160008373ffffffffffffffffffffffffffffffffffffffff1673ffffffffffffffffffffffffffffffffffffffff16815260200190815260200160002060006101000a81548160ff021916908315150217905550611dd3611810565b73ffffffffffffffffffffffffffffffffffffffff168173ffffffffffffffffffffffffffffffffffffffff16837ff6391f5c32d9c69d2a47ea670b442974b53935d1edc7fd64eb21e047a839171b60405160405180910390a45b5050565b600081600001549050919050565b611e5a8282604051806020016040528060008152506123d2565b5050565b6001816000016000828254019250508190555050565b60006067600083815260200190815260200160002060009054906101000a900473ffffffffffffffffffffffffffffffffffffffff169050919050565b6000808273ffffffffffffffffffffffffffffffffffffffff163b119050919050565b600060019054906101000a900460ff16611f23576040517f08c379a0000000000000000000000000000000000000000000000000000000008152600401611f1a906146bf565b60405180910390fd5b611f2d828261242d565b5050565b600060019054906101000a900460ff16611f80576040517f08c379a0000000000000000000000000000000000000000000000000000000008152600401611f77906146bf565b60405180910390fd5b565b611f8c8282611c6f565b5050565b8173ffffffffffffffffffffffffffffffffffffffff168373ffffffffffffffffffffffffffffffffffffffff1603611ffe576040517f08c379a0000000000000000000000000000000000000000000000000000000008152600401611ff59061472b565b60405180910390fd5b80606a60008573ffffffffffffffffffffffffffffffffffffffff1673ffffffffffffffffffffffffffffffffffffffff16815260200190815260200160002060008473ffffffffffffffffffffffffffffffffffffffff1673ffffffffffffffffffffffffffffffffffffffff16815260200190815260200160002060006101000a81548160ff0219169083151502179055508173ffffffffffffffffffffffffffffffffffffffff168373ffffffffffffffffffffffffffffffffffffffff167f17307eab39ab6107e8899845ad3d59bd9653f200f220920489ca2b5937696c31836040516120ef9190613219565b60405180910390a3505050565b612107848484611966565b612113848484846124a0565b612152576040517f08c379a0000000000000000000000000000000000000000000000000000000008152600401612149906147bd565b60405180910390fd5b50505050565b60008073ffffffffffffffffffffffffffffffffffffffff1661217a83611e74565b73ffffffffffffffffffffffffffffffffffffffff1614159050919050565b6060600060016121a884612627565b01905060008167ffffffffffffffff8111156121c7576121c6613735565b5b6040519080825280601f01601f1916602001820160405280156121f95781602001600182028036833780820191505090505b509050600082602001820190505b60011561225c578080600190039150507f3031323334353637383961626364656600000000000000000000000000000000600a86061a8153600a85816122505761224f6147dd565b5b04945060008503612207575b819350505050919050565b60007f780e9d63000000000000000000000000000000000000000000000000000000007bffffffffffffffffffffffffffffffffffffffffffffffffffffffff1916827bffffffffffffffffffffffffffffffffffffffffffffffffffffffff191614806122da57506122d98261277a565b5b9050919050565b6122ec83838361285c565b600060fe6000838152602001908152602001600020541115612343576040517f08c379a000000000000000000000000000000000000000000000000000000000815260040161233a9061487e565b60405180910390fd5b505050565b505050565b612357828261124c565b6123ce576123648161296e565b6123728360001c602061299b565b604051602001612383929190614936565b6040516020818303038152906040526040517f08c379a00000000000000000000000000000000000000000000000000000000081526004016123c591906132c4565b60405180910390fd5b5050565b6123dc8383612bd7565b6123e960008484846124a0565b612428576040517f08c379a000000000000000000000000000000000000000000000000000000000815260040161241f906147bd565b60405180910390fd5b505050565b600060019054906101000a900460ff1661247c576040517f08c379a0000000000000000000000000000000000000000000000000000000008152600401612473906146bf565b60405180910390fd5b816065908161248b919061427f565b50806066908161249b919061427f565b505050565b60006124c18473ffffffffffffffffffffffffffffffffffffffff16611eb1565b1561261a578373ffffffffffffffffffffffffffffffffffffffff1663150b7a026124ea611810565b8786866040518563ffffffff1660e01b815260040161250c94939291906149c5565b6020604051808303816000875af192505050801561254857506040513d601f19601f820116820180604052508101906125459190614a26565b60015b6125ca573d8060008114612578576040519150601f19603f3d011682016040523d82523d6000602084013e61257d565b606091505b5060008151036125c2576040517f08c379a00000000000000000000000000000000000000000000000000000000081526004016125b9906147bd565b60405180910390fd5b805181602001fd5b63150b7a0260e01b7bffffffffffffffffffffffffffffffffffffffffffffffffffffffff1916817bffffffffffffffffffffffffffffffffffffffffffffffffffffffff19161491505061261f565b600190505b949350505050565b600080600090507a184f03e93ff9f4daa797ed6e38ed64bf6a1f0100000000000000008310612685577a184f03e93ff9f4daa797ed6e38ed64bf6a1f010000000000000000838161267b5761267a6147dd565b5b0492506040810190505b6d04ee2d6d415b85acef810000000083106126c2576d04ee2d6d415b85acef810000000083816126b8576126b76147dd565b5b0492506020810190505b662386f26fc1000083106126f157662386f26fc1000083816126e7576126e66147dd565b5b0492506010810190505b6305f5e100831061271a576305f5e10083816127105761270f6147dd565b5b0492506008810190505b612710831061273f576127108381612735576127346147dd565b5b0492506004810190505b606483106127625760648381612758576127576147dd565b5b0492506002810190505b600a8310612771576001810190505b80915050919050565b60007f80ac58cd000000000000000000000000000000000000000000000000000000007bffffffffffffffffffffffffffffffffffffffffffffffffffffffff1916827bffffffffffffffffffffffffffffffffffffffffffffffffffffffff1916148061284557507f5b5e139f000000000000000000000000000000000000000000000000000000007bffffffffffffffffffffffffffffffffffffffffffffffffffffffff1916827bffffffffffffffffffffffffffffffffffffffffffffffffffffffff1916145b80612855575061285482612df0565b5b9050919050565b612867838383612e5a565b600073ffffffffffffffffffffffffffffffffffffffff168373ffffffffffffffffffffffffffffffffffffffff16036128a9576128a481612e5f565b6128e8565b8173ffffffffffffffffffffffffffffffffffffffff168373ffffffffffffffffffffffffffffffffffffffff16146128e7576128e68382612ea8565b5b5b600073ffffffffffffffffffffffffffffffffffffffff168273ffffffffffffffffffffffffffffffffffffffff160361292a5761292581613015565b612969565b8273ffffffffffffffffffffffffffffffffffffffff168273ffffffffffffffffffffffffffffffffffffffff16146129685761296782826130e6565b5b5b505050565b60606129948273ffffffffffffffffffffffffffffffffffffffff16601460ff1661299b565b9050919050565b6060600060028360026129ae9190614a53565b6129b8919061400d565b67ffffffffffffffff8111156129d1576129d0613735565b5b6040519080825280601f01601f191660200182016040528015612a035781602001600182028036833780820191505090505b5090507f300000000000000000000000000000000000000000000000000000000000000081600081518110612a3b57612a3a613e45565b5b60200101907effffffffffffffffffffffffffffffffffffffffffffffffffffffffffffff1916908160001a9053507f780000000000000000000000000000000000000000000000000000000000000081600181518110612a9f57612a9e613e45565b5b60200101907effffffffffffffffffffffffffffffffffffffffffffffffffffffffffffff1916908160001a90535060006001846002612adf9190614a53565b612ae9919061400d565b90505b6001811115612b89577f3031323334353637383961626364656600000000000000000000000000000000600f861660108110612b2b57612b2a613e45565b5b1a60f81b828281518110612b4257612b41613e45565b5b60200101907effffffffffffffffffffffffffffffffffffffffffffffffffffffffffffff1916908160001a905350600485901c945080612b8290614a95565b9050612aec565b5060008414612bcd576040517f08c379a0000000000000000000000000000000000000000000000000000000008152600401612bc490614b0a565b60405180910390fd5b8091505092915050565b600073ffffffffffffffffffffffffffffffffffffffff168273ffffffffffffffffffffffffffffffffffffffff1603612c46576040517f08c379a0000000000000000000000000000000000000000000000000000000008152600401612c3d90614b76565b60405180910390fd5b612c4f81612158565b15612c8f576040517f08c379a0000000000000000000000000000000000000000000000000000000008152600401612c8690614be2565b60405180910390fd5b612c9b600083836122e1565b612ca481612158565b15612ce4576040517f08c379a0000000000000000000000000000000000000000000000000000000008152600401612cdb90614be2565b60405180910390fd5b6001606860008473ffffffffffffffffffffffffffffffffffffffff1673ffffffffffffffffffffffffffffffffffffffff16815260200190815260200160002060008282540192505081905550816067600083815260200190815260200160002060006101000a81548173ffffffffffffffffffffffffffffffffffffffff021916908373ffffffffffffffffffffffffffffffffffffffff160217905550808273ffffffffffffffffffffffffffffffffffffffff16600073ffffffffffffffffffffffffffffffffffffffff167fddf252ad1be2c89b69c2b068fc378daa952ba7f163c4a11628f55a4df523b3ef60405160405180910390a4612dec60008383612348565b5050565b60007f01ffc9a7000000000000000000000000000000000000000000000000000000007bffffffffffffffffffffffffffffffffffffffffffffffffffffffff1916827bffffffffffffffffffffffffffffffffffffffffffffffffffffffff1916149050919050565b505050565b609980549050609a600083815260200190815260200160002081905550609981908060018154018082558091505060019003906000526020600020016000909190919091505550565b60006001612eb584610e39565b612ebf9190614c02565b9050600060986000848152602001908152602001600020549050818114612fa4576000609760008673ffffffffffffffffffffffffffffffffffffffff1673ffffffffffffffffffffffffffffffffffffffff168152602001908152602001600020600084815260200190815260200160002054905080609760008773ffffffffffffffffffffffffffffffffffffffff1673ffffffffffffffffffffffffffffffffffffffff168152602001908152602001600020600084815260200190815260200160002081905550816098600083815260200190815260200160002081905550505b6098600084815260200190815260200160002060009055609760008573ffffffffffffffffffffffffffffffffffffffff1673ffffffffffffffffffffffffffffffffffffffff16815260200190815260200160002060008381526020019081526020016000206000905550505050565b600060016099805490506130299190614c02565b90506000609a600084815260200190815260200160002054905060006099838154811061305957613058613e45565b5b90600052602060002001549050806099838154811061307b5761307a613e45565b5b906000526020600020018190555081609a600083815260200190815260200160002081905550609a60008581526020019081526020016000206000905560998054806130ca576130c9614c36565b5b6001900381819060005260206000200160009055905550505050565b60006130f183610e39565b905081609760008573ffffffffffffffffffffffffffffffffffffffff1673ffffffffffffffffffffffffffffffffffffffff168152602001908152602001600020600083815260200190815260200160002081905550806098600084815260200190815260200160002081905550505050565b6000604051905090565b600080fd5b600080fd5b60007fffffffff0000000000000000000000000000000000000000000000000000000082169050919050565b6131ae81613179565b81146131b957600080fd5b50565b6000813590506131cb816131a5565b92915050565b6000602082840312156131e7576131e661316f565b5b60006131f5848285016131bc565b91505092915050565b60008115159050919050565b613213816131fe565b82525050565b600060208201905061322e600083018461320a565b92915050565b600081519050919050565b600082825260208201905092915050565b60005b8381101561326e578082015181840152602081019050613253565b60008484015250505050565b6000601f19601f8301169050919050565b600061329682613234565b6132a0818561323f565b93506132b0818560208601613250565b6132b98161327a565b840191505092915050565b600060208201905081810360008301526132de818461328b565b905092915050565b6000819050919050565b6132f9816132e6565b811461330457600080fd5b50565b600081359050613316816132f0565b92915050565b6000602082840312156133325761333161316f565b5b600061334084828501613307565b91505092915050565b600073ffffffffffffffffffffffffffffffffffffffff82169050919050565b600061337482613349565b9050919050565b61338481613369565b82525050565b600060208201905061339f600083018461337b565b92915050565b6133ae81613369565b81146133b957600080fd5b50565b6000813590506133cb816133a5565b92915050565b600080604083850312156133e8576133e761316f565b5b60006133f6858286016133bc565b925050602061340785828601613307565b9150509250929050565b61341a816132e6565b82525050565b60006020820190506134356000830184613411565b92915050565b6000806000606084860312156134545761345361316f565b5b6000613462868287016133bc565b9350506020613473868287016133bc565b925050604061348486828701613307565b9150509250925092565b6000819050919050565b6134a18161348e565b81146134ac57600080fd5b50565b6000813590506134be81613498565b92915050565b6000602082840312156134da576134d961316f565b5b60006134e8848285016134af565b91505092915050565b6134fa8161348e565b82525050565b600060208201905061351560008301846134f1565b92915050565b600080604083850312156135325761353161316f565b5b6000613540858286016134af565b9250506020613551858286016133bc565b9150509250929050565b6000602082840312156135715761357061316f565b5b600061357f848285016133bc565b91505092915050565b600080fd5b600080fd5b600080fd5b60008083601f8401126135ad576135ac613588565b5b8235905067ffffffffffffffff8111156135ca576135c961358d565b5b6020830191508360208202830111156135e6576135e5613592565b5b9250929050565b60008083601f84011261360357613602613588565b5b8235905067ffffffffffffffff8111156136205761361f61358d565b5b60208301915083602082028301111561363c5761363b613592565b5b9250929050565b6000806000806040858703121561365d5761365c61316f565b5b600085013567ffffffffffffffff81111561367b5761367a613174565b5b61368787828801613597565b9450945050602085013567ffffffffffffffff8111156136aa576136a9613174565b5b6136b6878288016135ed565b925092505092959194509250565b6136cd816131fe565b81146136d857600080fd5b50565b6000813590506136ea816136c4565b92915050565b600080604083850312156137075761370661316f565b5b6000613715858286016133bc565b9250506020613726858286016136db565b9150509250929050565b600080fd5b7f4e487b7100000000000000000000000000000000000000000000000000000000600052604160045260246000fd5b61376d8261327a565b810181811067ffffffffffffffff8211171561378c5761378b613735565b5b80604052505050565b600061379f613165565b90506137ab8282613764565b919050565b600067ffffffffffffffff8211156137cb576137ca613735565b5b6137d48261327a565b9050602081019050919050565b82818337600083830152505050565b60006138036137fe846137b0565b613795565b90508281526020810184848401111561381f5761381e613730565b5b61382a8482856137e1565b509392505050565b600082601f83011261384757613846613588565b5b81356138578482602086016137f0565b91505092915050565b6000806000806080858703121561387a5761387961316f565b5b6000613888878288016133bc565b9450506020613899878288016133bc565b93505060406138aa87828801613307565b925050606085013567ffffffffffffffff8111156138cb576138ca613174565b5b6138d787828801613832565b91505092959194509250565b600067ffffffffffffffff8211156138fe576138fd613735565b5b6139078261327a565b9050602081019050919050565b6000613927613922846138e3565b613795565b90508281526020810184848401111561394357613942613730565b5b61394e8482856137e1565b509392505050565b600082601f83011261396b5761396a613588565b5b813561397b848260208601613914565b91505092915050565b60006020828403121561399a5761399961316f565b5b600082013567ffffffffffffffff8111156139b8576139b7613174565b5b6139c484828501613956565b91505092915050565b600080604083850312156139e4576139e361316f565b5b60006139f2858286016133bc565b9250506020613a03858286016133bc565b9150509250929050565b7f4e487b7100000000000000000000000000000000000000000000000000000000600052602260045260246000fd5b60006002820490506001821680613a5457607f821691505b602082108103613a6757613a66613a0d565b5b50919050565b7f4552433732313a20617070726f76616c20746f2063757272656e74206f776e6560008201527f7200000000000000000000000000000000000000000000000000000000000000602082015250565b6000613ac960218361323f565b9150613ad482613a6d565b604082019050919050565b60006020820190508181036000830152613af881613abc565b9050919050565b7f4552433732313a20617070726f76652063616c6c6572206973206e6f7420746f60008201527f6b656e206f776e6572206f7220617070726f76656420666f7220616c6c000000602082015250565b6000613b5b603d8361323f565b9150613b6682613aff565b604082019050919050565b60006020820190508181036000830152613b8a81613b4e565b9050919050565b7f4552433732313a2063616c6c6572206973206e6f7420746f6b656e206f776e6560008201527f72206f7220617070726f76656400000000000000000000000000000000000000602082015250565b6000613bed602d8361323f565b9150613bf882613b91565b604082019050919050565b60006020820190508181036000830152613c1c81613be0565b9050919050565b7f455243373231456e756d657261626c653a206f776e657220696e646578206f7560008201527f74206f6620626f756e6473000000000000000000000000000000000000000000602082015250565b6000613c7f602b8361323f565b9150613c8a82613c23565b604082019050919050565b60006020820190508181036000830152613cae81613c72565b9050919050565b7f416363657373436f6e74726f6c3a2063616e206f6e6c792072656e6f756e636560008201527f20726f6c657320666f722073656c660000000000000000000000000000000000602082015250565b6000613d11602f8361323f565b9150613d1c82613cb5565b604082019050919050565b60006020820190508181036000830152613d4081613d04565b9050919050565b7f63616c6c6572206973206e6f742061206d696e74657200000000000000000000600082015250565b6000613d7d60168361323f565b9150613d8882613d47565b602082019050919050565b60006020820190508181036000830152613dac81613d70565b9050919050565b7f455243373231456e756d657261626c653a20676c6f62616c20696e646578206f60008201527f7574206f6620626f756e64730000000000000000000000000000000000000000602082015250565b6000613e0f602c8361323f565b9150613e1a82613db3565b604082019050919050565b60006020820190508181036000830152613e3e81613e02565b9050919050565b7f4e487b7100000000000000000000000000000000000000000000000000000000600052603260045260246000fd5b7f4552433732313a20696e76616c696420746f6b656e2049440000000000000000600082015250565b6000613eaa60188361323f565b9150613eb582613e74565b602082019050919050565b60006020820190508181036000830152613ed981613e9d565b9050919050565b7f4552433732313a2061646472657373207a65726f206973206e6f74206120766160008201527f6c6964206f776e65720000000000000000000000000000000000000000000000602082015250565b6000613f3c60298361323f565b9150613f4782613ee0565b604082019050919050565b60006020820190508181036000830152613f6b81613f2f565b9050919050565b7f696e76616c696420646174610000000000000000000000000000000000000000600082015250565b6000613fa8600c8361323f565b9150613fb382613f72565b602082019050919050565b60006020820190508181036000830152613fd781613f9b565b9050919050565b7f4e487b7100000000000000000000000000000000000000000000000000000000600052601160045260246000fd5b6000614018826132e6565b9150614023836132e6565b925082820190508082111561403b5761403a613fde565b5b92915050565b7f496e697469616c697a61626c653a20636f6e747261637420697320616c72656160008201527f647920696e697469616c697a6564000000000000000000000000000000000000602082015250565b600061409d602e8361323f565b91506140a882614041565b604082019050919050565b600060208201905081810360008301526140cc81614090565b9050919050565b60008190508160005260206000209050919050565b60006020601f8301049050919050565b600082821b905092915050565b6000600883026141357fffffffffffffffffffffffffffffffffffffffffffffffffffffffffffffffff826140f8565b61413f86836140f8565b95508019841693508086168417925050509392505050565b6000819050919050565b600061417c614177614172846132e6565b614157565b6132e6565b9050919050565b6000819050919050565b61419683614161565b6141aa6141a282614183565b848454614105565b825550505050565b600090565b6141bf6141b2565b6141ca81848461418d565b505050565b5b818110156141ee576141e36000826141b7565b6001810190506141d0565b5050565b601f82111561423357614204816140d3565b61420d846140e8565b8101602085101561421c578190505b614230614228856140e8565b8301826141cf565b50505b505050565b600082821c905092915050565b600061425660001984600802614238565b1980831691505092915050565b600061426f8383614245565b9150826002028217905092915050565b61428882613234565b67ffffffffffffffff8111156142a1576142a0613735565b5b6142ab8254613a3c565b6142b68282856141f2565b600060209050601f8311600181146142e957600084156142d7578287015190505b6142e18582614263565b865550614349565b601f1984166142f7866140d3565b60005b8281101561431f578489015182556001820191506020850194506020810190506142fa565b8683101561433c5784890151614338601f891682614245565b8355505b6001600288020188555050505b505050505050565b6000819050919050565b600060ff82169050919050565b600061438361437e61437984614351565b614157565b61435b565b9050919050565b61439381614368565b82525050565b60006020820190506143ae600083018461438a565b92915050565b7f63616c6c6572206973206e6f742061206d696e746572206f7220746865206f7760008201527f6e65720000000000000000000000000000000000000000000000000000000000602082015250565b600061441060238361323f565b915061441b826143b4565b604082019050919050565b6000602082019050818103600083015261443f81614403565b9050919050565b600081905092915050565b6000815461445e81613a3c565b6144688186614446565b945060018216600081146144835760018114614498576144cb565b60ff19831686528115158202860193506144cb565b6144a1856140d3565b60005b838110156144c3578154818901526001820191506020810190506144a4565b838801955050505b50505092915050565b60006144df82613234565b6144e98185614446565b93506144f9818560208601613250565b80840191505092915050565b60006145118285614451565b915061451d82846144d4565b91508190509392505050565b7f4552433732313a207472616e736665722066726f6d20696e636f72726563742060008201527f6f776e6572000000000000000000000000000000000000000000000000000000602082015250565b600061458560258361323f565b915061459082614529565b604082019050919050565b600060208201905081810360008301526145b481614578565b9050919050565b7f4552433732313a207472616e7366657220746f20746865207a65726f2061646460008201527f7265737300000000000000000000000000000000000000000000000000000000602082015250565b600061461760248361323f565b9150614622826145bb565b604082019050919050565b600060208201905081810360008301526146468161460a565b9050919050565b7f496e697469616c697a61626c653a20636f6e7472616374206973206e6f74206960008201527f6e697469616c697a696e67000000000000000000000000000000000000000000602082015250565b60006146a9602b8361323f565b91506146b48261464d565b604082019050919050565b600060208201905081810360008301526146d88161469c565b9050919050565b7f4552433732313a20617070726f766520746f2063616c6c657200000000000000600082015250565b600061471560198361323f565b9150614720826146df565b602082019050919050565b6000602082019050818103600083015261474481614708565b9050919050565b7f4552433732313a207472616e7366657220746f206e6f6e20455243373231526560008201527f63656976657220696d706c656d656e7465720000000000000000000000000000602082015250565b60006147a760328361323f565b91506147b28261474b565b604082019050919050565b600060208201905081810360008301526147d68161479a565b9050919050565b7f4e487b7100000000000000000000000000000000000000000000000000000000600052601260045260246000fd5b7f63616e6e6f74206265207472616e73666572726564207768656e20616374697660008201527f6174656400000000000000000000000000000000000000000000000000000000602082015250565b600061486860248361323f565b91506148738261480c565b604082019050919050565b600060208201905081810360008301526148978161485b565b9050919050565b7f416363657373436f6e74726f6c3a206163636f756e7420000000000000000000600082015250565b60006148d4601783614446565b91506148df8261489e565b601782019050919050565b7f206973206d697373696e6720726f6c6520000000000000000000000000000000600082015250565b6000614920601183614446565b915061492b826148ea565b601182019050919050565b6000614941826148c7565b915061494d82856144d4565b915061495882614913565b915061496482846144d4565b91508190509392505050565b600081519050919050565b600082825260208201905092915050565b600061499782614970565b6149a1818561497b565b93506149b1818560208601613250565b6149ba8161327a565b840191505092915050565b60006080820190506149da600083018761337b565b6149e7602083018661337b565b6149f46040830185613411565b8181036060830152614a06818461498c565b905095945050505050565b600081519050614a20816131a5565b92915050565b600060208284031215614a3c57614a3b61316f565b5b6000614a4a84828501614a11565b91505092915050565b6000614a5e826132e6565b9150614a69836132e6565b9250828202614a77816132e6565b91508282048414831517614a8e57614a8d613fde565b5b5092915050565b6000614aa0826132e6565b915060008203614ab357614ab2613fde565b5b600182039050919050565b7f537472696e67733a20686578206c656e67746820696e73756666696369656e74600082015250565b6000614af460208361323f565b9150614aff82614abe565b602082019050919050565b60006020820190508181036000830152614b2381614ae7565b9050919050565b7f4552433732313a206d696e7420746f20746865207a65726f2061646472657373600082015250565b6000614b6060208361323f565b9150614b6b82614b2a565b602082019050919050565b60006020820190508181036000830152614b8f81614b53565b9050919050565b7f4552433732313a20746f6b656e20616c7265616479206d696e74656400000000600082015250565b6000614bcc601c8361323f565b9150614bd782614b96565b602082019050919050565b60006020820190508181036000830152614bfb81614bbf565b9050919050565b6000614c0d826132e6565b9150614c18836132e6565b9250828203905081811115614c3057614c2f613fde565b5b92915050565b7f4e487b7100000000000000000000000000000000000000000000000000000000600052603160045260246000fdfea2646970667358221220f0d3aaa171680a3cc94383c742714d916caee7e07312e9a884682a33f9584ca164736f6c63430008110033",
  "linkReferences": {},
  "deployedLinkReferences": {}
}